:020000040800F2
:10000000701D002075020008A3340008F92E0008B6
:10001000A134000879070008FD5300080000000023
:100020000000000000000000000000002136000871
:1000300081080008000000001F3600082D36000867
:100040008F0200088F0200088F0200088F0200084C
:100050008F0200088F0200088F0200088F0200083C
:100060008F0200088F0200088F0200088F0200082C
:100070008F0200088F0200088F0200088F0200081C
:100080008F0200088F0200088F02000800000000A5
:100090000000000000000000000000008F020008C7
:1000A0008F0200088F0200088F0200088F020008EC
:1000B0008F0200088F0200088F0200088F020008DC
:1000C0008F0200088F0200088F0200088F020008CC
:1000D0008F020008153C00088F0200080000000095
:1000E0008F0200088F0200088F0200080000000045
:1000F0000000000000000000000000008F02000867
:10010000000000008F0200088F0200088F02000824
:1001100000000000000000000000000000000000DF
:10012000D10700088F0200088F0200088F02000824
:100130008F02000800000000000000000000000026
:10014000000000000000000000000000A5340008CE
:100150008F0200088F0200088F0200088F0200083B
:100160008F0200088F02000800000000000000005D
:10017000000000000000000000000000000000007F
:10018000000000008F0200080000000000000000D6
:100190008F02000800F002F800F05CF80AA090E876
:1001A000000C82448344AAF10107DA4501D100F032
:1001B00051F8AFF2090EBAE80F0013F0010F18BFA3
:1001C000FB1A43F001031847F07600001077000097
:1001D0000A444FF0000C10F8013B13F0070408BF6D
:1001E00010F8014B1D1108BF10F8015B641E05D00B
:1001F00010F8016B641E01F8016BF9D113F0080FC0
:100200001EBF10F8014BAD1C0C1B09D16D1E58BF51
:1002100001F801CBFAD505E014F8016B01F8016B88
:100220006D1EF9D59142D6D37047000000230024FB
:1002300000250026103A28BF78C1FBD8520728BFF6
:1002400030C148BF0B6070471FB507F0CBFA1FBD28
:1002500010B510BD00F07BF91146FFF7F5FF05F072
:10026000BFFD00F099F903B4FFF7F2FF03BC00F003
:10027000A1F900000948804709480047FEE7FEE76A
:10028000FEE7FEE7FEE7FEE7FEE7FEE7FEE7FEE746
:1002900004480549054A064B70470000C936000866
:1002A0009501000870170020701D002070190020B3
:1002B0007019002053EA020C00F069802DE9F04B20
:1002C0004FF00006002B1FBFB3FA83F503FA05F4C5
:1002D00024FA05F65E4012BF1643B2FA82F502FA1E
:1002E00005F4C5F120051EBF22FA05FC44EA0C0402
:1002F000203556EA044C4FEA144418BF641C4FF0F2
:1003000000084FF00009904271EB030C39D300292B
:1003100019BFB1FA81F701FA07F6B0FA80F700FACF
:1003200007F6C7F120071EBF20FA07FC46EA0C06B5
:100330002037B6FBF4FCA7EB0507103F07F01F0BB7
:10034000CBF120060CFA0BFB2CFA06F644BFB346A1
:100350000026202FA4BF5E464FF0000B5BEA060C80
:1003600008BF4FF0010B19EB0B09ABFB027C48EB0C
:100370000608C01B06FB02CC0BFB03CC71EB0C0187
:10038000C1E70B46024641464846BDE8F08B13B52F
:100390004FF000004FF00001AFF30080BDE81C40BB
:1003A0007047B2F120030AD5C2F1200301FA02F12D
:1003B00020FA03F300FA02F041EA0301704700FA61
:1003C00003F14FF000007047032A40F2308010F034
:1003D000030C00F0158011F8013BBCF1020F6244E0
:1003E00098BF11F801CB00F8013B38BF11F8013B71
:1003F000A2F1040298BF00F801CB38BF00F8013B1E
:1004000011F0030300F02580083AC0F0088051F88D
:10041000043B083A51F804CBA0E80810F5E7121D98
:100420005CBF51F8043B40F8043BAFF30080D207B7
:1004300024BF11F8013B11F801CB48BF11F8012B83
:1004400024BF00F8013B00F801CB48BF00F8012BA6
:10045000704710B5203AC0F00B80B1E81850203A30
:10046000A0E81850B1E81850A0E81850BFF4F5AF54
:100470005FEA027C24BFB1E81850A0E8185044BFDE
:1004800018C918C0BDE810405FEA827C24BF51F84B
:10049000043B40F8043B08BF7047D20728BF31F83F
:1004A000023B48BF11F8012B28BF20F8023B48BF90
:1004B00000F8012B70474FF000020429C0F01280B1
:1004C00010F0030C00F01B80CCF1040CBCF1020F07
:1004D00018BF00F8012BA8BF20F8022BA1EB0C01DC
:1004E00000F00DB85FEAC17C24BF00F8012B00F8D2
:1004F000012B48BF00F8012B70474FF0000200B5F8
:10050000134694469646203922BFA0E80C50A0E836
:100510000C50B1F12001BFF4F7AF090728BFA0E8E4
:100520000C5048BF0CC05DF804EB890028BF40F8B0
:10053000042B08BF704748BF20F8022B11F0804FF2
:1005400018BF00F8012B7047704770477047754619
:1005500000F02CF8AE4605006946534620F007002F
:10056000854618B020B5FFF793FEBDE820404FF058
:1005700000064FF000074FF000084FF0000B21F08D
:100580000701AC46ACE8C009ACE8C009ACE8C0095A
:10059000ACE8C0098D46704710B50446AFF3008043
:1005A0002046BDE81040FFF75EBE000000487047DF
:1005B0001017002001491820ABBEFEE726000200FC
:1005C000704710B50146806B026C12F0500F05D0D9
:1005D000026CD20626D500F039FB10BD016C41F447
:1005E0000071016401688A6812F0405F17D1027ED1
:1005F000AAB9CA6A12F4700F02D08A6852050ED4E2
:100600004A6822F020024A60016C21F48071016482
:10061000016CC90403D4016C41F00101016400F0D4
:1006200013FB10BD806BC26CBDE81040084610473C
:1006300010B5806B40210164416C41F004014164BC
:1006400000F004FB10BD10B5806B00F0FEFA10BD89
:10065000464910B54A6822F440324A604A68436805
:100660001A434A6001684A6822F480724A6001684D
:100670004A68036942EA03224A6001684A6822F034
:1006800040724A6001684A6883681A434A60016898
:100690008A6822F400628A6001688A68C3681A4323
:1006A0008A60816A6FF07062D14201688A6822F0C4
:1006B00070628A6001688A680CD0836A1A438A6013
:1006C00001688A6822F040528A6001688A68C36AB9
:1006D0001A4301E022F040528A6001688A6822F0E1
:1006E00002028A6001688A68037E42EA43028A60E5
:1006F00090F82010002901684A680FD042F4006287
:100700004A6001684A6822F460424A6001684A68A7
:10071000174C436A04EB43331A4301E022F40062AE
:100720004A600168CA6A22F47002CA620168CA6A31
:10073000838B104C04EB03531A43CA6201688A6826
:1007400022F400728A6001688A6890F8303042EAC8
:1007500043228A6001688A6822F480628A600168A4
:100760008A68406942EA8020886010BD0023014009
:1007700000E0FFFF0000F0FFFEE7002070470020D0
:100780007047704710B500220449054803F057FB35
:100790000449034803F04AFB002010BD000D00206F
:1007A000480400201809002070B50D460446014693
:1007B000054803F03BFB044803F01DFB2946204697
:1007C000FFF7DFFF002070BD4804002000207047C5
:1007D000014800F0D9BB0000840200200168182302
:1007E000CAB2103AB2FBF3F2054B6FF30901032AC8
:1007F0009B5CC36500D9091D8165084670470000F0
:100800009878000810B5014600208B698A6A4FF07D
:10081000C07453B1B3F5005F15D072B1012A0CD08A
:10082000022A0AD0032A09D104E01AB1012A06D00B
:10083000022A03D1C96AC90100D5012010BDC96AC5
:10084000A142FAD010BD002AF7D0012AF2D0022A24
:10085000F3D0032AF3D010BD30B50468256825F421
:1008600080252560046863608368402B036803D09B
:1008700099600068C26030BD9A600068C16030BD98
:10088000704700002DE9F05F0F462DED028B0CA99B
:10089000154691E8000F1E4680B206F0DCFC9FED85
:1008A0004D8B53EC182B06F025FD41EC100B04F09A
:1008B000B7FD51EC100B06F09FFC484C80B221684C
:1008C0004863B8B206F0C7FC53EC182B06F012FDD3
:1008D00041EC100B04F0A4FD51EC100B06F08CFC65
:1008E000216880B28863A8B206F0B5FC53EC182BDF
:1008F00006F000FD41EC100B04F092FD51EC100BE2
:1009000006F07AFC364C80B221684863B0B206F03B
:10091000A2FC53EC182B06F0EDFC41EC100B04F09C
:100920007FFD51EC100B06F067FC216880B28863F4
:100930001FFA88F006F08FFC53EC182B06F0DAFC57
:1009400041EC100B04F06CFD51EC100B06F054FC64
:10095000244C80B2216848631FFA89F006F07BFCC2
:1009600053EC182B06F0C6FC41EC100B04F058FDBC
:1009700051EC100B06F040FC216880B288631FFA2E
:100980008AF006F068FC53EC182B06F0B3FC41EC3F
:10099000100B04F045FD51EC100B06F02DFC216806
:1009A00080B2C8631FFA8BF006F055FC53EC182B8D
:1009B00006F0A0FC41EC100B04F032FD51EC100BE2
:1009C00006F01AFC216880B20864BDEC028BBDE819
:1009D000F09F0000E17A14AE47E1FA3F2C030020BB
:1009E00074030020BC03002000B585B0022877D135
:1009F0000A223C493C4800F0B3F93A483B4A00F12E
:100A0000280190ED000AF8EE400A92ED010A60EE2E
:100A1000800AC1ED000AD0ED010AF8EE600A60EE2E
:100A2000800AC1ED010AD0ED020AF8EE600A60EE1C
:100A3000800AC1ED020AD0ED030AF8EE600A60EE0A
:100A4000800AC1ED030AD0ED040AF8EE600A60EEF8
:100A5000800AC1ED040AD0ED050AF8EE600A60EEE6
:100A6000800AC1ED050AD0ED060AF8EE600A60EED4
:100A7000800AC1ED060AD0ED070AF8EE600A60EEC2
:100A8000800AC1ED070AD0ED080A92ED021AF8EECD
:100A9000600A20EE800AD0ED090A154881ED090AA6
:100AA000F8EE600A60EE810AC1ED080AC18D0D49B9
:100AB000828D6831684606F0B5F90A4A0D49283238
:100AC000684605F0F1FE07494FF47A731822683141
:100AD000074802F0B7F9002802D072B6FEE7FFE738
:100AE00005B000BDBC0100203C0200200000002039
:100AF000040400208078000872B6FEE778B5002470
:100B0000009490F83C20012A19D0012280F83C2062
:100B10000A6807230568092A13D9EE680A3A02EB26
:100B2000420293409E43EE600B788A680A3B03EBD7
:100B300043039A400368DD682A43DA6010E002202C
:100B400078BD2E6902EB420293409E432E610B78E2
:100B50008A6803EB43039A4003681D692A431A61BC
:100B60004A681F23072A13D205686E6B521E02EBD8
:100B7000820293409E436E630B790A885B1E92B299
:100B800003EB83039A4003685D6B2A435A6327E0B3
:100B900005680D2A12D22E6BD21F02EB82029340FF
:100BA0009E432E630B790A88DB1F92B203EB83030B
:100BB0009A4003681D6B2A431A6311E0EE6A0D3AEE
:100BC00002EB820293409E43EE620B790A880D3B52
:100BD00092B203EB83039A400368DD6A2A43DA6228
:100BE000164B0568144A9D4206D10D68122D03D19B
:100BF000556845F48005556005689D4218D10B681D
:100C0000102B01D0112B13D1536843F40003536010
:100C1000096810290CD10A490A4A0968B1FBF2F1A6
:100C200001EB8101490000E0491E00910029FBD140
:100C300080F83C40002078BD0023014000200140A6
:100C40008400002040420F0070477047704770B525
:100C500004004FF0000503D0206C002610B107E01F
:100C6000012070BD204600F01DF8666484F83C60E9
:100C7000206CC00610D4206C20F4885040F0020094
:100C800020642046FFF7E4FC6664206C20F002003C
:100C900040F00100206400E0012584F83C60284613
:100CA00070BD000070B586B0064614216846FFF797
:100CB00024FC25493068884243D124480025016836
:100CC00041F4807101600068204900F4807014399B
:100CD0000590086840F001000860086800F0010015
:100CE0000590086840F0020008600868032400F0DE
:100CF00002000590FF208DE831006946144800F09D
:100D0000C7FA009469461348CDE9014500F0C0FADE
:100D1000124C1148C4E900050015A560C4E9035050
:100D2000800060618000A0618011E0610002C4E980
:100D30000805204600F0F8F908B1FFF7DDFEB463BE
:100D4000A66306B070BD0000002001404438024098
:100D500000000240000402401064024084020020AF
:100D6000F8B5044600200E46009094F83C10012986
:100D700007D0012184F83C1021688B68DB0702D082
:100D800011E00220F8BD8B6843F001038B60364907
:100D9000364B0968B1FBF3F101EB410100E0491E5C
:100DA00000910029FBD121688B68DB0503D58B6896
:100DB00023F480738B6021688B68DB0749D0236C38
:100DC00040F20165AB4343F48073236449684905ED
:100DD00005D5216C21F4005141F480512164216C2E
:100DE000C90404D5616C21F00601616400E060640F
:100DF00084F83C00A16B1F481D4DC863A16B1E48C1
:100E00000864A16B1D48C86421686FF02200086067
:100E10002068416841F0806141602068816841F448
:100E2000807181602168134632464C31A06B00F01E
:100E3000E5F96868C006206802D01149884210D1DF
:100E4000816811F0405F0CD1816841F08041816080
:100E500007E0206C40F010002064606C40F001005E
:100E600060640020F8BD00008400002040420F00B4
:100E700000230140C30500084706000831060008AA
:100E80000020014010B5040002D0607910B106E0E6
:100E9000012010BD00202071204600F005F801203F
:100EA0006071002010BD000008B500680649884246
:100EB00008D10648016841F480510160006800F4DF
:100EC0008050009008BD00000030024030380240E1
:100ED0002DE9F0410446876D00F0D0FA064694F8FB
:100EE00035000025022806D08020606584F8345043
:100EF0000120BDE8F0812068016821F01601016041
:100F00002068416921F080014161206C08B9A06C22
:100F100020B12068016821F00801016020680168A3
:100F200021F0010101600CE000F0A8FA801B052807
:100F300007D920206065032084F8350084F83450F8
:100F4000D7E720680068C007EED194F85C103F2016
:100F50008840B860012084F8350084F834500020BF
:100F6000C7E790F83510022903D0802141650120A0
:100F70007047052180F835100068016821F00101F3
:100F800001600020704700002DE9F84304464FF04F
:100F90000009CDF8009063484FF41651A56D006824
:100FA000B0FBF1F72E6894F85C10082000FA01F10C
:100FB00031420FD021680A6852070BD50A6822F027
:100FC00004020A6094F85C108840A860606D40F0EC
:100FD0000100606594F85C104FF0010808FA01F018
:100FE000304208D021684969090604D5A860606DBF
:100FF00040F00200606594F85C10042088403042A4
:1010000008D021680968890704D5A860606D40F0A0
:101010000400606594F85C1010208840304218D0BD
:1010200021680968090714D5A86020680168490388
:1010300004D50068000308D5A16C07E00168C90564
:1010400003D4016821F008010160216C09B1204638
:10105000884794F85C1020208840304231D02168C5
:101060000968C9062DD5A86094F8350005282068C0
:10107000016806D0490347D5006800031DD4616CA0
:101080001CE021F0160101602068416921F0800117
:101090004161206C08B9A06C20B12068016821F082
:1010A0000801016094F85C103F208840A86084F833
:1010B000358084F83490216D1FE0E16B09B1204642
:1010C0008847606D00282BD0606DC00714D00520C4
:1010D00084F835002068016821F001010160009862
:1010E000401C0090B84203D820680068C007F6D1C1
:1010F00084F8358084F83490E16C002910D001B078
:101100002046BDE8F04308470168C905D5D4016809
:1011100021F01001016084F8358084F83490CCE728
:10112000BDE8F883840000202DE9F041044600F07A
:10113000A5F906465CB1022084F83500002584F844
:1011400034502068016821F0010101600DE00120A8
:10115000BDE8F08100F092F9801B052805D9202018
:101160006065032084F83500F2E720680068C00756
:10117000F0D12268116820480140D4E901031843E6
:10118000D4E903363343184363691843A36918430A
:10119000E3691843236A18430843616A042903D1A9
:1011A000D4E90B1319430843106020684069666A4C
:1011B00020F0070130460E43012704280CD1A06A15
:1011C0000643E06A40B12046FFF71CFB20B14020F7
:1011D000606584F83570BAE7206846612046FFF7FD
:1011E000FDFA94F85C203F2191408160656584F8A8
:1011F00035700020ACE700003F8010F02DE9F04191
:101200000446866D90F83400002501280DD0012099
:1012100084F8340094F835700020012F07D084F84A
:10122000340002252846BDE8F0810220FBE70227B2
:1012300084F8357060652046FFF70EFB94F85C106B
:101240003F208840B0602068016841F016010160CD
:10125000206C20B12068016841F00801016020681D
:10126000016841F001010160DCE7000070B504464F
:1012700000F004F90546601C02D0044800780444DC
:1012800000F0FCF8401BA042FAD370BD78000020AB
:101290002DE9F84FDFF8B8A1002201240AF1040B70
:1012A00003254FF00F090BF1040E00BF0B6804FA81
:1012B00002F63340B34273D10F7907F00307012FD1
:1012C00001D0022F16D187684FEA420805FA08FCC0
:1012D00027EA0C07D1F80CC00CFA08FC4CEA070C02
:1012E000C0F808C04768B7430E79C6F300169640A9
:1012F0003E4346600E79F643B6070DD0C7685600E8
:1013000005FA06FC27EA0C07D1F808C00CFA06FC1F
:101310004CEA070CC0F80CC00E7906F00306022E4A
:1013200010D1D60800EB8608D8F8206057074FEA9E
:10133000D76C09FA0CF7BE430F6907FA0CF737436D
:10134000C8F8207006684FEA420C05FA0CF7BE4355
:101350000F7907F0030707FA0CF7374307604E6869
:1013600016F4403F6DD03B4E376847F480473760F6
:10137000366822F0030706F480460096364E07EBE7
:10138000060CDCF8086897073F0F09FA07F826EA09
:101390000806DFF8C880404503D14FF000081EE082
:1013A0004FE0DFF8BC80404502D14FF0010816E065
:1013B000DFF8B080404502D14FF002080FE0DFF8BF
:1013C000A880404502D14FF0030808E0DFF89C8078
:1013D000404502D14FF0040801E04FF0070808FA39
:1013E00007F848EA0608CCF80888DAF8006057469B
:1013F000D1F804C09E435FEACC3C00D51E433E605A
:10140000DBF800605F46D1F804C09E435FEA8C3C85
:1014100000D51E433E60DEF800607746D1F804C078
:101420009E435FEACC2C00D51E433E60084F0C372C
:101430003E68D1F804C09E435FEA8C2C00D51E4361
:101440003E60521C102AFFF431AFBDE8F88F000057
:10145000003C01404438024000300140000002409E
:101460000004024000080240000C0240001002404C
:101470000AB1816170470904FBE7000001488068F8
:10148000704700007800002002488168027811440B
:1014900081607047780000200B4810B5016841F466
:1014A00000710160016841F480610160016841F4EC
:1014B00080710160032000F06FF80F2000F006F843
:1014C00000F024F8002010BD003C024070B50D4D26
:1014D00004464FF47A712878B1FBF0F00A490968A4
:1014E000B1FBF0F000F0A6FF48B9102C07D20022A3
:1014F0002146501E00F030F800206C6070BD0120C5
:1015000070BD000078000020840000200A4808B563
:10151000016841F480410160006800F4804000905F
:101520000548001F016841F080510160006800F02B
:101530008050009008BD000044380240002809DBBC
:1015400000F01F02012191404009800000F1E020DD
:10155000C0F8001170470000F0B40E4B1B680C4639
:10156000C3F30223C3F10705042D00D90425191D77
:10157000072901D2002300E0DB1E012606FA05F14F
:10158000491E214099409E40761E16403143F0BCD2
:1015900003F035BF0CED00E0064900F007020868D3
:1015A0004FF6FF03184040EA0220034A1043086048
:1015B000704700000CED00E00000FA05704700687D
:1015C000416200207047F0B50368586A39B19C6ADF
:1015D0004FF4827600EB144400204D1E0AE040EAEE
:1015E000024098620FE006EB8007DF59401C04EBD5
:1015F0001744C0B2A842F6D344EA02404FF48072C6
:1016000002EB810158500020F0BDD0F8040402F034
:101610009BBEC1EBC10200EB8202D0F80404926CC5
:1016200002F008BEC1EBC10200EB8202D0F8040454
:10163000D2F8082202F052BED0F8040402F086BEAE
:1016400070B504460B0601F00F00C0EBC00104EBBF
:1016500081014FF001024FF0000503D581F83D20D4
:101660003C3103E081F8FD5101F5FE71087094F8FA
:10167000BC03012808D084F8BC23206803F024FAB6
:1016800084F8BC53002070BD022070BD70B50446C4
:1016900001F00F006268904201D9012070BD0B0675
:1016A00001F00F01C1EBC10104EB81014FF0010218
:1016B0004FF0000503D581F83D203C3103E081F86F
:1016C000FD5101F5FE718D70087094F8BC0301287E
:1016D00008D084F8BC23206803F0F0FB84F8BC53E6
:1016E000002070BD022070BD01F00F01C1EBC101EF
:1016F00000EB8100D0F8140270472DE9F041044658
:101700000F0601F00F00C0EBC00104EB81014FF0A8
:1017100001064FF0000503D581F83D603C3103E040
:1017200081F8FD5101F5FE7108708A60CB704A782E
:1017300002B1C880022B00D10D7194F8BC030128BE
:1017400009D084F8BC63206803F016F9284684F8B1
:10175000BC53BDE8F0810220FBE770B50C4601F0F8
:101760000F05C5EBC50100EB8101C1F81032C1F8CE
:1017700008220023C1F8143281F8FD3181F8FC51B0
:10178000036901F5FE71012B00D10A612207027C79
:10179000006803D003F0EAFB002070BD03F0D6FA26
:1017A000FAE770B504460D4601F00F006168884203
:1017B00001D9012070BD29064FF000064FF001024B
:1017C00007D5C0EBC00104EB810181F83D203C311D
:1017D00007E0C5EBC50104EB810181F8FD6101F56E
:1017E000FE718A70087094F8BC03012807D084F851
:1017F000BC23206803F08EFB280702D007E00220FC
:1018000070BD217C04F57172206803F02BFB84F815
:10181000BC63002070BD70B50C4601F00F05C5EB30
:10182000C50100EB81010B658A6400234B65012330
:1018300081F83D3001F83C5F0369012B00D10A615A
:101840002207027C006803D003F090FB002070BDEB
:1018500003F07CFAFAE700002DE9FC5F0568044616
:10186000284603F0B4FC00287ED1206803F0DBFC9E
:10187000002879D0206803F0D6FC800704D52168C1
:10188000486900F002004861206803F0CCFCC10602
:1018900004F57170009034D52068816921F0100141
:1018A00081612F6A07F00F00C0EBC00004EB8006D7
:1018B000C7F3434006F5FE76022802D0062811D071
:1018C0001AE047F6F070074216D0C7F30A1217461F
:1018D0002846F16803F0ABFCF0683844F060B0696A
:1018E000384408E008222846009903F0A0FCB069BB
:1018F000C7F30A110844B0612068816941F0100102
:101900008161206803F08FFC00034FF0010A4FF063
:10191000080B5BD50026206803F064FC0746DFF85F
:10192000689351E0F8074DD0F1B2206803F073FCE2
:101930008046C00707D005EB4611C1F808AB314619
:10194000204601F0B5FD5FEA087022D505EB46118F
:10195000C1F808BB2068016C00EB46100191D0F87B
:10196000082B494507D900E08BE1110403D54FF45A
:101970000041C0F8081B204600F073FA0198484562
:1019800007D92069012804D120680121009A03F0B9
:1019900069FA5FEAC86004D505EB46111020C1F86A
:1019A000080B5FEA886004D505EB46112020C1F8DA
:1019B000080B5FEA884005D505EB46104FF400514F
:1019C000C0F8081B7F08761C002FABD1206803F0FD
:1019D0002AFC40034FF000095CD5206803F0FBFBB4
:1019E0000746002654E0F80750D0F1B2206803F013
:1019F00000FC8046C00723D006F00F020AFA02F06E
:101A0000D5F834288243C5F8342805EB4610C0F8D1
:101A100008A9206901280FD1C6EBC60004EB80009D
:101A2000D0E911211144816436B9206D20B92068B4
:101A30000121009A03F016FAF1B22046FFF7E9FD02
:101A40005FEA087003D505EB4611C1F808B95FEAF3
:101A5000C86004D505EB46111020C1F808095FEAFB
:101A6000486004D505EB46114020C1F808095FEA3B
:101A7000887004D505EB46110220C1F808095FEA19
:101A8000086003D53146204601F078FD7F08761CBA
:101A9000002FA8D1206803F0C6FB002811DAD5F882
:101AA000040820F00100C5F8040894F8F4030128A4
:101AB00029D0204600F0B9F92068416901F00041C1
:101AC0004161206803F0AFFB00050BD5D5F808088D
:101AD000C00702D0204600F0EDF92068416901F40A
:101AE00000614161206803F09EFBC00468D5D5F811
:101AF000040820F00100C5F804081021206803F054
:101B000043FB002127E084F8F49300212046FFF7EF
:101B100055FDD1E705EB41104FF67F32C0F808299B
:101B2000D0F8003923F40013C0F80039D0F8003998
:101B300043F00063C0F80039C0F8082BD0F8002B40
:101B400022F40012C0F8002BD0F8002B42F0006203
:101B5000C0F8002B491C60688842DBD8D5F81C0807
:101B600040F00110C5F81C08206B60B1D5F884085E
:101B700040F00B00C5F88408D5F8440840F00B008D
:101B8000C5F844080CE0D5F8141842F22B000143C4
:101B9000C5F81418D5F8100840F00B00C5F8100867
:101BA000D5F8000820F4FE60C5F80008217C206804
:101BB000009A03F057F92068416901F480514161AE
:101BC000206803F030FB800415D5206802F014FF74
:101BD000206803F0EFFAE06000F01EFA0146227B75
:101BE000206803F083FB204600F00CF9206841696F
:101BF00001F400514161206803F015FB000707D58F
:101C0000204600F016F92068416901F008014161A1
:101C1000206803F008FBC00208D50021204600F030
:101C200035F82068416901F480114161206803F0B2
:101C3000FAFA800208D50021204600F02BF820682F
:101C4000416901F400114161206803F0ECFA4000A1
:101C500007D52046FFF7D9FC2068416901F0804193
:101C60004161206803F0DFFA40070AD52068456823
:101C7000680702D52046FFF7DFFC2068416829434A
:101C80004160BDE8FC9F00000A30544FD0F80404C6
:101C900002F0ACBBD0F8040402F0B8BB2DE9F0416F
:101CA0008AB0040005D094F8BD032668002520B151
:101CB00008E001200AB0BDE8F08184F8BC5320465A
:101CC00000F05EF8032084F8BD03F06BC00500D47B
:101CD0002561206803F034F804F1100128228846B9
:101CE0006846FEF7B6FB94E80F0002F093FE02266A
:101CF000C8BB0021206803F0B9FA002001270EE0DC
:101D0000C0EBC00104EB810181F83D7001F83C0F8C
:101D1000C880CD708D60CD60401CC0B24D616168DF
:101D20008142EDD8002011E0C0EBC00104EB81013D
:101D300081F8FD5181F8FC0181F8FF51C1F804528E
:101D4000C1F80852401CC0B2C1F81052616881420B
:101D5000EAD8282241466846FEF77BFB94E80F004C
:101D600002F034FF10B184F8BD63A2E784F8385064
:101D700084F8BD73206802F01BFF00209AE7000082
:101D800010B586B0044614216846FEF7B6FB2068FD
:101D9000B0F1A04F2FD119480021026842F0010292
:101DA0000260006800F0010005904FF4C050009000
:101DB0000220CDE90101032003900A200490694626
:101DC0000F48FFF765FA0D48001D016841F08001DA
:101DD00001600A481430016841F4804101600068E4
:101DE000002200F48040059011464320FFF7B4FB29
:101DF0004320FFF7A3FB06B010BD000030380240BF
:101E00000000024070B50446C0680125022801D0D8
:101E1000FEF772FE2946D4F8040402F063FBD4F8FE
:101E20000404BDE8704002F016BBD0F8040402F0D0
:101E30003FBBD0F8040402F045BB10B5044690F84F
:101E4000BC0301280BD0012084F8BC0384F83810AF
:101E5000206803F039FA002084F8BC0310BD02208A
:101E600010BDD0F8042400F57171104602F046BB95
:101E700010B50446006894F8BC13012906D001216E
:101E800084F8BC13A16A012902D008E0022010BD29
:101E9000A169012903D0816B41F4803181632068FD
:101EA00003F058F9206802F075FE002084F8BC03A6
:101EB00010BD000010B50446D0F8040402F060FB29
:101EC0002068D0F8001E41F00101C0F8001E206A11
:101ED000002804D00248016841F00601016010BDED
:101EE00010ED00E02DE9F0470E46050065D0DFF863
:101EF0001481D8F80000F7B200F00700B04207D212
:101F000088F80070D8F8000000F00700B04254D103
:101F100028683D4C810712D5400703D5206840F45E
:101F2000E05020602878000703D5206840F4604026
:101F300020602068A96820F0F0000843206028781D
:101F4000C0072DD0304968680839012812D002280E
:101F500013D0032811D00968890700292DDA2168D8
:101F600021F0030101432160FFF788FA814641F225
:101F7000883A0EE009688903EFE709688901ECE710
:101F8000FFF77CFAA0EB0901514502D90320BDE817
:101F9000F0872068696800F00C00B0EB810FEFD18A
:101FA000D8F80010404601F00701B14207D9077088
:101FB000006800F00700B04201D00120E7E7287870
:101FC000400705D52068E96820F4E0500843206008
:101FD0002878000706D52068296920F4604040EA87
:101FE000C100206000F03EF82168084AC1F30311E7
:101FF000515CC8400649086006480068FFF766FA69
:102000000020C4E7003C024008380240A0780008E5
:10201000840000207C000020014800687047000018
:10202000840000200448054900680968044AC1F397
:102030008221515CC840704784000020083802406B
:10204000B07800080448054900680968044AC1F3EB
:102050004231515CC840704784000020083802407B
:10206000B0780008154810B5006810F00C0214484C
:1020700013D01449042A0FD0082A0ED10F4C241F64
:102080002268236802F03F025B0207D52068C0F394
:102090008810A0FB010106E0084610BD2168C1F3CD
:1020A0008811A1FB00010023FEF704F92168C1F3A8
:1020B0000141491C4900B0FBF1F010BD0838024055
:1020C0000024F40040787D012DE9F84F04006ED023
:1020D0002078DFF84C93C007A9F104054AD009F134
:1020E00004000168C1F38101012908D00068C0F330
:1020F000810002280AD1D9F80000400206D52868DC
:10210000800337D560680028E1D033E06068B0F51F
:10211000803F10D0B0F5A02F286810D020F4803078
:102120002860286820F4802028606068A8B1FFF744
:10213000A5F906460DE0286840F48030F4E740F445
:1021400080202860F7E700BFFFF798F9801B64281C
:1021500073D828688003F7D50CE0FFF78FF906469F
:1021600005E000BFFFF78AF9801B6428F0D82868D3
:102170008003F7D42078DFF8AC8280074FF0000AA4
:102180003ED5A748001D016811F00C0F08D000686B
:10219000C0F3810002280BD1D9F80000400207D417
:1021A0002868800716D5E068012800D112E033E1E5
:1021B000E068B8B10120C8F80000FFF75FF90646F3
:1021C00005E000BFFFF75AF9801B0228C0D8286835
:1021D0008007F7D52868216920F0F80040EAC1009F
:1021E00028600DE0C8F800A0FFF748F9064604E0B3
:1021F000FFF744F9801B02281FD828688007F7D40E
:102200002078000722D5864F87486169703771B101
:1022100001210160FFF732F9064604E0FFF72EF9CD
:10222000801B022809D838688007F7D50EE0C0F86F
:1022300000A0FFF723F9064605E082E0FFF71EF94C
:10224000801B02287DD838688007F7D420784007A3
:1022500068D5DFF8CCB100270BF13C0BDBF80000B0
:10226000C0000BD4DBF8001041F08051CBF8001017
:10227000DBF80000012700F0805000906B4E3068C2
:10228000C00510D4306840F480703060FFF7F6F875
:10229000009005E0FFF7F2F80099401A022850D8A4
:1022A0003068C005F6D55E4EA0686C3601280FD0A8
:1022B0000528306810D020F001003060306820F030
:1022C00004003060A068B8B1FFF7D8F800900FE0C4
:1022D000306840F00100F4E740F004003060F7E7B8
:1022E000FFF7CCF80099411A41F28830814266D854
:1022F00030688007F4D50EE0FFF7C0F8009007E0E3
:10230000FFF7BCF80099411A41F28830814256D853
:1023100030688007F4D42FB1DBF8001021F0805131
:10232000CBF80010A069C8B33D49091D0968C1F385
:10233000810102294AD00228504607D0C8F860001F
:1023400000E03CE0FFF79AF804463BE04746C8F857
:102350006000FFF793F8064605E000BFFFF78EF830
:10236000801B02282BD828688001F7D4D4E9070104
:102370000843A16A2E4A490802EB0141626A41EA18
:102380008211084394F82C1040EA0161C9F800104A
:1023900001203866FFF772F8044606E03EE000BF11
:1023A000FFF76CF8001B022809D828688001F7D5D0
:1023B00034E000BFFFF762F8001B022802D90320B7
:1023C000BDE8F88F28688001F4D427E00128F7D011
:1023D000D9F80000E26900F4800191421CD1226A20
:1023E00000F03F01914217D147F6C071626A014087
:1023F000B1EB821F10D1A26A4FF0FF3300F44031DD
:1024000003EB5202B1EB024F06D194F82C1000F00E
:102410007060B0EB016F01D00120D1E70020CFE761
:102420000438024000004742800E474200700040DE
:102430000000FFFF10B5401EB0F1807F01D30120E6
:1024400010BD4FF0E02460610F21601702F0D7FF4C
:102450000020A06107202061002010BD10B590F879
:102460003C20012A22D0012280F83C20CA688C68D6
:1024700022F4407222434C6822F4806222430C68AA
:1024800022F4006222430C6922F4805222434C69F8
:1024900022F400522243C969002322F480420A43F5
:1024A00001684A6480F83C30002010BD022010BD55
:1024B00070B590F83C20012A2CD0012480F83C40D3
:1024C000022280F83D2003685A689D6822F0700659
:1024D0000A6832435A60104B02689A420ED0B2F139
:1024E000804F0BD00D4B9A4208D00D4B9A4205D02D
:1024F0000C4B9A4202D00C4B9A4204D1496825F009
:1025000080031943916080F83D40002180F83C1021
:10251000084670BD022070BD00000140000400406C
:1025200000080040000C00400040014010B50400CD
:1025300003D094F83D0010B107E0012010BD002049
:1025400084F83C00204600F01FF8022084F83D008B
:10255000211D206801F0C0F8012084F8460084F8AD
:102560003E0084F83F0084F8400084F8410084F87D
:10257000420084F8430084F8440084F8450084F85D
:102580003D00002010BD000008B501681148B1F100
:10259000804F0BD0104A914210D1016841F00201E6
:1025A0000160006800F00200009008BD016841F081
:1025B00001010160006800F00100F5E7074A91425F
:1025C000F3D1016841F004010160006800F00400EB
:1025D000EAE70000403802400004004000080040E4
:1025E00070B5044690F83C000025012817D001265C
:1025F00084F83C60022084F83D002068826822F064
:10260000770222F47F4282600868502838D00DDCBF
:1026100020284FD005DC90B3102811D14AE00220C9
:1026200070BD302846D040280AD13BE060282FD02A
:1026300070280DD0B0F5805F03D0B0F5005F12D0E8
:10264000012584F83D60002084F83C00284670BDD8
:10265000CB68D1E90121206801F097F820688168F2
:1026600041F0770109E0CB68D1E90121206801F050
:102670008CF82068816841F480418160E1E719E0CD
:10268000CA684968206801F035F95021206806E0E1
:10269000CA684968206801F03EF96021206801F0AD
:1026A0007EF8CEE7CA684968206801F023F9402126
:1026B0002068F4E7226801461046F0E72DE9F04172
:1026C00086B0044614216846FDF717FF3C4A21688E
:1026D00000243C48022501263B4FDFF8F080914260
:1026E00021D1016841F002010160016801F002019D
:1026F0000591016841F0010101600068694600F040
:10270000010005904FF460400090CDE90154CDE9FF
:1027100003463846FEF7BCFDE8010090CDE90154C0
:102720006946404630E0B1F1804F0CD0284A9142D2
:1027300031D1016841F002010160006800F002003F
:102740000590302034E0016841F00101016001682A
:1027500001F001010591016841F00201016000688A
:10276000694600F0020005904FF400400090CDE96A
:102770000154CDE903464046FEF78AFD082000904B
:10278000CDE9015469463846CDE90346FEF780FDA0
:1027900006B0BDE8F0810F4A9142F9D1016841F0DD
:1027A00002010160006800F0020005904FF47070B3
:1027B0000090CDE9015469463846CDE90345E5E787
:1027C0000000014030380240000402400000024096
:1027D000000400400008004070B5044690F83C003A
:1027E000002501280FD0012084F83C006AB1042A9A
:1027F0000FD0082A11D00C2A13D00125002084F80C
:102800003C00284670BD022070BD206800F0D0FF5B
:10281000F4E7206800F0F4FFF0E7206801F01CF80E
:10282000ECE7206801F044F8E8E710B5040003D0B5
:1028300094F83D0010B107E0012010BD002084F89D
:102840003C00204600F01EF8022084F83D00211DC7
:10285000206800F041FF012084F8460084F83E0023
:1028600084F83F0084F8400084F8410084F8420076
:1028700084F8430084F8440084F8450084F83D005F
:10288000002010BD08B500680649884208D10648F6
:10289000016841F001010160006800F00100009052
:1028A00008BD0000000001404438024070B50446F5
:1028B00090F83C0000260D4601280FD0012084F836
:1028C0003C006AB1042A1DD0082A2FD00C2A3FD020
:1028D0000126002084F83C00304670BD022070BD07
:1028E000206800F065FF2068816941F0080181617E
:1028F0002068816921F004018161206881692A6969
:10290000114311E0206800F07BFF2068816941F4E9
:10291000006181612068816921F4806181612068A2
:1029200081692A6941EA02218161D2E7206800F0C9
:1029300093FF2068C16941F00801C1612068C16945
:1029400021F00401C1612068C1692A69114311E0C5
:10295000206800F0ADFF2068C16941F40061C161E9
:102960002068C16921F48061C1612068C1692A6958
:1029700041EA0221C161ACE710B5040003D094F82C
:102980003D0010B107E0012010BD002084F83C009C
:10299000204600F01EF8022084F83D00211D20682A
:1029A00000F09AFE012084F8460084F83E0084F886
:1029B0003F0084F8400084F8410084F8420084F825
:1029C000430084F8440084F8450084F83D0000206A
:1029D00010BD704710B50446022249B104290ED03B
:1029E000082913D094F84100012816D0012010BD09
:1029F00094F83E000128F9D184F83E200FE094F8C5
:102A00003F000128F2D184F83F2008E094F840000C
:102A10000128EBD184F8402001E084F84120012214
:102A2000206800F0A5FE12492068884203D1426C5C
:102A300042F400424264206888420ED0B0F1804FD8
:102A40000BD00C49884208D00B49884205D00B496D
:102A5000884202D00A49884204D1816801F0070106
:102A6000062903D0016841F001010160002010BD7A
:102A7000000001400004004000080040000C00403D
:102A80000040014070477047F8B501680446086887
:102A9000CA684B6910F00F0F4FF0000559D003F0D2
:102AA000010602F49077374365D0C10705D0D10500
:102AB00003D5216C41F001012164410705D5D907F7
:102AC00003D0216C41F002012164810705D5D907AB
:102AD00003D0216C41F004012164010707D502F005
:102AE0002001314303D0216C41F008012164216CA5
:102AF00000293AD0800604D5900602D5204600F081
:102B00004BFF20684069216CC0F38010090700D496
:102B100060B3204600F019FF20684069400621D5C7
:102B20002068143050E8001F21F0400140E80012F6
:102B3000002AF5D1A06BA8B16C490165A06BFEF726
:102B400010FA002811D0A06B016D01B0BDE8F04073
:102B5000084783060FD593060DD52046BDE8F840FB
:102B600000F01ABF2046FFF78EFFF8BD2046FFF7A2
:102B70008AFF2564F8BD266B2023012E79D1C60675
:102B800077D5D60675D5086848680090486940062C
:102B900040D5A16B086840680004000CEAD0A28D03
:102BA0008242E7D9E085C869B0F5807F2DD02068E2
:102BB0000C3050E8001F21F4807140E80012002A18
:102BC000F5D12068143050E8001F21F0010140E8E1
:102BD0000012002AF5D12068143050E8001F21F0BF
:102BE000400140E80012002AF5D184F83E30256308
:102BF00020680C3050E8001F21F0100140E800125E
:102C0000002AF5D1A06BFEF763F9A08DE18D401A83
:102C100081B229E0A08DE18D401A81B2E08D0028BB
:102C2000A8D00029A6D020680C3050E8002F22F44C
:102C3000907240E80026002EF5D12068143050E84C
:102C4000002F22F0010240E80026002EF5D184F882
:102C50003E30256320680C3050E8002F22F010022F
:102C600040E80023002BF5D12046FFF70BFFF8BD0D
:102C7000FFE705062BD5150629D594F83D00212838
:102C8000F5D1A068B0F5805F01D12069B0B1206AAC
:102C9000411C2162216800784860E08C401E0004DD
:102CA000000CE084E3D12068C16821F08001C1609C
:102CB0002068C16841F04001C160D8E7206A0088FF
:102CC000C0F308004860206A801C2062E5E74006E7
:102CD000CDD55006CBD5CA68204622F04002CA6046
:102CE00084F83D3000F007F9C1E700003B390008E7
:102CF00070B5040004D094F83D00002510B106E042
:102D0000012070BD84F83C50204600F023F82420B8
:102D100084F83D002068C16821F40051C16020465C
:102D200000F09AFE2068016921F490410161206859
:102D3000416921F02A0141612068C16841F40051D4
:102D4000C1602564202084F83D0084F83E00002006
:102D500070BD000010B586B0044614216846FDF72A
:102D6000CCFB18492068884229D117480021026805
:102D700042F010020260006800F010000590124856
:102D80001438026842F001020260006800F001009D
:102D900005904FF4C06000900220CDE901010320AE
:102DA00003900720049069460848FEF771FA002254
:102DB00011462520FEF7D0FB2520FEF7BFFB06B00D
:102DC00010BD0000001001404438024000000240E5
:102DD00090F83E30202B0ED159B152B190F83C30D2
:102DE000012B08D0012380F83C300023036300F05E
:102DF000B9BE012070470220704700001FB50D4A80
:102E000001681268914213D1C18D828D0A496846CA
:102E100003F088FF084A0949703A684603F062FAED
:102E2000074901200870182203490248FFF7D0FF24
:102E30001FBD0000040400200C02002038780008A8
:102E4000000000202DE9F843044690F83D001F469D
:102E500016460D4620284CD1C5B1BEB194F83C00B1
:102E6000012846D0012084F83C004FF00008C4F847
:102E70004080212084F83D00FEF700FBA6848146B7
:102E8000E684A068B0F5805F03D004E00120BDE8CF
:102E9000F883206928B12E465FF0000584F83C8055
:102EA0000EE00026FAE78021204600F076FEA0B969
:102EB000AEB116F8010B21684860E08C401EE0843A
:102EC000E08C4B464FF0000200970028EBD14FF00A
:102ED0004001204600F061FE30B10320D7E735F80D
:102EE000020BC0F30800E6E7202084F83D00002034
:102EF000CDE70220CBE77047FEE70000F0B50023E6
:102F00000A24302537261F4611E000BFB4EB107F9E
:102F100002D905EB107C01E006EB107C01F813C030
:102F200001EB430C00015B1C8CF80170DBB2934297
:102F3000ECD3F0BD2DE9FF410024434800940194F7
:102F4000029440490394016001254FF480310561EA
:102F5000C0E90114057680F820403C49C0E90A1414
:102F60004FF00A08C0F81C80C46080F830504561FA
:102F7000FDF76DFE08B1FDF7BFFD03268DE870007B
:102F800069463148FDF7BAFD08B1FDF7B5FD0227E6
:102F9000CDE9005769462C48FDF7B0FD08B1FDF7B3
:102FA000ABFDCDE9007669462748FDF7A7FD08B1DE
:102FB000FDF7A2FD00960426694623480196FDF719
:102FC0009DFD08B1FDF798FD0096052669461E484F
:102FD0000196FDF793FD08B1FDF78EFD00960626DC
:102FE000694619480196FDF789FD08B1FDF784FD92
:102FF00000960726694614480196FDF77FFD08B143
:10300000FDF77AFD0820CDE9006069460E48FDF71E
:1030100075FD08B1FDF770FD0920CDE90040694656
:103020000948FDF76BFD08B1FDF766FDCDE90058D5
:1030300069460548FDF762FD002801D0FDF75CFDFB
:10304000BDE8FF81002001403C0200200100000F8C
:10305000074910B5054808600846FDF713FF00282A
:1030600003D0BDE81040FDF747BD10BD0030024061
:103070000C000020094808B5016841F48001016096
:103080000068002200F48000009011463820FEF70E
:1030900063FABDE808403820FEF750BA30380240E5
:1030A000F0B587B014216846FDF727FA21480024BF
:1030B000016841F004010160016801F0040105911B
:1030C000016841F080010160016801F08001059113
:1030D000016841F001010160016801F00101059101
:1030E000016841F0020101600068134E00F0020027
:1030F0004FF400550590002229463046FEF7B8F9F6
:103100000E4F002204213846FEF7B2F90095012542
:10311000CDE90154694630460394FEF7B9F804201E
:103120000090CDE90154694638460394FEF7B0F8A3
:1031300007B0F0BD303802400008024000040240F1
:1031400010B592B000240F941C2168461094FDF72E
:10315000D4F9202107A8FDF7D0F927482549C0E96F
:1031600000144FF6FF71C0E90241046144618461BB
:10317000FFF75BFB08B1FDF7BFFC0F940FA91E48DA
:103180001094FFF795F908B1FDF7B6FC009401948F
:103190000294039404940594002269461648069408
:1031A000FFF71AFB08B1FDF7A7FC04226946124895
:1031B000FFF712FB08B1FDF79FFC082269460E4895
:1031C000FFF70AFB08B1FDF797FC079408940994F0
:1031D0004FF400500A94CDE90B4007A906480E941D
:1031E000FFF73CF908B1FDF787FC0348FFF766FAE3
:1031F00012B010BD00000140E402002010B58EB0F6
:1032000000240794089409940A940B941C2168469E
:103210000C94FDF772F922484FF080410160312192
:10322000C0E9011448F23F31C0E903148461FFF79B
:103230007DF908B1FDF760FC4FF48050079007A9B5
:103240001748FFF7CDF908B1FDF756FC1448FFF712
:1032500093FB08B1FDF750FC0B940BA910480C949C
:10326000FFF726F908B1FDF747FC6020CDE900041F
:103270000294002269460A480494FFF717FB08B13C
:10328000FDF73AFC042269460548FFF70FFB08B139
:10329000FDF732FC0248FFF711FA0EB010BD000036
:1032A0002C03002010B58EB00024079408940994D4
:1032B0000A940B941C2168460C94FDF71EF92248D1
:1032C000204901603121C0E9011448F23F31C0E9D1
:1032D00003148461FFF72AF908B1FDF70DFC4FF4E0
:1032E0008050079007A91848FFF77AF908B1FDF751
:1032F00003FC1548FFF740FB08B1FDF7FDFB0B94FD
:103300000BA911480C94FFF7D3F808B1FDF7F4FBB3
:103310006020CDE900040294002269460A48049422
:10332000FFF7C4FA08B1FDF7E7FB04226946064837
:10333000FFF7BCFA08B1FDF7DFFB0348FFF7BEF962
:103340000EB010BD000400407403002010B58EB014
:1033500000240794089409940A940B941C2168464D
:103360000C94FDF7CAF82A48284901603121C0E9C8
:10337000011448F23F31C0E903148461FFF7D6F825
:1033800008B1FDF7B9FB4FF48050079007A920481A
:10339000FFF726F908B1FDF7AFFB1D48FFF7ECFA80
:1033A00008B1FDF7A9FB0B940BA919480C94FFF782
:1033B0007FF808B1FDF7A0FB6020CDE9000402947E
:1033C0000022694612480494FFF770FA08B1FDF72D
:1033D00093FB042269460E48FFF768FA08B1FDF72F
:1033E0008BFB082269460A48FFF760FA08B1FDF72F
:1033F00083FB0C2269460648FFF758FA08B1FDF72F
:103400007BFB0348FFF75AF90EB010BD00080040DF
:10341000BC0300200C4810B50A4901604FF4E131AB
:103420004160002181600C22C160C0E90412816109
:10343000C161FFF75DFC002803D0BDE81040FDF737
:103440005BBB10BD001001400404002010B5002239
:103450000F49104800F0C9FE08B1FDF74DFB0E49B9
:103460000C4801F0B5F808B1FDF746FB0B490948D7
:1034700000F0D5FC08B1FDF73FFB064801F022F94A
:10348000002803D0BDE81040FDF736BB10BD00009A
:103490001400002048040020640100206400002083
:1034A000FEE7FEE70148FEF7D7B900000813002049
:1034B0002DE9F04103680D4604461E6C03EB4511EF
:1034C000D1F8080BD4F810E04FF400474FF0200C6F
:1034D00004F57172BEF1010F09D0DFF898E076456E
:1034E00039D1020432D500BFC1F8087B3FE0224B3E
:1034F0005FEA007E04D59E4239D90004F4D436E058
:103500005FEA806E02D5C1F808CB30E010F0280FDA
:103510002DD19E4201D90004E6D4C5EBC50004EBD1
:103520008000D1F8101BD0F80432C1F31201591AEF
:10353000C0F81412D0F808121944C0F8081295B94E
:10354000D4F8100278B9012120680AE080060AD573
:10355000C1F808CB07E035B9D4F8100218B900213A
:10356000184601F07FFCE9B22046FEF75BF8002028
:10357000BDE8F0810A31544F0A30544F2DE9F84F1D
:103580000E46C1EBC60100EB810481460568D4E913
:1035900014103C34884202D90120BDE8F88F081A83
:1035A000A168814200D20846C01C870805EB461876
:1035B0001BE000BFA0EB010AA068504500D2824684
:1035C0000AF10300870899F8100000901FFA8AF3A7
:1035D000F2B22846E16801F0FDFEE16801EB0A0065
:1035E000E060A16901EB0A00A061D8F8180980B277
:1035F000B84205D3D4E90501814201D20028D9D1CE
:10360000D4E90501884208D806F00F01012088405E
:10361000D5F834188143C5F834180020BDE7704749
:1036200070470178407841EA00207047FDF72CBFD1
:1036300030B593B030216846FCF75FFF14210CA829
:10364000FCF75BFF1E480024016841F080510160D7
:10365000006800F0805011901A48016821F4404140
:1036600041F4004101600068022500F440401190DF
:1036700001200090000401908001CDE9065019203E
:1036800008904FF4A870099004200A9007200B902E
:103690006846FEF719FD08B172B6FEE70F20CDE9C6
:1036A0000C054FF48050CDE90E4002210CA8109477
:1036B000FEF718FC002801D072B6FEE713B030BD4B
:1036C00040380240007000400248016841F4700137
:1036D0000160704788ED00E0F0B502681D4B1E4C9C
:1036E0009F031E4D1E4E984207D0B84205D0A042FF
:1036F00003D0A84201D0B04204D122F0700C4A6835
:1037000042EA0C02984210D0B8420ED0A0420CD02F
:10371000A8420AD0B04208D0124CA04205D0124CA8
:10372000A04202D0114CA04203D122F44074CA68D6
:1037300022434C6922F08002224302608A68C262FE
:103740000A688262984201D10969016301214161DD
:10375000F0BD0000000001400004004000080040EF
:10376000000C00400040014000440140004801407E
:1037700010B501F01F030121046A99408C430462D3
:10378000016A9A401143016210BD10B5846842EA93
:10379000032224F47F440A432243826010BD8268DE
:1037A00022F070020A4342F0070181607047000076
:1037B00030B5026A22F001020262026A436884693B
:1037C00024F073050C682C4322F002058A682A4312
:1037D0000A4DA8420BD122F00805CA6823F44073B1
:1037E0002A434D6922F004021D438B692B43436039
:1037F000846149684163026230BD000000000140FD
:1038000030B5026A22F010020262026A43688469DB
:103810000D6824F4E64444EA05248D6822F0200271
:1038200042EA05120B4DA8420ED1CD6822F080026B
:1038300042EA05124D6923F4406343EA85038D692A
:1038400022F0400243EA8503436084614968816352
:10385000026230BD0000014030B5026A22F480727D
:103860000262036A4268C46923F4007324F073059A
:103870000C682C438D6843EA05230C4DA8420ED1F9
:10388000CD6823F4006343EA05234D6922F44052D6
:1038900042EA05128D6923F4806342EA0512426010
:1038A000C4614968C163036230BD0000000001408B
:1038B00030B5026A22F480520262046A4268C36927
:1038C0000D6823F4E64343EA05238D6824F400548D
:1038D00044EA0534064DA84204D14D6922F48042E1
:1038E00042EA85124260C36149680164046230BDE6
:1038F0000000014010B5036A046A24F00104046268
:10390000846924F0F00444EA021423F00A020A4312
:103910008461026210BD10B5036A23F010030362D4
:103920008369046A23F4704343EA023224F0A0035B
:1039300043EA01118261016210BD10B5806B002164
:10394000C185C184FFF79FF810BD01680C3151E8B3
:10395000002F22F4907241E80023002BF5D101687A
:10396000143151E8002F22F0010241E80023002B1E
:10397000F5D1016B012909D101680C3151E8002F03
:1039800022F0100241E80023002BF5D1202180F81D
:103990003E1000210163704708B590F83E102229BF
:1039A00001D0022008BD82684FF480539A4201D1B1
:1039B000016921B1816A9A421BD04AB10AE00268CA
:1039C000816A5268C2F308020A80816A891C08E091
:1039D000026972B10268526802F07F020A70816A5D
:1039E000491C8162C18D491E0904090CC18503D09F
:1039F00019E002685268F1E70168CA6822F0200203
:103A0000CA600168CA6822F48072CA6001684A69A3
:103A100022F001024A61202180F83E10016B012949
:103A200003D0FFF7EBF9002008BD00210163016816
:103A30000C3151E8002F22F0100241E80023002B46
:103A4000F5D101680A68D20602D50A684968009172
:103A5000818DFFF717F8E6E770B504460068016945
:103A6000E26821F44051114301612169A068E269D3
:103A700008436169114308432168CA6849F20C632D
:103A80009A430243CA6020684169A26921F44071E7
:103A90001143416131492068884202D0304988424F
:103AA00002D1FEF7CFFA01E0FEF7BCFAE26900238B
:103AB000192164253226B2F5004F626828D0A0FB98
:103AC0000101930F9200FCF7F5FB0146B0FBF5F006
:103AD0006FF01802504301EB800006EB0010B0FBC2
:103AE000F5F000F0F002B1FBF5F002EB0012B1FBD3
:103AF000F5F06FF01803584301EB800006EB00105F
:103B0000B0FBF5F000F00F0021681044886070BD34
:103B1000A0FB010192185B41FCF7CCFB0146B0FB16
:103B2000F5F00201B1FBF5F06FF01803584301EB1B
:103B3000800006EBC000B0FBF5F000F0F80002EBEF
:103B40004002B1FBF5F0584301EB800006EBC000EA
:103B5000B0FBF5F000F00700D6E7000000100140D0
:103B60000014014081628285C28500210164222205
:103B700080F83E2080F83C100168CA6842F48072E8
:103B8000CA6001684A6942F001024A610068C1687E
:103B900041F02001C160002070472DE9F0419846B6
:103BA00017460E460446069D27E0681C25D02DB119
:103BB000FDF764FCA0EB0800A8421ED920680C3079
:103BC00050E8001F21F4D07140E80012002AF5D11E
:103BD0002068143050E8001F21F0010140E8001275
:103BE000002AF5D1202084F83D0084F83E00002012
:103BF00084F83C000320BDE8F0812068006836EAC4
:103C0000000004D00020B842CFD00020F3E701200C
:103C1000F9E700000148FEF737BF00000404002068
:103C20002DE9F0410C46D0F8C422D0F8BC12F9B10D
:103C300004EB840300EB83050026AB694BB1C4EBB6
:103C4000C40702EB8702526CB3FBF2F702FB173298
:103C500082B1C1F81462D0F8C00203692BB1D1F867
:103C60000802224601F5047198470020BDE8F08162
:103C70000320FBE700231A462146AE6100F089FCD1
:103C8000F3E770B5D0F8BC4205466CB100F06AFBB2
:103C9000C4F80C02D5F8C012D4F80402CA6804F5BE
:103CA00003719047002070BD032070BD70B50446BD
:103CB000812100F0B6FA002525870121204600F079
:103CC000B0FAA4F878518221204600F0AAFAA4F8AC
:103CD0004C50A4F84E50D4F8BC0248B1D4F8C002FD
:103CE00004F52F7440688047206800F040FE25608E
:103CF000002070BD10B5D0F8BC4284B1D0F8C0121D
:103D000059B194F80002FF2807D08B6894F801227B
:103D100021469847FF2084F80002002010BD0320B0
:103D200010BD00000A210180004870478C0000206F
:103D30004321018000487047DC00002043210180BE
:103D400000487047980000204321018000487047D8
:103D5000200100202DE9F04704464FF4077000F0E1
:103D600007FE05004FF0000735D0C4F8BC52207C98
:103D70004FF010084FF40079012680B3402302224F
:103D80008121204600F052FB268740230222012198
:103D9000204600F04BFBA4F87861A4F84E8008237D
:103DA00003228221204600F041FBA4F84C60D4F8A5
:103DB000C00200688047C5F81472C5F81872207CEC
:103DC000D5F80422A8B140230121204600F03AFB97
:103DD0000020BDE8F0870220C4F8BC72F9E7FFE7D5
:103DE0004B4602228121204600F020FB26874B46CD
:103DF000CCE74B46E8E710B5D0F8BC1251B1027CD5
:103E0000002AD1F8042207D04023012100F01AFB38
:103E1000002010BD032010BD4FF40073F5E719B169
:103E2000C0F8C0120020704703207047D0F8BC02D1
:103E300018B1C0F804120020704703207047D0F872
:103E4000BC0228B1C0F81022C0F808120020704748
:103E5000032070472DE9FC410646D0F8BC720020D3
:103E60000C468DF80000ADF80400054637B1207807
:103E700010F0600128D0202944D102E00320BDE8E1
:103E8000FC81E288C2B1000660780AD5D6F8C0127B
:103E90008B6839469847E288072A00D907223946B5
:103EA00028E087F80002A07987F80102E288394605
:103EB000304600F051F82AE0D6F8C01260780022AF
:103EC0008B682146984722E0607830B101281ED0E7
:103ED0000A2809D00B2815D110E096F89C02032877
:103EE00010D1022201A905E096F89C02032809D10D
:103EF00001226946304600F049F808E096F89C0235
:103F0000032804D02146304600F01BF8032528463C
:103F1000B5E710B5D0F8B8220AB152689047002032
:103F200010BD134610B50A46002100F08BFA0020A0
:103F300010BD134610B50A46002100F02AFB0020F0
:103F400010BD10B50446802100F008FB2046BDE8F6
:103F50001040002100F002BB10B50323C0F89432DA
:103F6000C0F858211346C0F85C210A46002100F031
:103F700069FA002010BD10B50521C0F89412002385
:103F80001A46194600F05EFA002010BD10B5022353
:103F9000C0F8943282611346C2610A46002100F0E3
:103FA000F8FA002010BD10B50421C0F894120023C7
:103FB0001A46194600F0EDFA002010BD10B50A4669
:103FC000024903A000F0E1F8004810BD18070020E6
:103FD00043444320436F6E666967000012200880E7
:103FE000004870473400002010B50A46024903A07B
:103FF00000F0CBF8004810BD1807002043444320D0
:10400000496E746572666163650000000420088073
:10401000004870473000002010B50A46024903A04E
:1040200000F0B3F8004810BD1807002053544D6944
:1040300063726F656C656374726F6E6963730000A1
:1040400010B50A46024903A000F09FF8004810BDD1
:104050001807002053544D3332205669727475612D
:104060006C20436F6D506F727400000010B51A2001
:1040700008800A480168001D0468001D00680818CF
:1040800009D008220649FEF739FF054904221031FC
:104090002046FEF733FF0248801E10BD107AFF1F36
:1040A0004A000020F8B504460020ADF8000048881A
:1040B0000D46010A08295FD2DFE801F05E04091706
:1040C0005E5E3C45D4F8B412207C0A6819E0207C7E
:1040D00002260028D4F8B80205D0C16A684688478D
:1040E0000146467039E0816AF8E7C0B2062843D23B
:1040F000DFE800F0030A1014181CD4F8B402426878
:1041000005E0694690471CE0D4F8B402826892B397
:10411000207CF6E7D4F8B402C268F8E7D4F8B40219
:104120000269F4E7D4F8B4024269F0E7D4F8B402C3
:104130008269ECE7207CF0B9D4F8B802416B68469C
:104140008847014609E0207CA8B9D4F8B802016B81
:1041500068468847014607204870EA888AB1BDF85A
:10416000000040B1824200D90246ADF8002020464E
:10417000FFF70CFFF8BDFFE729462046FFF7E1FEF9
:10418000F8E72046FFF70FFFF4E770B5002300289B
:104190001ED00025044602E06D1CEDB2641C26789A
:1041A000002EF9D1022404EB450414801278CA547D
:1041B0005B1C0322CA5400245B1C06E0CA545B1C2F
:1041C000DAB28C54521CD3B2401C0278002AF5D1CA
:1041D00070BD01004FF0000004D0012901D0022978
:1041E00001D0032070470120704778B10023C0F848
:1041F000B832C0F8C032C0F8CC3209B1C0F8B4123D
:10420000012180F89C12027000F0B0B803207047C2
:1042100010B5D0F8C402FDF739FABDE81040FFF739
:10422000D8BF10B5D0F8C402FDF70AFABDE81040B7
:10423000FFF7CFBF70B51646044621B194F89C0233
:10424000032841D048E0D4F8941204F1140000256A
:10425000022932D1D0E902318B4206D95A1A826042
:1042600031462046FFF765FE0FE0994214D14068C1
:10427000884211D3D4F8981288420DD200221146F8
:104280002046FFF756FEC4F8985200231A461946F6
:10429000204600F0D7F810E094F89C02032805D1DE
:1042A000D4F8B802C16809B1204688478021204669
:1042B00000F054F92046FFF75EFE94F8A0020128B2
:1042C0000AD184F8A05207E0D4F8B80242691AB1C2
:1042D00020469047002800D1002070BD10B513463D
:1042E000044621B194F89C02032823D02AE0D4F894
:1042F000941204F5AA70032924D1D0E90212914244
:104300000AD98A1A8260C068824200D302461946DE
:104310002046FFF706FE15E094F89C02032805D11D
:10432000D4F8B802016909B1204688472046FFF752
:104330003AFE07E0D4F8B80282691AB120469047E5
:10434000002800D1002010BD0020704710B50121C9
:1043500080F89C12D0F8B82212B1526801799047C7
:10436000002010BDD0F8C402FDF7BEB910B5017829
:1043700039BB15490222C1F80404C0F8C4124FF039
:10438000A0400860042048600020C1E90320C1E982
:10439000062008624862C86208630846FDF77EFC92
:1043A00008B1FCF7A9FB80210748FDF708F9402276
:1043B00000210548FDF707F9802201210248FDF799
:1043C00002F9002010BD0000081300200A0601F0C9
:1043D0007F01D0F8C402C1EBC10100EB810002D51E
:1043E00090F83E00704790F8FE01704710B5D0F885
:1043F000B82222B190F89C32032B02D004E00320B3
:1044000010BD126A02B19047002010BD10B5D0F85F
:10441000B82222B190F89C32032B02D004E0032092
:1044200010BD526A02B19047002010BD10B51C4665
:104430001346D0F8C4022246FDF75FF9BDE81040EC
:10444000FFF7C7BE10B5D0F8C402FDF786F9BDE886
:104450001040FFF7BEBE70B50125044680F89C529F
:104460000020C4F894026060C4F8A402D4F8B80232
:10447000E0B1D4F8BC1221B1426812B1002120464B
:1044800090470022402311462046FFF7CFFF4026E9
:10449000A4F864513346002280212046C4F86061AC
:1044A000FFF7C4FFA5840020266270BD032070BD05
:1044B00090F89C12042903D190F89D1280F89C1268
:1044C0000020704710B5D0F8B81221B190F89C22A6
:1044D000032A02D004E0032010BDC96901B1884756
:1044E000002010BD01740020704710B5D0F8C40240
:1044F000FDF7A3FCBDE81040FFF76BBE70B50446A6
:1045000000F2AA20054600F04DF80120C4F89402FC
:10451000B4F8B002C4F8980294F8AA0210F01F018F
:104520000AD001290ED0022912D000F080012046C5
:10453000BDE8704000F012B829462046BDE8704042
:1045400000F0C2B829462046BDE8704000F0E6B948
:1045500029462046BDE8704000F040B910B5D0F8BB
:10456000C402FDF71EF9BDE81040FFF732BE10B5DA
:10457000D0F8C402FDF77CFCBDE81040FFF729BE6F
:1045800090F89C1280F89D12042180F89C12002063
:10459000704710B5D0F8C402FDF73DF9BDE81040F2
:1045A000FFF717BE70B5054611F8010B28700878A3
:1045B00068704C1C2046FFF734F86880A41C204625
:1045C000FFF72FF8A880A01CFFF72BF8E88070BD3C
:1045D00038B504460020ADF8000049B1C4F8B8125F
:1045E000C96A19B168468847C4F8CC02002038BDB2
:1045F000032038BD02460320D2F8B832002B02D087
:104600001B681046184770472DE9F0410F462C4EA5
:104610008978002504463170012906D9394620469B
:10462000FFF78FFC0320BDE8F08194F89C0202287C
:104630000CD003281DD039462046FFF782FC317884
:104640002046FFF766FC03252846ECE799B3204691
:104650006160FFF7CFFF050004D039462046FFF721
:1046600070FCF1E72046FFF79EFC032084F89C02D3
:10467000EAE74FF00208C1B1606888421BD0C1B2BE
:104680002046FFF746FC317820466160FFF7B2FF15
:10469000050010D039462046FFF753FC217920460B
:1046A000FFF737FC84F89C82CEE784F89C82204692
:1046B0006160FFF72EFC2046FFF775FCC4E70000A1
:1046C00088000020FFF753BF2DE9F0410A7800254C
:1046D00012F0600208D0202A01D0402A71D1D0F80F
:1046E000B8229268904731E04B78002201260A2BCD
:1046F00067D2DFE803F0415E6658660805662D293B
:10470000FFF7D0FC5FE004468888D8B9C888C8B9EC
:104710004888802816D200F07F0794F89C0203286E
:1047200010D084F89E7239462046FFF7DEFE204600
:10473000FFF739FC1FB1022084F89C0243E084F8A3
:104740009C6240E020463CE0FFF75EFF05463AE011
:10475000CB88012B35D190F89C32012B04D0022B51
:1047600002D0032B2DD104E08260012200F1080168
:1047700016E00122011D13E090F89C22012A03D0CB
:10478000022A01D0032A1CD1CA88022A19D1C66084
:10479000D0F8A41209B10321C160022200F10C017A
:1047A000FFF7F4FB0FE0498801290CD1C0F8A4629F
:1047B00011E090F89C32012B08D0022B06D0032B7D
:1047C00004D0FFF7BEFB2846BDE8F08149880129E7
:1047D000F9D1C0F8A422FFF7E6FBF4E72DE9F04198
:1047E0000D46044628780026097910F060000BD0A9
:1047F000202801D040286DD1D4F8B802294682681B
:1048000020469047064686E06878A8B3012822D063
:1048100003287CD194F89C02022802D0032876D188
:104820000BE0002973D0802971D02046FFF796FE57
:1048300080212046FFF792FE6DE0688838B931B1DB
:10484000802904D0E88810B92046FFF787FE20466B
:10485000FFF7A9FB5FE094F89C020228E1D003284F
:1048600055D16888A8BB480602D02046FFF7D0FC87
:104870002046FFF798FBBFE7FFE794F89C0200276C
:10488000022802D0032842D111E009B180293ED18B
:10489000080601F07F0000EB800004EB800101D5E9
:1048A000143101E001F5AA7102220F602BE0080625
:1048B00001F00F0000EB800004EB80000BD5808C32
:1048C00040B101F07F0000EB800004EB800514355F
:1048D0000CE020E01BE0B0F86401C0B101F07F0003
:1048E00000EB800004EB800505F5AA7541B1802935
:1048F00006D02046FFF76AFD10B10120286000E0D5
:104900002F60022229462046FFF740FB03E029469C
:104910002046FFF716FB3046BDE8F08170B506462D
:10492000087800240D4610F0600003D0202801D044
:10493000402817D196F89C02012803D0022801D004
:1049400003280FD1287901280CD8D6F8B80282683C
:10495000304690470446E888204306D13046FFF7AA
:1049600022FB02E03046FFF7ECFA204670BD7047AC
:1049700000487047E810002070B50A78012302F063
:104980000F054E78AB401B4CD0F81C58012E17D0A9
:1049900045EA0343C0F81C3800EB4210D0F8002B66
:1049A00012040BD4D0F8002B0B89C978C3F30A0387
:1049B0001A4344EA81410A43C0F8002B002070BD2D
:1049C0009BB21D43C0F81C5800EB4210D0F80039D0
:1049D0001B04F3D4D0F800390D89C978C5F30A0552
:1049E00089042B4341EA82510B432343C0F8003929
:1049F000E4E7000000800010D0F800196FF30A010E
:104A0000C0F80019D0F8041841F48071C0F80418F7
:104A10000020704770B5044606990A9E049D0D98C3
:104A2000012916D0E06840F04000E060204600F028
:104A30002BF8A16B1EB321F48031A163012D07D1A6
:104A4000A16841F00601A160A16841F02001A160C8
:104A500070BDA16B21F48031A163E168094A114066
:104A6000E160E16821F44011E160012803D1E068D0
:104A700040F48010E060204600F006F8DEE741F4E4
:104A80008031DAE7BFFFBDFF08B500220D49009273
:104A9000009B5B1C00938B420CD80369002BF7DA58
:104AA0000092026942F001020261009A521C0092D7
:104AB0008A4201D9032008BD0269D207F5D100203E
:104AC00008BD0000400D030030B54C780A78012382
:104AD00000EB4212012C2CD0D2F8004B002C0BDA48
:104AE000D2F8004B44F00064C2F8004BD2F8004BFF
:104AF00044F08044C2F8004BD0F83C580C7804F0E5
:104B00000F0403FA04F425EA0444C0F83C48D0F842
:104B10001C48097801F00F018B4024EA0341C0F8DA
:104B20001C18D2F8000B19490840C2F8000B0020ED
:104B300030BDD2F80049002C0BDAD2F8004944F01D
:104B40000064C2F80049D2F8004944F08044C2F839
:104B50000049D0F83C480D7805F00F0503FA05F53B
:104B6000ADB2AC43C0F83C48D0F81C48097801F01D
:104B70000F018B4099B28C43C0F81C48D2F8000951
:104B800003490840C2F80009D1E700000078F3EFBC
:104B9000007833ECD0F8001E21F00301C0F8001EAD
:104BA000D0F8041821F00201C0F804180020704762
:104BB000D0F8001E21F00301C0F8001ED0F8041840
:104BC00041F00201C0F80418002070472DE9F04FB1
:104BD00000250E460446DDF82CC0DDF824B0109FF9
:104BE0002846294604EB8002C2F80411401C0F2815
:104BF000F8D32046C7B1806B20F40012A263A06BEB
:104C000040F40022A26308468846C4F8000ED4F897
:104C100000182046C4F80018BCF1010F16D0D0F8D7
:104C2000001841F0030116E0D0F8040840F0020239
:104C3000C4F80428A06B40F40012A263A06B20F417
:104C40000022A263A06B20F48022DBE7D0F80018DA
:104C50000BB141F00101C0F80018102100F094FAE6
:104C600000B10125204600F07BFA00B10125404645
:104C7000C4F81088C4F81488C4F81C8800214FF0C8
:104C800000694FF0904A4FF67F3314E004EB411275
:104C9000D2F800C9BCF1000F06DA11B1C2F800A9C0
:104CA00004E0C4F8009901E0C2F80009C2F8100954
:104CB000C2F80839491C8E42E8D8002115E000BF2F
:104CC00004EB4112D2F800CBBCF1000F06DA11B1AF
:104CD000C2F800AB04E0C4F8009B01E0C2F8000B8E
:104CE000C2F8100BC2F8083B491C8E42E8D8D4F831
:104CF000101821F48072C4F81028A0616FF0804071
:104D00006061BBF1000F03D1A06940F01000A06109
:104D1000A06909490843A0610C9818B1A06940F046
:104D20000800A061012F03D1A06904490843A061D4
:104D30002846BDE8F08F000000383C8004000040A9
:104D4000816821F0010181600020704770B50D7805
:104D50004E78434CEBB200EB4313012E1FD0D3F837
:104D6000100B6FF31200C3F8100BD3F8100B204098
:104D7000C3F8100B486908B188684861D3F8100B74
:104D800040F40020C3F8100BD3F8100B8C68C4F368
:104D900012042043C3F8100B012A55D058E04E6985
:104DA000002ED3F8106932D06FF31206C3F81069E1
:104DB000D3F810692640C3F810694E698C68A64282
:104DC00000D94C61D3F8104944F40024C3F81049C9
:104DD000D3F810494E69C6F312063443C3F810499C
:104DE000012A22D000EB4512D2F8003943F00443E7
:104DF000C2F800394A6932B3D0F83428097801F092
:104E00000F03012199400A43C0F8342826E02640C8
:104E1000C3F81069D3F8104944F40024C3F81049CA
:104E2000D3F810496FF31204D8E7096919B100EB00
:104E30004512C2F8141900EB4510D0F8001941F0E2
:104E40000441C0F8001909E0C86808B1C3F8140BA0
:104E5000D3F8000B40F00440C3F8000B002070BDF5
:104E6000FFFF07E010B5036C134CA34203D9D0F841
:104E7000003B002B1EDB0023C0F8103BD0F8103B9A
:104E800043F40023C0F8103BD0F8103B43F0180364
:104E9000C0F8103BD0F8103B43F0C043C0F8103BC3
:104EA000012907D1C0F8142BD0F8001B41F0802154
:104EB000C0F8001B002010BD0A30544F4A780B7810
:104EC000012A00EB43100BD0D0F8002B22F4001283
:104ED000C0F8002BC978032914D0022912D017E09A
:104EE000D0F8002922F40012C0F80029C97803295B
:104EF00001D002290CD1D0F8001941F08051C0F83E
:104F0000001905E0D0F8001B41F08051C0F8001BEB
:104F1000002070470A784B78D1B200EB4110012B8A
:104F200012D0D0F8001B002906DB2AB1D0F8001BF4
:104F300021F08041C0F8001BD0F8001B41F40011A3
:104F4000C0F8001B00207047D0F80019002906DBCC
:104F50002AB1D0F8001921F08041C0F80019D0F82A
:104F6000001941F40011C0F80019EBE7F8B50C780E
:104F70004F78774DE3B26FF0604600EB4313012F9B
:104F800026D0D3F8104B6FF31204C3F8104BD3F8AC
:104F9000104B2C40C3F8104B4C69002C74D08D681A
:104FA0002C44641EB4FBF5F4D3F8105BA4B206EAFB
:104FB000C4463543C3F8105BD3F8105B8E68664374
:104FC000C6F312042543C3F8105B012A71D0A6E092
:104FD0004F691FB3D3F810796FF31207C3F8107934
:104FE000D3F810792F40C3F810794F698D682F449A
:104FF0007F1EB7FBF5F506EAC545D3F810693543C2
:10500000C3F81059D3F810594E69C6F31206354348
:10501000C3F81059CD78012D10D01BE0D3F81069DA
:105020002E40C3F81069D3F8105945F40025C3F891
:105030001059D3F810596FF3120509E0D3F810593D
:1050400025F0C045C3F81059D3F8105945F0005564
:10505000C3F81059012A18D000EB4413D3F80049C3
:1050600044F00444C3F80049CC78012C2FD04A699D
:1050700062B3D0F83428097801F00F030121994078
:105080000A43C0F8342860E036E00A691AB100EB40
:105090004413C3F81429C97801290FD1D0F808188E
:1050A000C90500EB4411D1F8002903D442F00052A5
:1050B00002E030E042F08052C1F8002900EB4410D9
:1050C000D0F8001941F00441C0F800193DE0D0F8D3
:1050D0000848E405D3F8004902D444F0005401E044
:1050E00044F08054C3F8004900928A8A93B20A7847
:1050F000C96800F06FF928E0D3F8104B8D68C5F34C
:1051000012052C43C3F8104BD3F8104B44F4002481
:10511000C3F8104B59E7CA680AB1C3F8142BC97811
:1051200001290CD1D0F80808C005D3F8000B02D42F
:1051300040F0005001E040F08050C3F8000BD3F87D
:10514000000B40F00440C3F8000B0020F8BD000045
:10515000FFFF07E0816841F0010181600020704796
:1051600008B500210091102101610649009A521CE6
:1051700000928A4201D9032008BD0269D206F5D403
:10518000002008BD400D030008B500220092202237
:1051900042EA811101610649009A521C00928A423A
:1051A00001D9032008BD02699206F5D4002008BD8C
:1051B000400D0300D0F8080810F0060004D00228C3
:1051C00003D0062801D00F207047022070474069A5
:1051D00000F001007047D0F81818D0F81C080840FB
:1051E00080B27047D0F81818D0F81C080840000C9E
:1051F000704710B5D0F81038D0F8342801F00F04FB
:1052000000EB4110E24002F00102D0F8080943EA45
:10521000C212104010BD00EB4111D1F8081BD0F8AC
:10522000140808407047416980690840704730B5EC
:1052300003460846940802F00301002203F5805358
:1052400003E01D6840F8045B521CA242F9D3002918
:105250000BD01C680022D50024FA05F3491E521C0D
:10526000090400F8013B090CF5D130BD70B50446C6
:10527000C068002520F0C040E060012901D079B16C
:1052800020E0E06840F00050E0600120FBF7EEFF16
:1052900060696D1C10F0010F10D1322DF5D30DE0B7
:1052A000E06840F08040E0600120FBF7DFFF6069CC
:1052B0006D1C10F0010F01D0322DF5D3322D01D02D
:1052C000002070BD012070BDD0F8002822F4FE62DD
:1052D000C0F80028D0F800284FF4FE6303EA01115B
:1052E0000A43C0F80028002070470000022A3ED17F
:1052F000264A274B0A449A4201D20F2138E0254A18
:10530000254B0A449A4201D20E2131E0234A244B14
:105310000A449A4201D20D212AE0224A224B0A4431
:105320009A4201D20C2123E0204A214B0A449A429E
:1053300001D20B211CE01F4A1F4B0A449A4201D2A2
:105340000A2115E01D4A1E4B0A449A420FD31D4AFA
:105350001D4B0A449A4201D2082109E01B4A11441C
:105360001B4A914201D2072102E0062100E00921F7
:10537000C26822F47052C260C2684FF4705303EAEC
:1053800081210A43C260002070470000405327FF7C
:1053900000350C00401E1BFF40420F0000DC0BFFDD
:1053A000804F1200808CF9FE20D6130060B6E5FE17
:1053B00060E3160000D3CEFE40771B00C05BB3FE57
:1053C000C091210000CA91FE20753800E05459FEBA
:1053D000E09C410010B5029C74B9DB1C9C0800EBFA
:1053E0000230002300F5805004E000BF51F8042B88
:1053F00002605B1CA342F9D3002010BDFEE7090741
:10540000090E002804DB00F1E02080F8001470474A
:1054100000F00F0000F1E02080F8141D704700003C
:1054200010B52DED020B2DED088B84B09DED0C0B0E
:1054300051EC100B02F092F841EC180B9DED0C0BA7
:1054400053EC182B51EC100B02F0E2F841EC190B65
:105450000D989FED290B10F0004F53EC102B51ECE1
:10546000190B9FED21AB9FED22BB0ED001F006FF83
:105470000ED953EC1B2B51EC190B02F039F81CD24E
:1054800014E000BF41EC180B17E001F0F7FE06D264
:1054900053EC1A2B51EC180B02F0BAF8F2E753EC6C
:1054A0001B2B51EC190B02F023F806D853EC1A2BE6
:1054B00051EC180B01F0ECFDE4E78DED028B9DED56
:1054C0000C0B18EE901A10EE900A8DED000B61F3A4
:1054D0001E0003909DED020B04B0BDEC088B02B0E2
:1054E00010BD000000000000000000000000F03FC0
:1054F000000000000000E03F000000000000E0BFEE
:1055000010B50189491C8AB2028101680B8A9A424E
:1055100005D3002101814181C181818110BD0968CC
:10552000438931F82320C2F3072102F0030401224A
:10553000A24013FA82F24281828911F0300F0DD01D
:1055400000231A4401F00F018281082908D009299B
:1055500006D00021C2891144C18110BD0123F0E7AA
:105560000121F7E710B50B00416801EB020444602C
:1055700002D01846FAF728FF012010BD10B50346E7
:10558000406884185C60FAF71FFF012010BD00001E
:1055900030B4937D03F00F030C2B41D2DFE803F00E
:1055A000061111111820282E3434403A29B1FF2950
:1055B00003D0C168B9BB1FA137E0D16930BC00F08E
:1055C00094BE09B1FF29F4D130BC114600F000BEF1
:1055D000052901D0FF29ECD1D16930BC00F092BE81
:1055E000012901D0FF29E4D1D16930BC00F09FBE70
:1055F0000229DED130BC114600F0E4BC0229D8D12A
:1056000030BC114600F052BD0229D2D130BC114647
:1056100000F08EBD0229CCD130BC114600F006BD91
:10562000C16801B900E000E006A1C16030BC002003
:105630007047000077726F6E67207769726520741B
:1056400079706500696E76616C6964206669656C65
:10565000642074797065000070B5054610688CB0E0
:105660001446C068E8B1022921D00A2000906B4698
:1056700009AA284601F0BAFC002810D009A901A8FF
:10568000009A01F04FFB01AD95E80F0005AD85E8EC
:105690000F00206822460021C36805A898470CB077
:1056A00070BD0CB02846BDE8704001F037BC6946BB
:1056B000284601F041FB0028F1D02068029E2246D6
:1056C000C36800216846984758B1029808B1B042B3
:1056D000F3D36946284600F063FC0028DFD00120A0
:1056E000DDE7E86800B902A0E8600020D7E7000025
:1056F00063616C6C6261636B206661696C656400F8
:105700002DE9F0438BB01C4691468846054601279B
:1057100086681EE02068D0F800C0BCF1000F05D0FC
:105720004B46424621462846E04710E0214668465F
:1057300001F021FAA8B1BDF81010414508D1019837
:1057400030B127736A464946284600F01BF860B11D
:10575000A46814B1A868B042DCD001200BB0BDE849
:10576000F083E86800B902A0E8600020F6E70000D6
:10577000696E76616C696420657874656E73696FB3
:105780006E000000937D13F0C00306D0402B09D0BB
:10579000C168802B03D041B906E000F01DB821B9E3
:1057A00003A102E0FFF758BF06A1C16000207047C7
:1057B0006E6F206D616C6C6F6320737570706F72AB
:1057C00074000000696E76616C6964206669656CBE
:1057D0006420747970650000F0B50546907D0E4632
:1057E0008BB0144610F030010DD0102907D02029BD
:1057F00010D0302958D0E86800287FD17DE0206A99
:1058000008B1012101700BB031462846BDE8F040D7
:10581000FFF7BEBE022E38D100F00F00052834D8A5
:10582000266A618AA0693288012701FB0200E061D3
:105830006946284601F080FA002822D00CE0224672
:10584000FF216846FFF7A4FE80B13088401C3080FD
:10585000618AE0690844E061029858B13088A18A01
:105860008842ECD3E868002848D10CE00298002771
:105870000028F7D16946284600F092FB002800D0A6
:1058800038460BB0F0BD1FA038E0216A628AA069DB
:105890000B8802FB0300E0610888421C0A80A18A91
:1058A0008842DFD22246AEE700F00F00082801D080
:1058B00009281AD1206A218A0088884215D0618A75
:1058C000E069FAF7F8FD606A816821B9C16811B929
:1058D0004068006848B16846E269616A01F03BF9D6
:1058E00018B1684601F054FA18B1216A208A08807C
:1058F000D8E7E86810B907A000E00CA0E860002035
:10590000BFE700006172726179206F766572666C24
:105910006F7700006661696C656420746F20736541
:10592000742064656661756C74730000696E7661DD
:105930006C6964206669656C642074797065000028
:105940002DE9F0430646086A85B00C460588002D0F
:105950006BD0A07D4FF00208B8EB901F07D0A18A52
:10596000A94204D2306900B951A030618FE000F043
:105970000F0005285FD8228A0221304601F088F8FE
:10598000002873D0A07D00F00F00042809D005285E
:1059900009D014216846FAF7B0FD0027D4F81C801E
:1059A0000EE0AF0011E0EF000FE02146684600F086
:1059B0002BFFA8B1618AE0697F1C0844BFB2E06197
:1059C000AF42F2D3C4F81C80039F00233A4630460E
:1059D00001F08CF8002849D0306848B1002722E057
:1059E00030690028C1D104980028BED136A0BCE798
:1059F00005B03A463046BDE8F043002101F0CABA8E
:105A0000A07D00F00F00042810D005280ED02146FC
:105A1000304600F0F9FE002828D0618AE0697F1C3A
:105A20000844BFB2E061AF42EAD31EE021463046EF
:105A300000F090FEEFE7002715E0A07DB8EB901F87
:105A400005D100F00F00072813D0062811D02146F9
:105A5000304600F03DF8002808D0618AE0697F1CDC
:105A60000844BFB2E061AF42E7D3012005B0BDE812
:105A7000F083E069214681460068E06100283046F5
:105A800007D000F025F8C4F81C900028E5D10020CC
:105A9000ECE701F003F840B100221346304601F074
:105AA00025F810B1C4F81C90D7E7C4F81C90EEE7B5
:105AB0006172726179206D61782073697A65206501
:105AC0007863656564656400286E6F6E6529000003
:105AD00070B50446C8690D4690B1204600F0DEFF5F
