:020000040800F2
:10000000581D00208D0200087F430008D53D0008E0
:100010007D43000885160008A1620008000000006A
:10002000000000000000000000000000FD44000887
:100030008D17000800000000FB4400080945000877
:10004000A7020008A7020008A7020008A7020008EC
:10005000A7020008A7020008A7020008A7020008DC
:10006000A7020008A7020008A7020008A7020008CC
:10007000A7020008A7020008A7020008A7020008BC
:10008000A7020008A7020008A7020008000000005D
:10009000000000000000000000000000A7020008AF
:1000A000A7020008A7020008A7020008A70200088C
:1000B000A7020008A7020008A7020008A70200087C
:1000C000A7020008A7020008A7020008A70200086C
:1000D000A7020008B94A0008A702000800000000B3
:1000E000A7020008A7020008A702000800000000FD
:1000F000000000000000000000000000A70200084F
:1001000000000000A7020008A7020008A7020008DC
:1001100000000000000000000000000000000000DF
:10012000DD160008A7020008A7020008A7020008C1
:10013000A70200080000000000000000000000000E
:1001400000000000000000000000000081430008E3
:10015000A7020008A7020008A7020008A7020008DB
:10016000A7020008A702000800000000000000002D
:10017000000000000000000000000000000000007F
:1001800000000000A70200080000000000000000BE
:10019000A702000800F002F800F069F80AA090E851
:1001A000000C82448344AAF10107DA4501D100F032
:1001B0005EF8AFF2090EBAE80F0013F0010F18BF96
:1001C000FB1A43F001031847346F0000546F00001E
:1001D0000A444FF0000C10F8013B13F0070408BF6D
:1001E00010F8014B1D1108BF10F8015B641E05D00B
:1001F00010F8016B641E01F8016BF9D113F0080FC0
:100200001EBF10F8014BAD1C0C1B09D16D1E58BF51
:1002100001F801CBFAD505E014F8016B01F8016B88
:100220006D1EF9D59142D6D37047000000230024FB
:1002300000250026103A28BF78C1FBD8520728BFF6
:1002400030C148BF0B607047662906F0F286002077
:1002500070471FB506F0E3FE00F0FCFB0400002031
:10026000002106F021F9E0601FBD10B510BD00F0BF
:10027000F1FC1146FFF7EDFF06F0B6F800F00FFDB8
:1002800003B4FFF7F2FF03BC00F052FD09488047BA
:1002900009480047FEE7FEE7FEE7FEE7FEE7FEE768
:1002A000FEE7FEE7FEE7FEE704480549054A064B80
:1002B00070470000A5450008950100085817002068
:1002C000581D0020581900205819002053EA020C2C
:1002D00000F069802DE9F04B4FF00006002B1FBFA6
:1002E000B3FA83F503FA05F424FA05F65E4012BF6B
:1002F0001643B2FA82F502FA05F4C5F120051EBFD5
:1003000022FA05FC44EA0C04203556EA044C4FEA74
:10031000144418BF641C4FF000084FF000099042CD
:1003200071EB030C39D3002919BFB1FA81F701FA37
:1003300007F6B0FA80F700FA07F6C7F120071EBFEC
:1003400020FA07FC46EA0C062037B6FBF4FCA7EBC4
:100350000507103F07F01F0BCBF120060CFA0BFB33
:100360002CFA06F644BFB3460026202FA4BF5E46F3
:100370004FF0000B5BEA060C08BF4FF0010B19EBC6
:100380000B09ABFB027C48EB0608C01B06FB02CC4A
:100390000BFB03CC71EB0C01C1E70B460246414657
:1003A0004846BDE8F08B13B54FF000004FF0000158
:1003B000AFF30080BDE81C40704700000FB41CB5CF
:1003C000074B06AA7B4469460090059800F029FB7C
:1003D0000020694600F038FB1CBC5DF814FB0000EF
:1003E0008106000070B5044685690068C10601D524
:1003F000302600E02026C00707D070BDD4E90121D7
:1004000030469047206A401C20626D1EF6D570BDB4
:1004100070B5044685690078C00707D170BDD4E97E
:10042000012120209047206A401C20626D1EF6D5D5
:1004300070BD2DE9F0474FF0000A89460446C0F828
:1004400020A02046E1688847002876D0252806D0DD
:10045000D4E901219047206A401C2062F1E7E1685D
:10046000204600258847C4F81CA006460027C4F88B
:1004700018A02A2E09D0304605F0AEFF38B304EBA1
:100480008708303EC8F8186019E059F8041B204668
:1004900004EB87029161E1688847012F064618D175
:1004A000E069002820DA25F020051DE0D8F81800C2
:1004B00000EB800006EB40003038C8F818002046FA
:1004C000E1688847064605F087FF0028EED1012F36
:1004D0000AD02E2E08D12046E16888477F1C0646A8
:1004E000022F45F02005C4DBA069002803DA404252
:1004F00045F00105A061E80701D025F01005B6B16F
:10050000A6F14100192802D8203645F400654A4674
:100510003146204625604D46FFF796FE58B101282A
:1005200006D0ED1D25F0070000F1080989E704E079
:1005300005F1040985E730468AE7206ABDE8F087BF
:1005400010B5203AC0F00B80B1E81850203AA0E86E
:100550001850B1E81850A0E81850BFF4F5AF5FEAA2
:10056000027C24BFB1E81850A0E8185044BF18C955
:1005700018C0BDE810405FEA827C24BF51F8043BFC
:1005800040F8043B08BF7047D20728BF31F8023B50
:1005900048BF11F8012B28BF20F8023B48BF00F8E4
:1005A000012B70474FF0000200B513469446964663
:1005B000203922BFA0E80C50A0E80C50B1F1200176
:1005C000BFF4F7AF090728BFA0E80C5048BF0CC024
:1005D0005DF804EB890028BF40F8042B08BF704782
:1005E00048BF20F8022B11F0804F18BF00F8012BF4
:1005F000704770477047704770472DE9FF4F0C46B2
:100600001E464FF0FF378BB0D2E90001DDF8608065
:100610000A908A46C1F30A5505B93D4600210846AD
:100620004FF00000BAF1000F00F4400005DA00EBD3
:1006300080004FF4400101EA50004FEA9059B9F1AF
:10064000010F00DDB9460A9850EA4A000ED044F680
:100650001050A5F2FF3545432F14B8F1000F1ED0FE
:100660007542291E1EDDC9F100021CE0B8F1010F20
:100670004FF0000001D0302103E0F24305E02154A7
:10068000401CB042FBDB30460022002121540B9974
:10069000C1F80880C1E900200FB0BDE8F08FBD1B94
:1006A0006D1CDEE74A4600DA694206A800F05CFAF3
:1006B00006AB93E8070003AB83E8070050460A99AE
:1006C00000F03DFB8DE80700A0F500501F380090BA
:1006D0000398002D0ADD42F21F014A460844002318
:1006E00003A90390684600F0A6FD09E0A0F50050BC
:1006F0004A461F38002303A90390684600F0B0FD66
:100700008DE807000004000C03D04FF0FF304108D3
:1007100000E01046B8F1000F03D000220092154609
:100720001EE0751E05D400F099F9303262556D1E39
:10073000F9D5B3460122084302D000227F1C04E011
:100740002078302801D100227F1E002A099784D00A
:100750001DE0112D07DA00F081F9303262556D1C71
:1007600050EA0102F5D1084302D00098C8B10EE06A
:100770000021681E05E0235C625C63542254401E25
:10078000491C8142F7DBAB46A81B401E09900020A4
:1007900004F80B000B98099AC0F80880C0E9002BF8
:1007A0007AE711264FF0000857E72DE9F04F884609
:1007B0000446D21D22F0070191B0D1E90001CDE934
:1007C0000A0105F06EFD02460B98C00F01D02D20E6
:1007D00007E02068810701D52B2002E0202101EAF3
:1007E000C000032A099001D0072A05DB03464146D1
:1007F000204600F079F90BE12078800601D5E06908
:1008000000E00620B8F1650F814606D0B8F1660F0A
:1008100018D0B8F1670F70D131E00020B9F1110F95
:10082000009001DB112301E009F101030AAA01A9EB
:100830000CA8FFF7E2FEDDE90C70002609F10105C6
:10084000834647E001204B4600904FF000470AAA3C
:1008500001A90CA8FFF7D1FEDDE90DB00C995D46AA
:10086000002610B909F101000D18B9EB050003D4F9
:10087000C0F1FF3609F10105A5EB09002BE0B9F144
:10088000010F01DA4FF001090020B9F1110F0090BA
:10089000484601DD112300E003460AAA01A90CA87D
:1008A000FFF7ABFEDDE90C704D460026834620784D
:1008B00000070AD4AB4500DA5D4601A8012D04DD2E
:1008C000411911F8011C302907D04F4502DA17F100
:1008D000040F04DA012082460FE06D1EEEE7002FC0
:1008E00002DCED1B3E4403E0781CA84200DD7D1CC9
:1008F000B81B00F1010A4FF000472078000703D42D
:10090000AA4501DB4FF0FF3A0021B7F1004F0DF18E
:1009100043088DF8431024D002202B23002F01DA46
:100920007F422D230A21021EA0F1010000DC5FB1ED
:1009300097FBF1FC97FBF1F201FB1C7C17460CF1D5
:10094000300C08F801CDEEE7A8F101000370218812
:10095000090501D5452100E06521A0F1010800F855
:10096000011C09980FA9A1EB0807FF1D00B1012088
:10097000411901EBEA70A1693844081A401EA061D0
:100980002078C00602D42046FFF72CFD099828B134
:10099000D4E901219047206A401C20622078C006DB
:1009A00022D52046FFF71EFD1EE0002E04DBB345D6
:1009B00002DD01A8805D00E03020D4E901219047EC
:1009C000206A401C2062761CAAF101005FEA000A3E
:1009D0000AD100F03FF8C0680168405CD4E9012109
:1009E0009047206A401C2062281EA5F10105DCDC2E
:1009F00007E0D4E9012118F8010B9047206A401C58
:100A00002062381EA7F10107F3DC2046FFF700FD46
:100A1000032011B041E6000001694A1C0261087818
:100A2000704700B58FB0CDE901310021059105492E
:100A30007944CDE9031011466846FFF7FAFC0FB080
:100A400000BD0000E5FFFFFF0A6802F8010B0A6025
:100A500070470000004870471417002030B5B0F10F
:100A60000A024FEA900E71F100034EEA817EB0EB6C
:100A70000E0061EB91014FEA101E4EEA017E10EB71
:100A80000E0041EB11114FEA102E4EEA016E10EBF1
:100A90000E0041EB11214FEA104E4EEA014E10EBD1
:100AA0000E0041EB1141401841F100014FEAD00026
:100AB00040EA41704FEAD10110EB80054FEA810412
:100AC00044EA907444EB01046D1944EB0404521B96
:100AD000A3414FF0000348BF0A3200D530BD401C8F
:100AE00041F1000130BD00002DE9F0411F460446F0
:100AF00003260168072A01F4006004DB08B116A58B
:100B000005E016A503E008B115A500E015A521F044
:100B100010002060A069C01EA0610FB1401EA0613E
:100B20002046FFF75FFC4FB1D4E9012138469047DA
:100B3000206A401C2062C01C206206E0206AFAE79E
:100B4000D4E9012115F8010B9047761EF8D2204612
:100B5000FFF75EFCBDE8F0814E414E006E616E0015
:100B6000494E4600696E66002DE9F04781461646FB
:100B70008AB0354878440DC88DE80D003248784475
:100B8000801C03AC0DC884E80D0041F69B3008447E
:100B9000372190FBF1F290FBF1F5A5F1800501FB07
:100BA00012041B3C02D56442012000E00020DFF863
:100BB00098A080460027FA44AAF1BE0A0EE0E0079A
:100BC0000AD03246684607EB470101230AEB810150
:100BD00000F046FB8DE8070064107F1C002CEED16E
:100BE000194F7F44AE3F19E0E80715D007EB04101A
:100BF0000DF1180A90E80E008AE80E00C068F04275
:100C000001D1981908903246012306A903A800F0E3
:100C100027FB03AB83E807006D10641C002DE3D1B4
:100C20004FF0010332466946B8F1000F03A802D025
:100C300000F001FB01E000F013FBC9E90001C9F875
:100C400008200AB0BDE8F0876C65000000487047D6
:100C5000F41600207546FFF7F9FFAE460500694619
:100C6000534620F00700854618B020B5FFF71CFB5F
:100C7000BDE820404FF000064FF000074FF000089D
:100C80004FF0000B21F00701AC46ACE8C009ACE81E
:100C9000C009ACE8C009ACE8C0098D46704710B582
:100CA0000446AFF300802046BDE81040FFF7E8BAE5
:100CB0004FF0013C50F8042B51F8043B9A4221D1EB
:100CC000A2EB0C03934313EACC1317D150F8042B77
:100CD00051F8043B9A4215D1A2EB0C03934313EA5B
:100CE000CC130BD150F8042B51F8043B9A4209D194
:100CF000A2EB0C03934313EACC13DBD04FF00000BC
:100D0000704700BFD01A01BAB1FA81F101F01801A1
:100D100022FA01F0CB40C1F12001DBB2C0B2C01A0F
:100D20002CFA01F3D11A914311EAC311E6D17047AD
:100D300001491820ABBEFEE72600020070475FEABB
:100D4000400C08BF91F0000F4FEA8C234FEAC122FC
:100D500043EA51514FEA1C5018BF00F5F0404FEAEA
:100D6000300018BF41F000415FEA6C5C00F0298060
:100D7000BCF1FF3F08BF40F080407047130C06BF36
:100D800012044FF0100C4FF0000C130E04BF1202AF
:100D90000CF1080C130F04BF12010CF1040C930F9B
:100DA00004BF92000CF1020CD30F04BF52000CF1EF
:100DB000010C11464FF00002A0F11F00A0EB0C0047
:100DC000704711F0004F08BF704731F000413FF409
:100DD000D5AF0B0C06BF09044FF0100C4FF0000C00
:100DE0000B0E04BF09020CF1080C0B0F04BF090124
:100DF0000CF1040C8B0F04BF89000CF1020CCB0F1B
:100E000004BF49000CF1010CCCF12003A0EB0C0055
:100E100022FA03F302FA0CF241EA030100F10100A5
:100E2000704720F07F4C80EA030023F07F47ACEB53
:100E3000070303F57C5300F0004003F1FF032DE9A5
:100E400080494FEA154B09B44FEA144325EA0B4E8B
:100E500024EA03480FF2042606EB132749083E78DC
:100E60005FEA320203FB0667C7F5000707FB06F6D9
:100E70004FEA54374FEAD64606F1020607FB066CE6
:100E8000CCF1005C4FEA1C472CEA074C07FB06F448
:100E90000CFB06F504EB15464FEA961634BF00200E
:100EA0004FF000404FEAD13706FB07FC4FEA1C4CDD
:100EB0000CFB0BF7D21B03FB0CF761EB07010CFBE0
:100EC0000EF7B0EB074072EB17420CFB08F734BF8C
:100ED000A2EB0742B2EB074261EB17414FEA0C4429
:100EE0004FEA910706FB07FC4FEA1C4C0CFB0BF783
:100EF000B0EBC74072EB573203FB0CF734BFA2EBE9
:100F0000C742B2EBC74261EB57310CFB0EF7B0EBB7
:100F1000C70072EB57720CFB08F734BFA2EBC70295
:100F2000B2EBC70261EB5771039F4FEA816141EA5F
:100F3000921104EBCC044FEAD1374FEA826206FBF0
:100F400007FC42EA90124FEA80604FEA1C4C0CFB0F
:100F50000BF7D21B03FB0CF761EB07010CFB0EF741
:100F6000B0EB074072EB17420CFB08F734BFA2EB63
:100F70000742B2EB074261EB17414FEA8C554FEA4B
:100F8000910704EB9C2406FB07FC4FEA1C4C0CFB6E
:100F90000BF7B0EBC74072EB573203FB0CF734BFD3
:100FA000A2EBC742B2EBC74261EB57310CFB0EF725
:100FB000B0EBC70072EB57720CFB08F734BFA2EB23
:100FC000C702B2EBC70261EB577115EB4C254FEA34
:100FD000816141EA92114FEA82624FEAD13742EAD7
:100FE000901206FB07FC44F100044FEA80604FEAD0
:100FF0001C4C0CFB0BF7D21B03FB0CF761EB07013E
:101000000CFB0EF7B0EB074072EB17420CFB08F736
:1010100034BFA2EB0742B2EB074261EB174115EB7D
:101020001C154FEA813141EA92414FEA823242EA8D
:1010300090424FEA80304FEA0C7644F1000448EACF
:1010400003434EEA0B484FF0000EB2EB080C71EB75
:10105000030724BF624639464EEB0E0E4FF0000BDD
:101060000018524149414BEB0B0BB2EB080C71EBF2
:1010700003077BF1000B24BF624639464EEB0E0E90
:101080004FF0000B0018524149414BEB0B0BB2EBF8
:10109000080C71EB03077BF1000B24BF6246394655
:1010A0004EEB0E0E51EA020718BF46F0010616EB92
:1010B0000E7655F1000254F1000103D5BDE8890117
:1010C000BDE80088BDE88901BDE80048B619524175
:1010D00041EB0101A3F10103704780807F7E7D7C9D
:1010E0007B7A7978777676757473727171706F6EBA
:1010F0006E6D6C6C6B6A6A69686867666665646465
:10110000636362616160605F5F5E5E5D5D5C5C5BEE
:101110005B5A5A595958585757565655555554545D
:10112000535352525251515050504F4F4F4E4E4DBB
:101130004D4D4C4C4C4B4B4B4A4A4A494949484807
:101140004847474747464646454545444444444347
:1011500043434342424242414141002B9C4630D4EA
:1011600077002BD01CB54FEA370703B44FF01000BF
:101170004FF01001BAF1000F06D0BCF1000FDCBF38
:1011800040F0080040F008014FF000000FBCBDE83F
:1011900010400BF1010BBBF1010F08BF5FEA17070D
:1011A00022BF12F1010211F101014FF0004143F1A0
:1011B000000300F0004043EA00007047F9D35708ED
:1011C000D0E746EA064613F1400F4FEA16461FDD08
:1011D00013F1200FDFBF16430A46002120335B4284
:1011E000BED0C3F1200746EA064602FA07F74FEAE7
:1011F000164646EA0706C3F1200722FA03F201FA6F
:1012000007F721FA03F14FF0000342EA0702A7E7CC
:1012100046EA020646EA06464FEA164646EA01064E
:10122000BCBF46EA0646360C4FF000034FF0000202
:101230004FF0000194E72DE9804C9A46934670B434
:1012400091E8380007C831EA400C48BF34EA430C43
:1012500003D5FFF7E6FDFFF780FFF0BCBDE8008C8B
:101260002DE9804C9A46934670B491E8380007C83F
:1012700010F0804F08BF13F0804F03D100F005F845
:10128000FFF76BFFF0BCBDE8008C20F07F4780EAE1
:10129000030023F07F4C07EB0C03A3F57C5300F015
:1012A0000040A3F1FE0392F0000F00F0B38095F030
:1012B000000F00F077802DE901494FEA11404FEA15
:1012C000144621EA004800FB06FC24EA064708FB16
:1012D00006F607FB08F800FB07F718EB06484CEB8F
:1012E000164C4FEA124B18EB07484FEA15464CEBE9
:1012F000174022EA0B4E0BFB06FC25EA06470EFBC5
:1013000006F607FB0EFE0BFB07F71EEB064E4CEB3B
:10131000164C4FF000061EEB074E4CEB174B18EB2C
:101320000B0840F1000018EB0E0B58EB000840F1E1
:1013300000008F1A4FF000013CBFC943661B14BF69
:10134000B5EB040C00213CBFC943F61B4FEA174420
:101350004EEA8E0E27EA04454FEA1C4704FB07625B
:101360002CEA074C05FB07F70CFB05F604FB0CFC0D
:1013700016EB074642EB174216EB0C4642EB1C42BB
:101380001BEB060658EB0202414146EA9E0601D5D8
:10139000BDE80189B619524141EB0101A3F10103F6
:1013A000BDE801894FEA14454FEA114724EA054692
:1013B00021EA074C05FB07F406FB07F70CFB06F1D7
:1013C00005FB0CFC11EB074144EB17444FEA1247B5
:1013D00011EB0C4144EB1C4422EA074C05FB07F2DD
:1013E00006FB07F70CFB06F605FB0CFC16EB0746A5
:1013F00042EB174216EB0C4642EB1C456A1854F1BF
:10140000000148BF7047B619524141EB0101A3F1F9
:101410000103704795F0000F37D04FEA11424FEAB1
:10142000144721EA024624EA074C02FB07F106FBB7
:1014300007F70CFB06F402FB0CFC14EB074441EB32
:1014400017414FEA154714EB0C4441EB1C4125EAC8
:10145000074C02FB07F506FB07F70CFB06F602FB41
:101460000CFC16EB074645EB174516EB0C4645EB17
:101470001C42121951F1000148BF7047B619524180
:1014800041EB0101A3F1010370474FEA14454FEA14
:10149000114724EA054621EA074C05FB07F106FB44
:1014A00007F70CFB06F24FF0000605FB0CFC12EBF5
:1014B000074241EB174112EB0C4251EB1C4148BF74
:1014C0007047921841EB0101A3F10103704710B579
:1014D0000146806B026C12F0500F05D0026CD206F0
:1014E00026D500F05AFB10BD016C41F40071016477
:1014F00001688A6812F0405F17D1027EAAB9CA6AF1
:1015000012F4700F02D08A6852050ED44A6822F095
:1015100020024A60016C21F480710164016CC904ED
:1015200003D4016C41F00101016400F087FA10BDA1
:10153000806BC26CBDE810400846104710B5806B48
:1015400040210164416C41F00401416400F025FB3D
:1015500010BD10B5806B00F01FFB10BD464910B5E3
:101560004A6822F440324A604A6843681A434A6033
:1015700001684A6822F480724A6001684A68036917
:1015800042EA03224A6001684A6822F040724A60D7
:1015900001684A6883681A434A6001688A6822F4CD
:1015A00000628A6001688A68C3681A438A60816A37
:1015B0006FF07062D14201688A6822F070628A60BE
:1015C00001688A680CD0836A1A438A6001688A6855
:1015D00022F040528A6001688A68C36A1A4301E0B7
:1015E00022F040528A6001688A6822F002028A6012
:1015F00001688A68037E42EA43028A6090F82010FC
:10160000002901684A680FD042F400624A6001680C
:101610004A6822F460424A6001684A68174C436A8B
:1016200004EB43331A4301E022F400624A6001688C
:10163000CA6A22F47002CA620168CA6A838B104CBB
:1016400004EB03531A43CA6201688A6822F40072E9
:101650008A6001688A6890F8303042EA43228A60E2
:1016600001688A6822F480628A6001688A68406939
:1016700042EA8020886010BD0023014000E0FFFFA7
:101680000000F0FFFEE70020704700207047704721
:1016900010B500220449054803F023FB0449034820
:1016A00003F016FB002010BDE40C00202C040020E9
:1016B000FC08002070B50D4604460146054803F0BD
:1016C00007FB044803F0E9FA29462046FFF7DFFF4D
:1016D000002070BD2C04002000207047014800F05D
:1016E000F9BB00006802002001681823CAB2103A52
:1016F000B2FBF3F2054B6FF30901032A9B5CC36550
:1017000000D9091D8165084670470000487000082F
:1017100010B5014600208B698A6A4FF0C07453B13E
:10172000B3F5005F15D072B1012A0CD0022A0AD09D
:10173000032A09D104E01AB1012A06D0022A03D1F2
:10174000C96AC90100D5012010BDC96AA142FAD0F9
:1017500010BD002AF7D0012AF2D0022AF3D0032AC2
:10176000F3D010BD30B50468256825F480252560C8
:10177000046863608368402B036803D09960006845
:10178000C26030BD9A600068C16030BD7047000023
:101790002DE9F04104462DED028B0F4615461E46FD
:1017A00080B205F004F99FED4C8B53EC182B05F03B
:1017B0004DF941EC100B04F09FFD51EC100B05F0BE
:1017C000C7F8DFF81C8180B2D8F800104863200CFD
:1017D00005F0EDF853EC182B05F038F941EC100B3F
:1017E00004F08AFD51EC100B05F0B2F8D8F80010A7
:1017F00080B28863B8B205F0DAF853EC182B05F024
:1018000025F941EC100B04F077FD51EC100B05F0BD
:101810009FF8344C80B221684863380C05F0C7F853
:1018200053EC182B05F012F941EC100B04F064FD99
:1018300051EC100B05F08CF8216880B28863A8B2D7
:1018400005F0B5F853EC182B05F000F941EC100B3E
:1018500004F052FD51EC100B05F07AF8224C80B2E6
:1018600021684863280C05F0A2F853EC182B05F00A
:10187000EDF841EC100B04F03FFD51EC100B05F0BE
:1018800067F8216880B28863B0B205F090F853EC35
:10189000182B05F0DBF841EC100B04F02DFD51EC9A
:1018A000100B05F055F8216880B2C863300C05F0C4
:1018B0007EF853EC182B05F0C9F841EC100B04F03E
:1018C0001BFD51EC100B05F043F8216880B2086451
:1018D000BDEC028BBDE8F081E17A14AE47E1FA3F3E
:1018E0001003002058030020A003002072B6FEE77A
:1018F00078B50024009490F83C20012A19D00122E8
:1019000080F83C200A6807230568092A13D9EE6885
:101910000A3A02EB420293409E43EE600B788A68DB
:101920000A3B03EB43039A400368DD682A43DA600D
:1019300010E0022078BD2E6902EB420293409E43E4
:101940002E610B788A6803EB43039A4003681D6994
:101950002A431A614A681F23072A13D205686E6B4F
:10196000521E02EB820293409E436E630B790A88FB
:101970005B1E92B203EB83039A4003685D6B2A43BC
:101980005A6327E005680D2A12D22E6BD21F02EB94
:10199000820293409E432E630B790A88DB1F92B22A
:1019A00003EB83039A4003681D6B2A431A6311E01B
:1019B000EE6A0D3A02EB820293409E43EE620B798F
:1019C0000A880D3B92B203EB83039A400368DD6AF9
:1019D0002A43DA62164B0568144A9D4206D10D6807
:1019E000122D03D1556845F48005556005689D4268
:1019F00018D10B68102B01D0112B13D1536843F46D
:101A000000035360096810290CD10A490A4A096881
:101A1000B1FBF2F101EB8101490000E0491E0091A8
:101A20000029FBD180F83C40002078BD0023014014
:101A3000002001407800002040420F002DE9F047CF
:101A40002DED088B8EB000683C49884270D13C4E29
:101A50009FED3C9B9FED3DAB9FED3E8B9FED3FBBD4
:101A6000002506F1280400BF56F8250004F09FFF6A
:101A700053EC192B04F0EAFF53EC1A2B04F0E6FFA9
:101A800053EC182B04F00CFE53EC1B2B04F0DEFF80
:101A900053EC182B04F004FE04F01CFD44F8250060
:101AA0006D1CEDB2082DDFD3E06905F047FA07465B
:101AB0008846A06905F042FA05460E46606905F0C1
:101AC0003DFACDE90601206905F038FACDE90401B7
:101AD000E06805F033FACDE90201A06805F02EFABE
:101AE000CDE90001606805F029FA81468A46206840
:101AF00005F024FA41EC100B0AA853EC102B80E8F7
:101B0000E001DDE90601CDE90801DDE90401CDE9E7
:101B10000601DDE90201CDE90401DDE90001CDE9BD
:101B200002010748CDE9009A0EA14830FEF746FCB5
:101B30000EB0BDEC088BBDE8F0870000002001402E
:101B4000900100206666666666660A400000000036
:101B50000000303F0000000000005940000000007D
:101B600000408F4025322E34662025322E346620E8
:101B700025322E34662025322E34662025322E342E
:101B8000662025322E34662025322E3466202532FA
:101B90002E34660D0A0000007047704770B50400CF
:101BA0004FF0000503D0206C002610B107E00120A3
:101BB00070BD204600F01CF8666484F83C60206C20
:101BC000C00610D4206C20F4885040F0020020643D
:101BD0002046FFF7C3FC6664206C20F0020040F052
:101BE0000100206400E0012584F83C60284670BDB7
:101BF00070B586B0064614216846FEF7D3FC254929
:101C00003068884243D124480025016841F480713E
:101C100001600068204900F480701439059008685C
:101C200040F001000860086800F0010005900868B5
:101C300040F0020008600868032400F002000590EC
:101C4000FF208DE831006946144800F0C7FA00947F
:101C500069461348CDE9014500F0C0FA124C11481D
:101C6000C4E900050015A560C4E903508000606167
:101C70008000A0618011E0610002C4E908052046EF
:101C800000F0F8F908B1FFF731FEB463A66306B0BF
:101C900070BD0000002001404438024000000240B6
:101CA000000402401064024068020020F8B50446B7
:101CB00000200E46009094F83C10012907D0012125
:101CC00084F83C1021688B68DB0702D011E0022009
:101CD000F8BD8B6843F001038B603649364B0968C9
:101CE000B1FBF3F101EB410100E0491E0091002935
:101CF000FBD121688B68DB0503D58B6823F48073E7
:101D00008B6021688B68DB0749D0236C40F201654A
:101D1000AB4343F4807323644968490505D5216CBE
:101D200021F4005141F480512164216CC90404D58F
:101D3000616C21F00601616400E0606484F83C009D
:101D4000A16B1F481D4DC863A16B1E480864A16BA1
:101D50001D48C86421686FF022000860206841684F
:101D600041F0806141602068816841F48071816048
:101D70002168134632464C31A06B00F0E5F96868E3
:101D8000C006206802D01149884210D1816811F044
:101D9000405F0CD1816841F08041816007E0206C98
:101DA00040F010002064606C40F00100606400208E
:101DB000F8BD00007800002040420F0000230140E1
:101DC000CF140008531500083D15000800200140FD
:101DD00010B5040002D0607910B106E0012010BDFA
:101DE00000202071204600F005F8012060710020DD
:101DF00010BD000008B500680649884208D10648B1
:101E0000016841F480510160006800F48050009046
:101E100008BD000000300240303802402DE9F0419A
:101E20000446876D00F0D0FA064694F83500002588
:101E3000022806D08020606584F834500120BDE877
:101E4000F0812068016821F0160101602068416975
:101E500021F080014161206C08B9A06C20B120689C
:101E6000016821F0080101602068016821F001018A
:101E700001600CE000F0A8FA801B052807D920209B
:101E80006065032084F8350084F83450D7E7206873
:101E90000068C007EED194F85C103F208840B8601D
:101EA000012084F8350084F834500020C7E790F80A
:101EB0003510022903D0802141650120704705219A
:101EC00080F835100068016821F0010101600020F0
:101ED000704700002DE9F84304464FF00009CDF8A3
:101EE000009063484FF41651A56D0068B0FBF1F700
:101EF0002E6894F85C10082000FA01F131420FD0EE
:101F000021680A6852070BD50A6822F004020A60A9
:101F100094F85C108840A860606D40F00100606536
:101F200094F85C104FF0010808FA01F0304208D034
:101F300021684969090604D5A860606D40F0020077
:101F4000606594F85C1004208840304208D0216815
:101F50000968890704D5A860606D40F004006065D9
:101F600094F85C1010208840304218D0216809682D
:101F7000090714D5A86020680168490304D50068E2
:101F8000000308D5A16C07E00168C90503D4016806
:101F900021F008010160216C09B12046884794F8BE
:101FA0005C1020208840304231D021680968C90681
:101FB0002DD5A86094F8350005282068016806D062
:101FC000490347D5006800031DD4616C1CE021F073
:101FD000160101602068416921F080014161206C97
:101FE00008B9A06C20B12068016821F008010160E7
:101FF00094F85C103F208840A86084F8358084F80D
:102000003490216D1FE0E16B09B120468847606D77
:1020100000282BD0606DC00714D0052084F835004F
:102020002068016821F0010101600098401C0090C7
:10203000B84203D820680068C007F6D184F835801C
:1020400084F83490E16C002910D001B02046BDE83E
:10205000F04308470168C905D5D4016821F0100193
:10206000016084F8358084F83490CCE7BDE8F883CB
:10207000780000202DE9F041044600F0A5F906465D
:102080005CB1022084F83500002584F834502068C3
:10209000016821F0010101600DE00120BDE8F0813F
:1020A00000F092F9801B052805D9202060650320E7
:1020B00084F83500F2E720680068C007F0D1226894
:1020C000116820480140D4E901031843D4E90336DC
:1020D0003343184363691843A3691843E3691843FA
:1020E000236A18430843616A042903D1D4E90B1316
:1020F00019430843106020684069666A20F00701B0
:1021000030460E43012704280CD1A06A0643E06A3A
:1021100040B12046FFF7FCFA20B14020606584F80A
:102120003570BAE7206846612046FFF7DDFA94F87B
:102130005C203F2191408160656584F83570002006
:10214000ACE700003F8010F02DE9F0410446866DB9
:1021500090F83400002501280DD0012084F83400C7
:1021600094F835700020012F07D084F83400022540
:102170002846BDE8F0810220FBE7022784F835708D
:1021800060652046FFF7EEFA94F85C103F20884027
:10219000B0602068016841F016010160206C20B138
:1021A0002068016841F0080101602068016841F081
:1021B00001010160DCE7000070B5044600F004F99D
:1021C0000546601C02D004480078044400F0FCF886
:1021D000401BA042FAD370BD6C0000202DE9F84FDF
:1021E000DFF8B8A1002201240AF1040B03254FF007
:1021F0000F090BF1040E00BF0B6804FA02F633401E
:10220000B34273D10F7907F00307012F01D0022FDA
:1022100016D187684FEA420805FA08FC27EA0C073E
:10222000D1F80CC00CFA08FC4CEA070CC0F808C046
:102230004768B7430E79C6F3001696403E434660A2
:102240000E79F643B6070DD0C768560005FA06FCAE
:1022500027EA0C07D1F808C00CFA06FC4CEA070C78
:10226000C0F80CC00E7906F00306022E10D1D60875
:1022700000EB8608D8F8206057074FEAD76C09FAB8
:102280000CF7BE430F6907FA0CF73743C8F8207004
:1022900006684FEA420C05FA0CF7BE430F7907F0C7
:1022A000030707FA0CF7374307604E6816F4403F00
:1022B0006DD03B4E376847F480473760366822F070
:1022C000030706F480460096364E07EB060CDCF852
:1022D000086897073F0F09FA07F826EA0806DFF8AB
:1022E000C880404503D14FF000081EE04FE0DFF802
:1022F000BC80404502D14FF0010816E0DFF8B08005
:10230000404502D14FF002080FE0DFF8A8804045B9
:1023100002D14FF0030808E0DFF89C80404502D16D
:102320004FF0040801E04FF0070808FA07F848EA00
:102330000608CCF80888DAF800605746D1F804C0DF
:102340009E435FEACC3C00D51E433E60DBF8006054
:102350005F46D1F804C09E435FEA8C3C00D51E4323
:102360003E60DEF800607746D1F804C09E435FEA25
:10237000CC2C00D51E433E60084F0C373E68D1F888
:1023800004C09E435FEA8C2C00D51E433E60521C65
:10239000102AFFF431AFBDE8F88F0000003C014087
:1023A0004438024000300140000002400004024076
:1023B00000080240000C0240001002400AB1816196
:1023C00070470904FBE7000001488068704700007F
:1023D0006C000020024881680278114481607047D7
:1023E0006C0000200B4810B5016841F400710160D9
:1023F000016841F480610160016841F4807101600D
:10240000032000F06FF80F2000F006F800F024F829
:10241000002010BD003C024070B50D4D04464FF445
:102420007A712878B1FBF0F00A490968B1FBF0F045
:1024300000F0A6FF48B9102C07D200222146501EFA
:1024400000F030F800206C6070BD012070BD00000D
:102450006C000020780000200A4808B5016841F4AB
:1024600080410160006800F4804000900548001F32
:10247000016841F080510160006800F080500090D8
:1024800008BD000044380240002809DB00F01F02AC
:10249000012191404009800000F1E020C0F80011C6
:1024A00070470000F0B40E4B1B680C46C3F30223C8
:1024B000C3F10705042D00D90425191D072901D2F0
:1024C000002300E0DB1E012606FA05F1491E21402B
:1024D00099409E40761E16403143F0BC03F0F9BE91
:1024E0000CED00E0064900F0070208684FF6FF0314
:1024F000184040EA0220034A104308607047000079
:102500000CED00E00000FA05704700684162002011
:102510007047F0B50368586A39B19C6A4FF4827607
:1025200000EB144400204D1E0AE040EA024098628D
:102530000FE006EB8007DF59401C04EB1744C0B2E4
:10254000A842F6D344EA02404FF4807202EB8101C4
:1025500058500020F0BDD0F8040402F047BEC1EB93
:10256000C10200EB8202D0F80404926C02F0B4BD08
:10257000C1EBC10200EB8202D0F80404D2F80822B9
:1025800002F0FEBDD0F8040402F032BE70B504467D
:102590000B0601F00F00C0EBC00104EB81014FF00E
:1025A00001024FF0000503D581F83D203C3103E0E6
:1025B00081F8FD5101F5FE71087094F8BC03012803
:1025C00008D084F8BC23206803F0D0F984F8BC5309
:1025D000002070BD022070BD70B5044601F00F00F0
:1025E0006268904201D9012070BD0B0601F00F0115
:1025F000C1EBC10104EB81014FF001024FF0000576
:1026000003D581F83D203C3103E081F8FD5101F50F
:10261000FE718D70087094F8BC03012808D084F80E
:10262000BC23206803F09CFB84F8BC53002070BDE1
:10263000022070BD01F00F01C1EBC10100EB810070
:10264000D0F8140270472DE9F04104460F0601F05E
:102650000F00C0EBC00104EB81014FF001064FF009
:10266000000503D581F83D603C3103E081F8FD5160
:1026700001F5FE7108708A60CB704A7802B1C8809B
:10268000022B00D10D7194F8BC03012809D084F805
:10269000BC63206803F0C2F8284684F8BC53BDE848
:1026A000F0810220FBE770B50C4601F00F05C5EB89
:1026B000C50100EB8101C1F81032C1F808220023E6
:1026C000C1F8143281F8FD3181F8FC51036901F53C
:1026D000FE71012B00D10A612207027C006803D041
:1026E00003F096FB002070BD03F082FAFAE770B5A4
:1026F00004460D4601F00F006168884201D90120AF
:1027000070BD29064FF000064FF0010207D5C0EB5F
:10271000C00104EB810181F83D203C3107E0C5EBAD
:10272000C50104EB810181F8FD6101F5FE718A703C
:10273000087094F8BC03012807D084F8BC232068F3
:1027400003F03AFB280702D007E0022070BD217C8D
:1027500004F57172206803F0D7FA84F8BC63002096
:1027600070BD70B50C4601F00F05C5EBC50100EB5F
:1027700081010B658A6400234B65012381F83D309C
:1027800001F83C5F0369012B00D10A612207027C3A
:10279000006803D003F03CFB002070BD03F028FA72
:1027A000FAE700002DE9FC5F05680446284603F0BF
:1027B00060FC00287ED1206803F087FC002879D0D7
:1027C000206803F082FC800704D52168486900F086
:1027D00002004861206803F078FCC10604F57170BE
:1027E000009034D52068816921F0100181612F6A41
:1027F00007F00F00C0EBC00004EB8006C7F34340B6
:1028000006F5FE76022802D0062811D01AE047F617
:10281000F070074216D0C7F30A1217462846F1682F
:1028200003F057FCF0683844F060B069384408E0C1
:1028300008222846009903F04CFCB069C7F30A113E
:102840000844B0612068816941F01001816120680D
:1028500003F03BFC00034FF0010A4FF0080B5BD57F
:102860000026206803F010FC0746DFF8689351E06B
:10287000F8074DD0F1B2206803F01FFC8046C00776
:1028800007D005EB4611C1F808AB3146204601F0F0
:102890007DFD5FEA087022D505EB4611C1F808BB43
:1028A0002068016C00EB46100191D0F8082B4945D7
:1028B00007D900E08BE1110403D54FF40041C0F8C3
:1028C000081B204600F073FA0198484507D9206993
:1028D000012804D120680121009A03F015FA5FEA6B
:1028E000C86004D505EB46111020C1F8080B5FEA5B
:1028F000886004D505EB46112020C1F8080B5FEA7B
:10290000884005D505EB46104FF40051C0F8081B70
:102910007F08761C002FABD1206803F0D6FB400364
:102920004FF000095CD5206803F0A7FB074600269E
:1029300054E0F80750D0F1B2206803F0ACFB8046B9
:10294000C00723D006F00F020AFA02F0D5F83428A7
:102950008243C5F8342805EB4610C0F808A9206961
:1029600001280FD1C6EBC60004EB8000D0E911218D
:102970001144816436B9206D20B920680121009A84
:1029800003F0C2F9F1B22046FFF7E9FD5FEA0870F3
:1029900003D505EB4611C1F808B95FEAC86004D554
:1029A00005EB46111020C1F808095FEA486004D51C
:1029B00005EB46114020C1F808095FEA887004D58C
:1029C00005EB46110220C1F808095FEA086003D54B
:1029D0003146204601F040FD7F08761C002FA8D12B
:1029E000206803F072FB002811DAD5F8040820F003
:1029F0000100C5F8040894F8F403012829D0204602
:102A000000F0B9F92068416901F000414161206896
:102A100003F05BFB00050BD5D5F80808C00702D012
:102A2000204600F0EDF92068416901F40061416140
:102A3000206803F04AFBC00468D5D5F8040820F0EC
:102A40000100C5F804081021206803F0EFFA002106
:102A500027E084F8F49300212046FFF755FDD1E7E5
:102A600005EB41104FF67F32C0F80829D0F8003945
:102A700023F40013C0F80039D0F8003943F00063A4
:102A8000C0F80039C0F8082BD0F8002B22F400124F
:102A9000C0F8002BD0F8002B42F00062C0F8002BE9
:102AA000491C60688842DBD8D5F81C0840F001104A
:102AB000C5F81C08206B60B1D5F8840840F00B0005
:102AC000C5F88408D5F8440840F00B00C5F8440860
:102AD0000CE0D5F8141842F22B000143C5F8141885
:102AE000D5F8100840F00B00C5F81008D5F800081C
:102AF00020F4FE60C5F80008217C2068009A03F0ED
:102B000003F92068416901F480514161206803F0B4
:102B1000DCFA800415D5206802F0C0FE206803F0BE
:102B20009BFAE06000F01EFA0146227B206803F069
:102B30002FFB204600F00CF92068416901F4005198
:102B40004161206803F0C1FA000707D5204600F074
:102B500016F92068416901F008014161206803F01D
:102B6000B4FAC00208D50021204600F035F82068EC
:102B7000416901F480114161206803F0A6FA8002E6
:102B800008D50021204600F02BF82068416901F4A7
:102B900000114161206803F098FA400007D52046F3
:102BA000FFF7D9FC2068416901F08041416120684C
:102BB00003F08BFA40070AD520684568680702D5FC
:102BC0002046FFF7DFFC2068416829434160BDE8EB
:102BD000FC9F00000A30544FD0F8040402F058BBA8
:102BE000D0F8040402F064BB2DE9F0418AB004007F
:102BF00005D094F8BD032668002520B108E0012027
:102C00000AB0BDE8F08184F8BC53204600F05EF8BD
:102C1000032084F8BD03F06BC00500D42561206853
:102C200002F0E0FF04F11001282288466846FDF713
:102C300087FC94E80F0002F03FFE0226C8BB00218B
:102C4000206803F065FA002001270EE0C0EBC00108
:102C500004EB810181F83D7001F83C0FC880CD7014
:102C60008D60CD60401CC0B24D6161688142EDD87D
:102C7000002011E0C0EBC00104EB810181F8FD519F
:102C800081F8FC0181F8FF51C1F80452C1F80852E3
:102C9000401CC0B2C1F8105261688142EAD82822B3
:102CA00041466846FDF74CFC94E80F0002F0E0FE58
:102CB00010B184F8BD63A2E784F8385084F8BD737E
:102CC000206802F0C7FE00209AE7000010B586B029
:102CD000044614216846FDF765FC2068B0F1A04F5A
:102CE0002FD119480021026842F0010202600068F9
:102CF00000F0010005904FF4C05000900220CDE993
:102D00000101032003900A20049069460F48FFF751
:102D100065FA0D48001D016841F0800101600A4814
:102D20001430016841F4804101600068002200F421
:102D30008040059011464320FFF7B4FB4320FFF786
:102D4000A3FB06B010BD0000303802400000024076
:102D500070B50446C0680125022801D0FEF7C6FD03
:102D60002946D4F8040402F00FFBD4F80404BDE8AB
:102D7000704002F0C2BAD0F8040402F0EBBAD0F806
:102D8000040402F0F1BA10B5044690F8BC0301281F
:102D90000BD0012084F8BC0384F83810206803F0BD
:102DA000E5F9002084F8BC0310BD022010BDD0F866
:102DB000042400F57171104602F0F2BA10B5044611
:102DC000006894F8BC13012906D0012184F8BC13D3
:102DD000A16A012902D008E0022010BDA1690129E1
:102DE00003D0816B41F480318163206803F004F9E2
:102DF000206802F021FE002084F8BC0310BD000012
:102E000010B50446D0F8040402F00CFB2068D0F89A
:102E1000001E41F00101C0F8001E206A002804D005
:102E20000248016841F00601016010BD10ED00E0AC
:102E30002DE9F0470E46050065D0DFF81481D8F87B
:102E40000000F7B200F00700B04207D288F8007027
:102E5000D8F8000000F00700B04254D128683D4C7B
:102E6000810712D5400703D5206840F4E050206068
:102E70002878000703D5206840F46040206020686F
:102E8000A96820F0F000084320602878C0072DD002
:102E9000304968680839012812D0022813D0032865
:102EA00011D00968890700292DDA216821F0030172
:102EB00001432160FFF788FA814641F2883A0EE02B
:102EC00009688903EFE709688901ECE7FFF77CFAF5
:102ED000A0EB0901514502D90320BDE8F087206825
:102EE000696800F00C00B0EB810FEFD1D8F800104A
:102EF000404601F00701B14207D90770006800F0B1
:102F00000700B04201D00120E7E72878400705D547
:102F10002068E96820F4E050084320602878000722
:102F200006D52068296920F4604040EAC10020608D
:102F300000F03EF82168084AC1F30311515CC84013
:102F40000649086006480068FFF766FA0020C4E7F3
:102F5000003C024008380240507000087800002011
:102F600070000020014800687047000078000020D1
:102F70000448054900680968044AC1F38221515C8C
:102F8000C840704778000020083802406070000890
:102F90000448054900680968044AC1F34231515C9C
:102FA000C840704778000020083802406070000870
:102FB000154810B5006810F00C02144813D01449DD
:102FC000042A0FD0082A0ED10F4C241F2268236830
:102FD00002F03F025B0207D52068C0F38810A0FB17
:102FE000010106E0084610BD2168C1F38811A1FB6C
:102FF00000010023FDF76AF92168C1F30141491C72
:103000004900B0FBF1F010BD083802400024F40084
:1030100040787D012DE9F84F04006ED02078DFF86C
:103020004C93C007A9F104054AD009F104000168D6
:10303000C1F38101012908D00068C0F38100022892
:103040000AD1D9F80000400206D52868800337D598
:1030500060680028E1D033E06068B0F5803F10D0B0
:10306000B0F5A02F286810D020F4803028602868A0
:1030700020F4802028606068A8B1FFF7A5F9064613
:103080000DE0286840F48030F4E740F480202860A8
:10309000F7E700BFFFF798F9801B642873D828680A
:1030A0008003F7D50CE0FFF78FF9064605E000BF77
:1030B000FFF78AF9801B6428F0D828688003F7D4CA
:1030C0002078DFF8AC8280074FF0000A3ED5A74891
:1030D000001D016811F00C0F08D00068C0F38100DA
:1030E00002280BD1D9F80000400207D428688007D5
:1030F00016D5E068012800D112E033E1E068B8B1EC
:103100000120C8F80000FFF75FF9064605E000BFA0
:10311000FFF75AF9801B0228C0D828688007F7D526
:103120002868216920F0F80040EAC10028600DE01D
:10313000C8F800A0FFF748F9064604E0FFF744F995
:10314000801B02281FD828688007F7D42078000742
:1031500022D5864F87486169703771B101210160BE
:10316000FFF732F9064604E0FFF72EF9801B02282C
:1031700009D838688007F7D50EE0C0F800A0FFF73F
:1031800023F9064605E082E0FFF71EF9801B0228BE
:103190007DD838688007F7D42078400768D5DFF8F5
:1031A000CCB100270BF13C0BDBF80000C0000BD4C6
:1031B000DBF8001041F08051CBF80010DBF8000084
:1031C000012700F0805000906B4E3068C00510D48D
:1031D000306840F480703060FFF7F6F8009005E04A
:1031E000FFF7F2F80099401A022850D83068C0055D
:1031F000F6D55E4EA0686C3601280FD005283068E1
:1032000010D020F001003060306820F00400306001
:10321000A068B8B1FFF7D8F800900FE0306840F030
:103220000100F4E740F004003060F7E7FFF7CCF866
:103230000099411A41F28830814266D8306880078F
:10324000F4D50EE0FFF7C0F8009007E0FFF7BCF8F8
:103250000099411A41F28830814256D8306880077F
:10326000F4D42FB1DBF8001021F08051CBF800101E
:10327000A069C8B33D49091D0968C1F3810102294C
:103280004AD00228504607D0C8F8600000E03CE071
:10329000FFF79AF804463BE04746C8F86000FFF79E
:1032A00093F8064605E000BFFFF78EF8801B022862
:1032B0002BD828688001F7D4D4E907010843A16A14
:1032C0002E4A490802EB0141626A41EA8211084331
:1032D00094F82C1040EA0161C9F80010012038660A
:1032E000FFF772F8044606E03EE000BFFFF76CF817
:1032F000001B022809D828688001F7D534E000BFF8
:10330000FFF762F8001B022802D90320BDE8F88FFE
:1033100028688001F4D427E00128F7D0D9F800000C
:10332000E26900F4800191421CD1226A00F03F0161
:10333000914217D147F6C071626A0140B1EB821F1A
:1033400010D1A26A4FF0FF3300F4403103EB520278
:10335000B1EB024F06D194F82C1000F07060B0EB86
:10336000016F01D00120D1E70020CFE704380240EF
:1033700000004742800E4742007000400000FFFFFF
:1033800010B5401EB0F1807F01D3012010BD4FF079
:10339000E02460610F21601702F09BFF0020A06114
:1033A00007202061002010BD10B590F83C20012AB4
:1033B00022D0012280F83C20CA688C6822F4407236
:1033C00022434C6822F4806222430C6822F400629B
:1033D00022430C6922F4805222434C6922F40052A9
:1033E0002243C969002322F480420A4301684A64E7
:1033F00080F83C30002010BD022010BD70B590F860
:103400003C20012A2CD0012480F83C40022280F884
:103410003D2003685A689D6822F070060A683243AE
:103420005A60104B02689A420ED0B2F1804F0BD016
:103430000D4B9A4208D00D4B9A4205D00C4B9A4244
:1034400002D00C4B9A4204D1496825F080031943FD
:10345000916080F83D40002180F83C10084670BD26
:10346000022070BD00000140000400400008004040
:10347000000C00400040014010B5040003D094F857
:103480003D0010B107E0012010BD002084F83C0091
:10349000204600F01FF8022084F83D00211D20681E
:1034A00001F088F8012084F8460084F83E0084F892
:1034B0003F0084F8400084F8410084F8420084F81A
:1034C000430084F8440084F8450084F83D0000205F
:1034D00010BD000008B501681148B1F1804F0BD054
:1034E000104A914210D1016841F002010160006868
:1034F00000F00200009008BD016841F00101016088
:10350000006800F00100F5E7074A9142F3D1016835
:1035100041F004010160006800F00400EAE70000E7
:1035200040380240000400400008004070B50446E6
:1035300090F83C000025012817D0012684F83C6053
:10354000022084F83D002068826822F0770222F48D
:103550007F4282600868502838D00DDC20284FD088
:1035600005DC90B3102811D14AE0022070BD30284C
:1035700046D040280AD13BE060282FD070280DD0DB
:10358000B0F5805F03D0B0F5005F12D0012584F85C
:103590003D60002084F83C00284670BDCB68D1E92E
:1035A0000121206801F05FF82068816841F077010F
:1035B00009E0CB68D1E90121206801F054F82068C6
:1035C000816841F480418160E1E719E0CA68496897
:1035D000206801F0FDF85021206806E0CA684968BB
:1035E000206801F006F96021206801F046F8CEE776
:1035F000CA684968206801F0EBF840212068F4E7C8
:10360000226801461046F0E72DE9F04186B00446F5
:1036100014216846FCF7C6FF3C4A216800243C4858
:10362000022501263B4FDFF8F080914221D101684D
:1036300041F002010160016801F002010591016899
:1036400041F0010101600068694600F00100059049
:103650004FF460400090CDE90154CDE9034638466F
:10366000FEF7BCFDE8010090CDE9015469464046F3
:1036700030E0B1F1804F0CD0284A914231D101683D
:1036800041F002010160006800F002000590302066
:1036900034E0016841F001010160016801F00101BD
:1036A0000591016841F0020101600068694600F07F
:1036B000020005904FF400400090CDE90154CDE99F
:1036C00003464046FEF78AFD08200090CDE90154EC
:1036D00069463846CDE90346FEF780FD06B0BDE8F1
:1036E000F0810F4A9142F9D1016841F00201016075
:1036F000006800F0020005904FF470700090CDE972
:10370000015469463846CDE90345E5E7000001402C
:103710003038024000040240000002400004004033
:103720000008004070B5044690F83C0000250128D0
:103730000FD0012084F83C006AB1042A0FD0082A77
:1037400011D00C2A13D00125002084F83C00284613
:1037500070BD022070BD206800F098FFF4E720687B
:1037600000F0BCFFF0E7206800F0E4FFECE7206821
:1037700001F00CF8E8E710B5040003D094F83D0020
:1037800010B107E0012010BD002084F83C00204665
:1037900000F01EF8022084F83D00211D206800F092
:1037A00009FF012084F8460084F83E0084F83F00B9
:1037B00084F8400084F8410084F8420084F8430013
:1037C00084F8440084F8450084F83D00002010BDD2
:1037D00008B500680649884208D10648016841F0EA
:1037E00001010160006800F00100009008BD0000C8
:1037F000000001404438024070B5044690F83C0097
:1038000000260D4601280FD0012084F83C006AB143
:10381000042A1DD0082A2FD00C2A3FD001260020D0
:1038200084F83C00304670BD022070BD206800F076
:103830002DFF2068816941F008018161206881695C
:1038400021F004018161206881692A69114311E036
:10385000206800F043FF2068816941F400618161C4
:103860002068816921F480618161206881692A6909
:1038700041EA02218161D2E7206800F05BFF206805
:10388000C16941F00801C1612068C16921F00401EA
:10389000C1612068C1692A69114311E0206800F004
:1038A00075FF2068C16941F40061C1612068C16988
:1038B00021F48061C1612068C1692A6941EA02215D
:1038C000C161ACE710B5040003D094F83D0010B11D
:1038D00007E0012010BD002084F83C00204600F0E5
:1038E0001EF8022084F83D00211D206800F062FED1
:1038F000012084F8460084F83E0084F83F0084F8F4
:10390000400084F8410084F8420084F8430084F8C1
:10391000440084F8450084F83D00002010BD704745
:1039200010B50446022249B104290ED0082913D04B
:1039300094F84100012816D0012010BD94F83E00F3
:103940000128F9D184F83E200FE094F83F000128C7
:10395000F2D184F83F2008E094F840000128EBD130
:1039600084F8402001E084F841200122206800F022
:103970006DFE12492068884203D1426C42F4004235
:103980004264206888420ED0B0F1804F0BD00C49C1
:10399000884208D00B49884205D00B49884202D0A2
:1039A0000A49884204D1816801F00701062903D041
:1039B000016841F001010160002010BD00000140DC
:1039C0000004004000080040000C0040004001409E
:1039D00070477047F8B5016804460868CA684B69C3
:1039E00010F00F0F4FF0000559D003F0010602F45C
:1039F0009077374365D0C10705D0D10503D5216C39
:103A000041F001012164410705D5D90703D0216C9C
:103A100041F002012164810705D5D90703D0216C4B
:103A200041F004012164010707D502F02001314370
:103A300003D0216C41F008012164216C00293AD0A7
:103A4000800604D5900602D5204600F013FF2068BA
:103A50004069216CC0F38010090700D460B3204690
:103A600000F0E1FE20684069400621D5206814304E
:103A700050E8001F21F0400140E80012002AF5D173
:103A8000A06BA8B16C490165A06BFEF710FA002885
:103A900011D0A06B016D01B0BDE8F040084783066E
:103AA0000FD593060DD52046BDE8F84000F0E2BEE4
:103AB0002046FFF78EFFF8BD2046FFF78AFF2564FA
:103AC000F8BD266B2023012E79D1C60677D5D60600
:103AD00075D50868486800904869400640D5A16BD4
:103AE000086840680004000CEAD0A28D8242E7D941
:103AF000E085C869B0F5807F2DD020680C3050E893
:103B0000001F21F4807140E80012002AF5D12068DE
:103B1000143050E8001F21F0010140E80012002A93
:103B2000F5D12068143050E8001F21F0400140E832
:103B30000012002AF5D184F83E30256320680C304D
:103B400050E8001F21F0100140E80012002AF5D1D2
:103B5000A06BFEF763F9A08DE18D401A81B229E0D8
:103B6000A08DE18D401A81B2E08D0028A8D00029F7
:103B7000A6D020680C3050E8002F22F4907240E864
:103B80000026002EF5D12068143050E8002F22F0D6
:103B9000010240E80026002EF5D184F83E3025636E
:103BA00020680C3050E8002F22F0100240E800237B
:103BB000002BF5D12046FFF70BFFF8BDFFE7050608
:103BC0002BD5150629D594F83D002128F5D1A068FC
:103BD000B0F5805F01D12069B0B1206A411C21623B
:103BE000216800784860E08C401E0004000CE084EE
:103BF000E3D12068C16821F08001C1602068C168FC
:103C000041F04001C160D8E7206A0088C0F3080095
:103C10004860206A801C2062E5E74006CDD550064A
:103C2000CBD5CA68204622F04002CA6084F83D30F5
:103C300000F0CFF8C1E700001748000870B5040095
:103C400004D094F83D00002510B106E0012070BDBD
:103C500084F83C50204600F023F8242084F83D00EE
:103C60002068C16821F40051C160204600F062FE66
:103C70002068016921F4904101612068416921F0C7
:103C80002A0141612068C16841F40051C160256486
:103C9000202084F83D0084F83E00002070BD000024
:103CA00010B586B0044614216846FCF77BFC184921
:103CB0002068884229D117480021026842F010028A
:103CC0000260006800F01000059012481438026885
:103CD00042F001020260006800F0010005904FF41C
:103CE000C06000900220CDE901010320039007206D
:103CF000049069460848FEF771FA00221146252013
:103D0000FEF7D0FB2520FEF7BFFB06B010BD00007C
:103D1000001001404438024000000240704700009B
:103D20002DE9F843044690F83D001F4616460D461F
:103D300020284CD1C5B1BEB194F83C00012846D032
:103D4000012084F83C004FF00008C4F84080212096
:103D500084F83D00FEF738FBA6848146E684A0681F
:103D6000B0F5805F03D004E00120BDE8F88320694E
:103D700028B12E465FF0000584F83C800EE0002656
:103D8000FAE78021204600F05BFEA0B9AEB116F83C
:103D9000010B21684860E08C401EE084E08C4B46BB
:103DA0004FF0000200970028EBD14FF04001204671
:103DB00000F046FE30B10320D7E735F8020BC0F320
:103DC0000800E6E7202084F83D000020CDE702202F
:103DD000CBE77047FEE70000F0B500230A2430254A
:103DE00037261F4611E000BFB4EB107F02D905EB68
:103DF000107C01E006EB107C01F813C001EB430CD2
:103E000000015B1C8CF80170DBB29342ECD3F0BD77
:103E10002DE9FF4100244348009401940294404955
:103E20000394016001254FF480310561C0E901145C
:103E3000057680F820403C49C0E90A144FF00A0892
:103E4000C0F81C80C46080F830404561FDF7A6FED4
:103E500008B1FDF74BFD03268DE870006946314837
:103E6000FDF746FD08B1FDF741FD0227CDE90057FA
:103E700069462C48FDF73CFD08B1FDF737FDCDE95B
:103E8000007669462748FDF733FD08B1FDF72EFDA2
:103E900000960426694623480196FDF729FD08B1DE
:103EA000FDF724FD0096052669461E480196FDF79C
:103EB0001FFD08B1FDF71AFD009606266946194850
:103EC0000196FDF715FD08B1FDF710FD00960726D8
:103ED000694614480196FDF70BFD08B1FDF706FD94
:103EE0000820CDE9006069460E48FDF701FD08B1E4
:103EF000FDF7FCFC0920CDE9004069460948FDF7C3
:103F0000F7FC08B1FDF7F2FCCDE900586946054819
:103F1000FDF7EEFC002801D0FDF7E8FCBDE8FF81CD
:103F200000200140200200200100000F074910B5C9
:103F3000054808600846FDF74BFF002803D0BDE8A0
:103F40001040FDF7D3BC10BD00300240000000203F
:103F5000094808B5016841F4800101600068002249
:103F600000F48000009011463820FEF79BFABDE86F
:103F700008403820FEF788BA30380240F0B587B0E4
:103F800014216846FCF70EFB21480024016841F02B
:103F900004010160016801F004010591016841F02C
:103FA00080010160016801F080010591016841F024
:103FB00001010160016801F001010591016841F012
:103FC000020101600068134E00F002004FF400553A
:103FD0000590002229463046FEF7F0F90E4F0022E8
:103FE00004213846FEF7EAF900950125CDE9015490
:103FF000694630460394FEF7F1F804200090CDE9BD
:104000000154694638460394FEF7E8F807B0F0BD5E
:1040100030380240000802400004024010B592B05F
:1040200000240F941C2168461094FCF7BBFA202151
:1040300007A8FCF7B7FA27482549C0E900144FF64E
:10404000FF71C0E90241046144618461FFF793FBA1
:1040500008B1FDF74BFC0F940FA91E481094FFF711
:10406000CDF908B1FDF742FC009401940294039449
:10407000049405940022694616480694FFF752FB03
:1040800008B1FDF733FC042269461248FFF74AFBEA
:1040900008B1FDF72BFC082269460E48FFF742FBEA
:1040A00008B1FDF723FC0794089409944FF40050DD
:1040B0000A94CDE90B4007A906480E94FFF774F95E
:1040C00008B1FDF713FC0348FFF79EFA12B010BDCC
:1040D00000000140C802002010B58EB000240794F3
:1040E000089409940A940B941C2168460C94FCF7DC
:1040F00059FA22484FF0804101603121C0E9011492
:1041000048F23F31C0E903148461FFF7B5F908B103
:10411000FDF7ECFB4FF48050079007A91748FFF715
:1041200005FA08B1FDF7E2FB1448FFF7CBFB08B135
:10413000FDF7DCFB0B940BA910480C94FFF75EF91C
:1041400008B1FDF7D3FB6020CDE900040294002202
:1041500069460A480494FFF74FFB08B1FDF7C6FB18
:10416000042269460548FFF747FB08B1FDF7BEFB8F
:104170000248FFF749FA0EB010BD000010030020FE
:1041800010B58EB000240794089409940A940B94F7
:104190001C2168460C94FCF705FA2248204901606E
:1041A0003121C0E9011448F23F31C0E903148461B0
:1041B000FFF762F908B1FDF799FB4FF480500790C3
:1041C00007A91848FFF7B2F908B1FDF78FFB1548AA
:1041D000FFF778FB08B1FDF789FB0B940BA9114899
:1041E0000C94FFF70BF908B1FDF780FB6020CDE9D7
:1041F00000040294002269460A480494FFF7FCFA7E
:1042000008B1FDF773FB042269460648FFF7F4FA8C
:1042100008B1FDF76BFB0348FFF7F6F90EB010BDD0
:10422000000400405803002010B58EB0002407940D
:10423000089409940A940B941C2168460C94FCF78A
:10424000B1F92A48284901603121C0E9011448F236
:104250003F31C0E903148461FFF70EF908B1FDF79F
:1042600045FB4FF48050079007A92048FFF75EF9FF
:1042700008B1FDF73BFB1D48FFF724FB08B1FDF734
:1042800035FB0B940BA919480C94FFF7B7F808B14C
:10429000FDF72CFB6020CDE9000402940022694662
:1042A00012480494FFF7A8FA08B1FDF71FFB042297
:1042B00069460E48FFF7A0FA08B1FDF717FB082280
:1042C00069460A48FFF798FA08B1FDF70FFB0C2280
:1042D00069460648FFF790FA08B1FDF707FB034867
:1042E000FFF792F90EB010BD00080040A0030020B7
:1042F0000C4810B50A4901604FF4E13141600021DA
:1043000081600C22C160C0E904128161C161FFF7C4
:1043100095FC002803D0BDE81040FDF7E7BA10BDBA
:1043200000100140E803002010B500220F4910489A
:1043300000F0ADFE08B1FDF7D9FA0E490C4801F0C6
:1043400099F808B1FDF7D2FA0B49094800F0B9FC19
:1043500008B1FDF7CBFA064801F006F9002803D0B2
:10436000BDE81040FDF7C2BA10BD000008000020F3
:104370002C0400205801002058000020FEE7FEE732
:104380000148FEF70FBA0000EC1200202DE9F041C1
:1043900003680D4604461E6C03EB4511D1F8080B6B
:1043A000D4F810E04FF400474FF0200C04F5717280
:1043B000BEF1010F09D0DFF898E0764539D102044B
:1043C00032D500BFC1F8087B3FE0224B5FEA007E98
:1043D00004D59E4239D90004F4D436E05FEA806EF9
:1043E00002D5C1F808CB30E010F0280F2DD19E4245
:1043F00001D90004E6D4C5EBC50004EB8000D1F878
:10440000101BD0F80432C1F31201591AC0F814126B
:10441000D0F808121944C0F8081295B9D4F810025F
:1044200078B9012120680AE080060AD5C1F808CBD6
:1044300007E035B9D4F8100218B90021184601F088
:1044400063FCE9B22046FEF793F80020BDE8F08156
:104450000A31544F0A30544F2DE9F84F0E46C1EB44
:10446000C60100EB810481460568D4E914103C3490
:10447000884202D90120BDE8F88F081AA16881425C
:1044800000D20846C01C870805EB46181BE000BF99
:10449000A0EB010AA068504500D282460AF1030051
:1044A000870899F8100000901FFA8AF3F2B22846A4
:1044B000E16801F0E1FEE16801EB0A00E060A1695A
:1044C00001EB0A00A061D8F8180980B2B84205D300
:1044D000D4E90501814201D20028D9D1D4E90501EE
:1044E000884208D806F00F0101208840D5F834181A
:1044F0008143C5F834180020BDE770477047017844
:10450000407841EA00207047FDF764BF30B593B0B2
:1045100030216846FCF746F814210CA8FCF742F855
:104520001E480024016841F080510160006800F0DD
:10453000805011901A48016821F4404141F4004133
:1045400001600068022500F44040119001200090B5
:10455000000401908001CDE90650192008904FF425
:10456000A870099004200A9007200B906846FEF777
:1045700051FD08B172B6FEE70F20CDE90C054FF4EE
:104580008050CDE90E4002210CA81094FEF750FC9B
:10459000002801D072B6FEE713B030BD40380240AB
:1045A000007000400248016841F4700101607047EA
:1045B00088ED00E0F0B502681D4B1E4C9F031E4DB8
:1045C0001E4E984207D0B84205D0A04203D0A84260
:1045D00001D0B04204D122F0700C4A6842EA0C02C9
:1045E000984210D0B8420ED0A0420CD0A8420AD0B7
:1045F000B04208D0124CA04205D0124CA04202D0CA
:10460000114CA04203D122F44074CA6822434C6981
:1046100022F08002224302608A68C2620A688262D3
:10462000984201D10969016301214161F0BD000097
:10463000000001400004004000080040000C004061
:1046400000400140004401400048014010B501F025
:104650001F030121046A99408C430462016A9A4055
:104660001143016210BD10B5846842EA032224F4AC
:104670007F440A432243826010BD826822F07002A8
:104680000A4342F0070181607047000030B5026ABA
:1046900022F001020262026A4368846924F0730511
:1046A0000C682C4322F002058A682A430A4DA8426E
:1046B0000BD122F00805CA6823F440732A434D69E0
:1046C00022F004021D438B692B43436084614968D7
:1046D0004163026230BD00000000014030B5026A53
:1046E00022F010020262026A436884690D6824F4B1
:1046F000E64444EA05248D6822F0200242EA0512CD
:104700000B4DA8420ED1CD6822F0800242EA05127C
:104710004D6923F4406343EA85038D6922F040022A
:1047200043EA85034360846149688163026230BD66
:104730000000014030B5026A22F480720262036A0E
:104740004268C46923F4007324F073050C682C4399
:104750008D6843EA05230C4DA8420ED1CD6823F4A1
:10476000006343EA05234D6922F4405242EA0512F0
:104770008D6923F4806342EA05124260C46149688E
:10478000C163036230BD00000000014030B5026A21
:1047900022F480520262046A4268C3690D6823F4FD
:1047A000E64343EA05238D6824F4005444EA0534C3
:1047B000064DA84204D14D6922F4804242EA851296
:1047C0004260C36149680164046230BD0000014079
:1047D00010B5036A046A24F001040462846924F0B9
:1047E000F00444EA021423F00A020A4384610262DC
:1047F00010BD10B5036A23F0100303628369046AD5
:1048000023F4704343EA023224F0A00343EA011187
:104810008261016210BD10B5806B0021C185C18429
:10482000FFF7D7F810BD01680C3151E8002F22F4D2
:10483000907241E80023002BF5D10168143151E852
:10484000002F22F0010241E80023002BF5D1016B7B
:10485000012909D101680C3151E8002F22F0100222
:1048600041E80023002BF5D1202180F83E100021E3
:104870000163704708B590F83E10222901D002204C
:1048800008BD82684FF480539A4201D1016921B179
:10489000816A9A421BD04AB10AE00268816A526872
:1048A000C2F308020A80816A891C08E0026972B1B9
:1048B0000268526802F07F020A70816A491C8162B4
:1048C000C18D491E0904090CC18503D019E0026895
:1048D0005268F1E70168CA6822F02002CA600168E4
:1048E000CA6822F48072CA6001684A6922F0010233
:1048F0004A61202180F83E10016B012903D0FFF7A7
:104900000DFA002008BD0021016301680C3151E857
:10491000002F22F0100241E80023002BF5D101689E
:104920000A68D20602D50A6849680091818DFFF7AE
:104930004FF8E6E770B5044600680169E26821F4C3
:104940004051114301612169A068E269084361692E
:10495000114308432168CA6849F20C639A43024331
:10496000CA6020684169A26921F440711143416124
:1049700031492068884202D03049884202D1FEF78E
:1049800007FB01E0FEF7F4FAE26900231921642530
:104990003226B2F5004F626828D0A0FB0101930FC8
:1049A0009200FBF793FC0146B0FBF5F06FF01802A4
:1049B000504301EB800006EB0010B0FBF5F000F077
:1049C000F002B1FBF5F002EB0012B1FBF5F06FF075
:1049D0001803584301EB800006EB0010B0FBF5F024
:1049E00000F00F0021681044886070BDA0FB010139
:1049F00092185B41FBF76AFC0146B0FBF5F002013F
:104A0000B1FBF5F06FF01803584301EB800006EBA3
:104A1000C000B0FBF5F000F0F80002EB4002B1FB83
:104A2000F5F0584301EB800006EBC000B0FBF5F059
:104A300000F00700D6E7000000100140001401401C
:104A40002DE9F041984617460E460446069D27E09C
:104A5000681C25D02DB1FDF7B7FCA0EB0800A842DB
:104A60001ED920680C3050E8001F21F4D07140E8B6
:104A70000012002AF5D12068143050E8001F21F000
:104A8000010140E80012002AF5D1202084F83D0001
:104A900084F83E00002084F83C000320BDE8F0814B
:104AA0002068006836EA000004D00020B842CFD069
:104AB0000020F3E70120F9E70148FEF78BBF000073
:104AC000E80300202DE9F0410C46D0F8C422D0F8CC
:104AD000BC12F9B104EB840300EB83050026AB693B
:104AE0004BB1C4EBC40702EB8702526CB3FBF2F785
:104AF00002FB173282B1C1F81462D0F8C002036918
:104B00002BB1D1F80802224601F504719847002024
:104B1000BDE8F0810320FBE700231A462146AE6181
:104B200000F089FCF3E770B5D0F8BC4205466CB1E3
:104B300000F06AFBC4F80C02D5F8C012D4F80402E5
:104B4000CA6804F503719047002070BD032070BD52
:104B500070B50446812100F0B6FA002525870121B1
:104B6000204600F0B0FAA4F878518221204600F0E7
:104B7000AAFAA4F84C50A4F84E50D4F8BC0248B19C
:104B8000D4F8C00204F52F7440688047206800F014
:104B900040FE2560002070BD10B5D0F8BC4284B145
:104BA000D0F8C01259B194F80002FF2807D08B68E2
:104BB00094F8012221469847FF2084F80002002043
:104BC00010BD032010BD00000A210180004870477D
:104BD000800000204321018000487047D000002061
:104BE00043210180004870478C0000204321018050
:104BF00000487047140100202DE9F04704464FF4A7
:104C0000077000F007FE05004FF0000735D0C4F82C
:104C1000BC52207C4FF010084FF40079012680B37D
:104C2000402302228121204600F052FB26874023A8
:104C300002220121204600F04BFBA4F87861A4F881
:104C40004E80082303228221204600F041FBA4F875
:104C50004C60D4F8C00200688047C5F81472C5F8EB
:104C60001872207CD5F80422A8B1402301212046E7
:104C700000F03AFB0020BDE8F0870220C4F8BC72C7
:104C8000F9E7FFE74B4602228121204600F020FB96
:104C900026874B46CCE74B46E8E710B5D0F8BC1268
:104CA00051B1027C002AD1F8042207D0402301210F
:104CB00000F01AFB002010BD032010BD4FF400735C
:104CC000F5E719B1C0F8C012002070470320704703
:104CD000D0F8BC0218B1C0F80412002070470320BD
:104CE0007047D0F8BC0228B1C0F81022C0F80812F2
:104CF00000207047032070472DE9FC410646D0F89C
:104D0000BC7200200C468DF80000ADF8040005468A
:104D100037B1207810F0600128D0202944D102E07A
:104D20000320BDE8FC81E288C2B1000660780AD5A4
:104D3000D6F8C0128B6839469847E288072A00D90E
:104D40000722394628E087F80002A07987F8010297
:104D5000E2883946304600F051F82AE0D6F8C01211
:104D6000607800228B682146984722E0607830B155
:104D700001281ED00A2809D00B2815D110E096F87A
:104D80009C02032810D1022201A905E096F89C029A
:104D9000032809D101226946304600F049F808E0AD
:104DA00096F89C02032804D02146304600F01BF8F8
:104DB00003252846B5E710B5D0F8B8220AB15268E5
:104DC0009047002010BD134610B50A46002100F0A0
:104DD0008BFA002010BD134610B50A46002100F0E2
:104DE0002AFB002010BD10B50446802100F008FB0E
:104DF0002046BDE81040002100F002BB10B503239F
:104E0000C0F89432C0F858211346C0F85C210A4615
:104E1000002100F069FA002010BD10B50521C0F88E
:104E2000941200231A46194600F05EFA002010BDC5
:104E300010B50223C0F8943282611346C2610A465B
:104E4000002100F0F8FA002010BD10B50421C0F8D0
:104E5000941200231A46194600F0EDFA002010BD06
:104E600010B50A46024903A000F0E1F8004810BD61
:104E7000FC06002043444320436F6E6669670000D0
:104E800012200880004870472800002010B50A460C
:104E9000024903A000F0CBF8004810BDFC0600203A
:104EA00043444320496E7465726661636500000087
:104EB00004200880004870472400002010B50A46EE
:104EC000024903A000F0B3F8004810BDFC06002022
:104ED00053544D6963726F656C656374726F6E696C
:104EE0006373000010B50A46024903A000F09FF862
:104EF000004810BDFC06002053544D333220566943
:104F0000727475616C20436F6D506F727400000095
:104F100010B51A2008800A480168001D0468001DA9
:104F20000068081809D008220649FEF755FF054910
:104F3000042210312046FEF74FFF0248801E10BDAC
:104F4000107AFF1F3E000020F8B504460020ADF89F
:104F5000000048880D46010A08295FD2DFE801F009
:104F60005E0409175E5E3C45D4F8B412207C0A68E2
:104F700019E0207C02260028D4F8B80205D0C16AC6
:104F8000684688470146467039E0816AF8E7C0B252
:104F9000062843D2DFE800F0030A1014181CD4F8E6
:104FA000B402426805E0694690471CE0D4F8B402B8
:104FB000826892B3207CF6E7D4F8B402C268F8E7BE
:104FC000D4F8B4020269F4E7D4F8B4024269F0E715
:104FD000D4F8B4028269ECE7207CF0B9D4F8B802C6
:104FE000416B68468847014609E0207CA8B9D4F89F
:104FF000B802016B68468847014607204870EA8876
:105000008AB1BDF8000040B1824200D90246ADF835
:1050100000202046FFF70CFFF8BDFFE72946204699
:10502000FFF7E1FEF8E72046FFF70FFFF4E770B562
:10503000002300281ED00025044602E06D1CEDB2BE
:10504000641C2678002EF9D1022404EB4504148058
:105050001278CA545B1C0322CA5400245B1C06E06D
:10506000CA545B1CDAB28C54521CD3B2401C027876
:10507000002AF5D170BD01004FF0000004D00129D5
:1050800001D0022901D0032070470120704778B178
:105090000023C0F8B832C0F8C032C0F8CC3209B131
:1050A000C0F8B412012180F89C12027000F0B0B870
:1050B0000320704710B5D0F8C402FDF78DFABDE8A3
:1050C0001040FFF7D8BF10B5D0F8C402FDF75EFA64
:1050D000BDE81040FFF7CFBF70B51646044621B1BA
:1050E00094F89C02032841D048E0D4F8941204F1CB
:1050F00014000025022932D1D0E902318B4206D9B1
:105100005A1A826031462046FFF765FE0FE0994249
:1051100014D14068884211D3D4F8981288420DD235
:10512000002211462046FFF756FEC4F8985200238D
:105130001A461946204600F0D7F810E094F89C0271
:10514000032805D1D4F8B802C16809B120468847C0
:105150008021204600F054F92046FFF75EFE94F8C7
:10516000A00201280AD184F8A05207E0D4F8B802BE
:1051700042691AB120469047002800D1002070BD36
:1051800010B51346044621B194F89C02032823D09D
:105190002AE0D4F8941204F5AA70032924D1D0E9A6
:1051A000021291420AD98A1A8260C068824200D3F0
:1051B000024619462046FFF706FE15E094F89C02C9
:1051C000032805D1D4F8B802016909B120468847FF
:1051D0002046FFF73AFE07E0D4F8B80282691AB118
:1051E00020469047002800D1002010BD00207047C5
:1051F00010B5012180F89C12D0F8B82212B1526883
:1052000001799047002010BDD0F8C402FDF712BA12
:1052100010B5017839BB15490222C1F80404C0F861
:10522000C4124FF0A0400860042048600020C1E98B
:105230000320C1E9062008624862C8620863084684
:10524000FDF7D2FC08B1FCF751FB80210748FDF7C0
:105250005CF9402200210548FDF75BF9802201211D
:105260000248FDF756F9002010BD0000EC120020A6
:105270000A0601F07F01D0F8C402C1EBC10100EBC6
:10528000810002D590F83E00704790F8FE0170470B
:1052900010B5D0F8B82222B190F89C32032B02D07E
:1052A00004E0032010BD126A02B19047002010BD37
:1052B00010B5D0F8B82222B190F89C32032B02D05E
:1052C00004E0032010BD526A02B19047002010BDD7
:1052D00010B51C461346D0F8C4022246FDF7B3F9B8
:1052E000BDE81040FFF7C7BE10B5D0F8C402FDF707
:1052F000DAF9BDE81040FFF7BEBE70B501250446DF
:1053000080F89C520020C4F894026060C4F8A402A3
:10531000D4F8B802E0B1D4F8BC1221B1426812B19D
:105320000021204690470022402311462046FFF7E7
:10533000CFFF4026A4F86451334600228021204646
:10534000C4F86061FFF7C4FFA5840020266270BD29
:10535000032070BD90F89C12042903D190F89D128F
:1053600080F89C120020704710B5D0F8B81221B117
:1053700090F89C22032A02D004E0032010BDC969E2
:1053800001B18847002010BD01740020704710B59E
:10539000D0F8C402FDF7F7FCBDE81040FFF76BBE84
:1053A00070B5044600F2AA20054600F04DF8012031
:1053B000C4F89402B4F8B002C4F8980294F8AA02AF
:1053C00010F01F010AD001290ED0022912D000F0DE
:1053D00080012046BDE8704000F012B82946204602
:1053E000BDE8704000F0C2B829462046BDE87040D4
:1053F00000F0E6B929462046BDE8704000F040B90B
:1054000010B5D0F8C402FDF772F9BDE81040FFF7FF
:1054100032BE10B5D0F8C402FDF7D0FCBDE8104094
:10542000FFF729BE90F89C1280F89D12042180F8A5
:105430009C120020704710B5D0F8C402FDF791F916
:10544000BDE81040FFF717BE70B5054611F8010B17
:105450002870087868704C1C2046FFF750F8688068
:10546000A41C2046FFF74BF8A880A01CFFF747F8C4
:10547000E88070BD38B504460020ADF8000049B1A1
:10548000C4F8B812C96A19B168468847C4F8CC0292
:10549000002038BD032038BD02460320D2F8B832C0
:1054A000002B02D01B681046184770472DE9F041C9
:1054B0000F462C4E8978002504463170012906D903
:1054C00039462046FFF78FFC0320BDE8F08194F8B1
:1054D0009C0202280CD003281DD039462046FFF735
:1054E00082FC31782046FFF766FC03252846ECE76E
:1054F00099B320466160FFF7CFFF050004D039461D
:105500002046FFF770FCF1E72046FFF79EFC0320E2
:1055100084F89C02EAE74FF00208C1B16068884253
:105520001BD0C1B22046FFF746FC317820466160AF
:10553000FFF7B2FF050010D039462046FFF753FCB5
:1055400021792046FFF737FC84F89C82CEE784F867
:105550009C8220466160FFF72EFC2046FFF775FC19
:10556000C4E700007C000020FFF753BF2DE9F041A5
:105570000A78002512F0600208D0202A01D0402AC3
:1055800071D1D0F8B8229268904731E04B78002270
:1055900001260A2B67D2DFE803F0415E66586608F1
:1055A00005662D29FFF7D0FC5FE004468888D8B94E
:1055B000C888C8B94888802816D200F07F0794F8B8
:1055C0009C02032810D084F89E7239462046FFF7CB
:1055D000DEFE2046FFF739FC1FB1022084F89C0252
:1055E00043E084F89C6240E020463CE0FFF75EFF29
:1055F00005463AE0CB88012B35D190F89C32012B3F
:1056000004D0022B02D0032B2DD104E082600122B2
:1056100000F1080116E00122011D13E090F89C2220
:10562000012A03D0022A01D0032A1CD1CA88022AE7
:1056300019D1C660D0F8A41209B10321C1600222B9
:1056400000F10C01FFF7F4FB0FE0498801290CD1B0
:10565000C0F8A46211E090F89C32012B08D0022B14
:1056600006D0032B04D0FFF7BEFB2846BDE8F0812F
:1056700049880129F9D1C0F8A422FFF7E6FBF4E735
:105680002DE9F0410D46044628780026097910F0EE
:1056900060000BD0202801D040286DD1D4F8B8028A
:1056A0002946826820469047064686E06878A8B377
:1056B000012822D003287CD194F89C02022802D031
:1056C000032876D10BE0002973D0802971D02046C1
:1056D000FFF796FE80212046FFF792FE6DE0688876
:1056E00038B931B1802904D0E88810B92046FFF7D5
:1056F00087FE2046FFF7A9FB5FE094F89C02022892
:10570000E1D0032855D16888A8BB480602D02046BE
:10571000FFF7D0FC2046FFF798FBBFE7FFE794F8C0
:105720009C020027022802D0032842D111E009B1CF
:1057300080293ED1080601F07F0000EB800004EBD9
:10574000800101D5143101E001F5AA7102220F6038
:105750002BE0080601F00F0000EB800004EB800056
:105760000BD5808C40B101F07F0000EB800004EB92
:10577000800514350CE020E01BE0B0F86401C0B1F6
:1057800001F07F0000EB800004EB800505F5AA75B1
:1057900041B1802906D02046FFF76AFD10B10120F3
:1057A000286000E02F60022229462046FFF740FBD8
:1057B00003E029462046FFF716FB3046BDE8F0819E
:1057C00070B50646087800240D4610F0600003D03E
:1057D000202801D0402817D196F89C02012803D038
:1057E000022801D003280FD1287901280CD8D6F837
:1057F000B8028268304690470446E888204306D1C4
:105800003046FFF722FB02E03046FFF7ECFA204675
:1058100070BD704700487047CC10002070B50A7802
:10582000012302F00F054E78AB401B4CD0F81C58FA
:10583000012E17D045EA0343C0F81C3800EB421094
:10584000D0F8002B12040BD4D0F8002B0B89C978A8
:10585000C3F30A031A4344EA81410A43C0F8002B08
:10586000002070BD9BB21D43C0F81C5800EB4210D5
:10587000D0F800391B04F3D4D0F800390D89C97869
:10588000C5F30A0589042B4341EA82510B432343A4
:10589000C0F80039E4E7000000800010D0F80019DB
:1058A0006FF30A01C0F80019D0F8041841F48071B0
:1058B000C0F804180020704770B5044606990A9E87
:1058C000049D0D98012916D0E06840F04000E0608A
:1058D000204600F02BF8A16B1EB321F48031A163A8
:1058E000012D07D1A16841F00601A160A16841F036
:1058F0002001A16070BDA16B21F48031A163E1683A
:10590000094A1140E160E16821F44011E160012899
:1059100003D1E06840F48010E060204600F006F813
:10592000DEE741F48031DAE7BFFFBDFF08B50022B2
:105930000D490092009B5B1C00938B420CD80369BD
:10594000002BF7DA0092026942F001020261009A2C
:10595000521C00928A4201D9032008BD0269D20775
:10596000F5D1002008BD0000400D030030B54C7893
:105970000A78012300EB4212012C2CD0D2F8004B04
:10598000002C0BDAD2F8004B44F00064C2F8004B54
:10599000D2F8004B44F08044C2F8004BD0F83C5899
:1059A0000C7804F00F0403FA04F425EA0444C0F868
:1059B0003C48D0F81C48097801F00F018B4024EADC
:1059C0000341C0F81C18D2F8000B19490840C2F86E
:1059D000000B002030BDD2F80049002C0BDAD2F8C1
:1059E000004944F00064C2F80049D2F8004944F08C
:1059F0008044C2F80049D0F83C480D7805F00F0506
:105A000003FA05F5ADB2AC43C0F83C48D0F81C48E9
:105A1000097801F00F018B4099B28C43C0F81C4803
:105A2000D2F8000903490840C2F80009D1E7000094
:105A30000078F3EF007833ECD0F8001E21F003017A
:105A4000C0F8001ED0F8041821F00201C0F80418B4
:105A500000207047D0F8001E21F00301C0F8001E9E
:105A6000D0F8041841F00201C0F804180020704773
:105A70002DE9F04F00250E460446DDF82CC0DDF878
:105A800024B0109F2846294604EB8002C2F8041176
:105A9000401C0F28F8D32046C7B1806B20F40012B9
:105AA000A263A06B40F40022A26308468846C4F8B3
:105AB000000ED4F800182046C4F80018BCF1010FFD
:105AC00016D0D0F8001841F0030116E0D0F8040811
:105AD00040F00202C4F80428A06B40F40012A26354
