:020000040800F2
:10000000981D002075020008C7320008A12A0008C8
:10001000C53200082D070008295300080000000021
:100020000000000000000000000000004D35000846
:100030008507000800000000433400085935000817
:100040008F0200088F0200088F0200088F0200084C
:100050008F0200088F0200088F0200088F0200083C
:100060008F0200088F0200088F0200088F0200082C
:100070008F0200088F0200088F0200088F0200081C
:100080008F0200088F0200088F02000800000000A5
:100090000000000000000000000000008F020008C7
:1000A0008F0200088F0200088F0200088F020008EC
:1000B0008F0200088F0200088F0200088F020008DC
:1000C0008F0200088F0200088F0200088F020008CC
:1000D0008F020008413B00088F020008000000006A
:1000E0008F0200088F0200088F0200080000000045
:1000F0000000000000000000000000008F02000867
:10010000000000008F0200088F0200088F02000824
:1001100000000000000000000000000000000000DF
:100120008F0200088F0200088F0200088F0200086B
:100130008F02000800000000000000000000000026
:10014000000000000000000000000000C9320008AC
:100150008F0200088F0200088F0200088F0200083B
:100160008F0200088F02000800000000000000005D
:10017000000000000000000000000000000000007F
:10018000000000008F0200080000000000000000D6
:100190008F02000800F002F800F05CF80AA090E876
:1001A000000C82448344AAF10107DA4501D100F032
:1001B00051F8AFF2090EBAE80F0013F0010F18BFA3
:1001C000FB1A43F001031847207600004076000038
:1001D0000A444FF0000C10F8013B13F0070408BF6D
:1001E00010F8014B1D1108BF10F8015B641E05D00B
:1001F00010F8016B641E01F8016BF9D113F0080FC0
:100200001EBF10F8014BAD1C0C1B09D16D1E58BF51
:1002100001F801CBFAD505E014F8016B01F8016B88
:100220006D1EF9D59142D6D37047000000230024FB
:1002300000250026103A28BF78C1FBD8520728BFF6
:1002400030C148BF0B6070471FB507F06BFA1FBD88
:1002500010B510BD00F07BF91146FFF7F5FF05F072
:1002600057FD00F099F903B4FFF7F2FF03BC00F06B
:10027000A1F900000948804709480047FEE7FEE76A
:10028000FEE7FEE7FEE7FEE7FEE7FEE7FEE7FEE746
:1002900004480549054A064B70470000F53500083B
:1002A0009501000898170020981D0020981900203B
:1002B0009819002053EA020C00F069802DE9F04BF8
:1002C0004FF00006002B1FBFB3FA83F503FA05F4C5
:1002D00024FA05F65E4012BF1643B2FA82F502FA1E
:1002E00005F4C5F120051EBF22FA05FC44EA0C0402
:1002F000203556EA044C4FEA144418BF641C4FF0F2
:1003000000084FF00009904271EB030C39D300292B
:1003100019BFB1FA81F701FA07F6B0FA80F700FACF
:1003200007F6C7F120071EBF20FA07FC46EA0C06B5
:100330002037B6FBF4FCA7EB0507103F07F01F0BB7
:10034000CBF120060CFA0BFB2CFA06F644BFB346A1
:100350000026202FA4BF5E464FF0000B5BEA060C80
:1003600008BF4FF0010B19EB0B09ABFB027C48EB0C
:100370000608C01B06FB02CC0BFB03CC71EB0C0187
:10038000C1E70B46024641464846BDE8F08B13B52F
:100390004FF000004FF00001AFF30080BDE81C40BB
:1003A0007047B2F120030AD5C2F1200301FA02F12D
:1003B00020FA03F300FA02F041EA0301704700FA61
:1003C00003F14FF000007047032A40F2308010F034
:1003D000030C00F0158011F8013BBCF1020F6244E0
:1003E00098BF11F801CB00F8013B38BF11F8013B71
:1003F000A2F1040298BF00F801CB38BF00F8013B1E
:1004000011F0030300F02580083AC0F0088051F88D
:10041000043B083A51F804CBA0E80810F5E7121D98
:100420005CBF51F8043B40F8043BAFF30080D207B7
:1004300024BF11F8013B11F801CB48BF11F8012B83
:1004400024BF00F8013B00F801CB48BF00F8012BA6
:10045000704710B5203AC0F00B80B1E81850203A30
:10046000A0E81850B1E81850A0E81850BFF4F5AF54
:100470005FEA027C24BFB1E81850A0E8185044BFDE
:1004800018C918C0BDE810405FEA827C24BF51F84B
:10049000043B40F8043B08BF7047D20728BF31F83F
:1004A000023B48BF11F8012B28BF20F8023B48BF90
:1004B00000F8012B70474FF000020429C0F01280B1
:1004C00010F0030C00F01B80CCF1040CBCF1020F07
:1004D00018BF00F8012BA8BF20F8022BA1EB0C01DC
:1004E00000F00DB85FEAC17C24BF00F8012B00F8D2
:1004F000012B48BF00F8012B70474FF0000200B5F8
:10050000134694469646203922BFA0E80C50A0E836
:100510000C50B1F12001BFF4F7AF090728BFA0E8E4
:100520000C5048BF0CC05DF804EB890028BF40F8B0
:10053000042B08BF704748BF20F8022B11F0804FF2
:1005400018BF00F8012B7047704770477047754619
:1005500000F02CF8AE4605006946534620F007002F
:10056000854618B020B5FFF793FEBDE820404FF058
:1005700000064FF000074FF000084FF0000B21F08D
:100580000701AC46ACE8C009ACE8C009ACE8C0095A
:10059000ACE8C0098D46704710B50446AFF3008043
:1005A0002046BDE81040FFF75EBE000000487047DF
:1005B0003417002001491820ABBEFEE726000200D8
:1005C0007047000000B585B002287CD1534948200F
:1005D00002F038FF51494920103102F033FF4F49F2
:1005E0004A20203102F02EFF4C494B20303102F0DE
:1005F00029FF4A49D1ED000A9FED490AA1F14000C7
:1006000000F1700280EE801AF6EE000A21EE201A48
:1006100080ED001AD1ED011A81EE801A21EE201A28
:1006200080ED011AD1ED021A81EE801A21EE201A16
:1006300080ED021AD1ED031A103181EE801A21EEFD
:10064000201A80ED031AD1ED001A81EE801A21EEF6
:10065000201A80ED041AD1ED031A81EE801A21EEE2
:10066000201A80ED051AD1ED011A81EE801A21EED3
:10067000201A80ED061AD1ED021A103181EE801A8F
:1006800021EE201A80ED071A91ED001A80ED081A6C
:10069000D2ED001A81EE801A21EE201A80ED0D1A9B
:1006A00091ED011A80ED091A92ED011AC1EE001ABE
:1006B00021EEA00A80ED0C0A91ED020A80ED0A0AF3
:1006C00091ED030A00E027E0F2EE040A80EE201A22
:1006D00080ED0B1A92ED020A80ED0E0A92ED030AEC
:1006E00080ED0F0A0F48C18D0C49828D803168461C
:1006F00006F020FB094A0C49403A684606F05CF8CF
:1007000006494FF47A7340228031064802F06EF9B0
:10071000002801D072B6FEE705B000BDF40100204C
:1007200000004C4228040020B8770008FEE70020B3
:10073000704700207047704710B5002204490548F3
:1007400003F013FB0449034803F006FB002010BD2F
:10075000240D00206C0400203C09002070B50D46DB
:1007600004460146054803F0F7FA044803F0D9FAB5
:1007700029462046FFF7DFFF002070BD6C040020F3
:1007800000207047704700002DE9F05F0F462DED07
:10079000028B0CA9154691E8000F1E4680B206F0A8
:1007A000F9FC9FED4D8B53EC182B06F043FD41EC0B
:1007B000100B04F0CDFD51EC100B06F0A5FC484CDD
:1007C00080B221684863B8B206F0E4FC53EC182B01
:1007D00006F030FD41EC100B04F0BAFD51EC100BAB
:1007E00006F092FC216880B28863A8B206F0D2FCC1
:1007F00053EC182B06F01EFD41EC100B04F0A8FD85
:1008000051EC100B06F080FC364C80B22168486336
:10081000B0B206F0BFFC53EC182B06F00BFD41EC18
:10082000100B04F095FD51EC100B06F06DFC2168E7
:1008300080B288631FFA88F006F0ACFC53EC182BEA
:1008400006F0F8FC41EC100B04F082FD51EC100BAB
:1008500006F05AFC244C80B2216848631FFA89F0E4
:1008600006F098FC53EC182B06F0E4FC41EC100B5E
:1008700004F06EFD51EC100B06F046FC216880B2CE
:1008800088631FFA8AF006F085FC53EC182B06F0FB
:10089000D1FC41EC100B04F05BFD51EC100B06F0A9
:1008A00033FC216880B2C8631FFA8BF006F072FC3B
:1008B00053EC182B06F0BEFC41EC100B04F048FD85
:1008C00051EC100B06F020FC216880B20864BDECEE
:1008D000028BBDE8F09F0000E17A14AE47E1FA3FD9
:1008E0005003002098030020E003002072B6FEE7CA
:1008F00010B5040002D0607910B106E0012010BDEF
:1009000000202071204600F005F8012060710020D1
:1009100010BD000008B500680649884208D10648A5
:10092000016841F480510160006800F4805000903B
:1009300008BD000000300240303802402DE9F0418F
:100940000446876D00F05EF9064694F835000025F0
:10095000022806D08020606584F834500120BDE86C
:10096000F0812068016821F016010160206841696A
:1009700021F080014161206C08B9A06C20B1206891
:10098000016821F0080101602068016821F001017F
:1009900001600CE000F036F9801B052807D9202003
:1009A0006065032084F8350084F83450D7E7206868
:1009B0000068C007EED194F85C103F208840B86012
:1009C000012084F8350084F834500020C7E790F8FF
:1009D0003510022903D0802141650120704705218F
:1009E00080F835100068016821F0010101600020E5
:1009F0007047000070B5044600F004F90546601C1D
:100A000002D004480078044400F0FCF8401BA042E7
:100A1000FAD370BD700000202DE9F84FDFF8B8A1BF
:100A2000002201240AF1040B03254FF00F090BF1FA
:100A3000040E00BF0B6804FA02F63340B34273D1D0
:100A40000F7907F00307012F01D0022F16D1876815
:100A50004FEA420805FA08FC27EA0C07D1F80CC057
:100A60000CFA08FC4CEA070CC0F808C04768B7430A
:100A70000E79C6F3001696403E4346600E79F64363
:100A8000B6070DD0C768560005FA06FC27EA0C0722
:100A9000D1F808C00CFA06FC4CEA070CC0F80CC0F0
:100AA0000E7906F00306022E10D1D60800EB860858
:100AB000D8F8206057074FEAD76C09FA0CF7BE4305
:100AC0000F6907FA0CF73743C8F8207006684FEA39
:100AD000420C05FA0CF7BE430F7907F0030707FA3B
:100AE0000CF7374307604E6816F4403F6DD03B4E1D
:100AF000376847F480473760366822F0030706F40A
:100B000080460096364E07EB060CDCF8086897071F
:100B10003F0F09FA07F826EA0806DFF8C8804045C3
:100B200003D14FF000081EE04FE0DFF8BC804045E5
:100B300002D14FF0010816E0DFF8B080404502D145
:100B40004FF002080FE0DFF8A880404502D14FF0D7
:100B5000030808E0DFF89C80404502D14FF004080C
:100B600001E04FF0070808FA07F848EA0608CCF851
:100B70000888DAF800605746D1F804C09E435FEA5F
:100B8000CC3C00D51E433E60DBF800605F46D1F8E8
:100B900004C09E435FEA8C3C00D51E433E60DEF8F5
:100BA00000607746D1F804C09E435FEACC2C00D5A4
:100BB0001E433E60084F0C373E68D1F804C09E4388
:100BC0005FEA8C2C00D51E433E60521C102AFFF4B5
:100BD00031AFBDE8F88F0000003C014044380240CE
:100BE00000300140000002400004024000080240C2
:100BF000000C0240001002400AB1816170470904F4
:100C0000FBE700000148806870470000700000208A
:100C100070B5040025D094F83D00002520B984F873
:100C20003C50204600F03EFA242084F83D00206825
:100C3000016821F0010101602068016841F4004170
:100C400001602068016821F40041016001F02CF886
:100C50004D4A6168914201D84C4900E04C498842B4
:100C600001D2012070BD4B492368B0FBF1F15E68F1
:100C700026F03F060E435E606368934206D94FF448
:100C8000967359434FF47A73B1FBF3F12368491C0F
:100C90001E6A26F03F06314319626168914210D8FE
:100CA0004900401EB0FBF1F2521CC2F30B02042AB1
:100CB00001D2042022E0B0FBF1F0401CC0F30B0095
:100CC0001CE0A268F2B301EBC10303EB0116431E63
:100CD000B3FBF6F35B1C43F480431B0549D092B38E
:100CE00001EBC10202EB0111401EB0FBF1F0401C10
:100CF000C0F30B0040F4804040F400402168CA6912
:100D00004CF6FF739A431043C861D4E907100143BE
:100D10002068026822F0C00211430160D4E9030197
:100D200001432068826848F2FF339A43114381608F
:100D3000D4E9050108432168CA6822F0FF02104384
:100D4000C86001E00EE016E02068016841F0010192
:100D500001602564202084F83D00256384F83E501E
:100D6000002070BD01EB4106431EB3FBF6F35B1C94
:100D7000B3E70120C2E701EB4101401EB0FBF1F0F7
:100D8000401CC0F30B00B7E7A086010080841E0062
:100D900000093D0040420F002DE9F84F1F469046E4
:100DA0008A460446DDF82890FFF72CFF054694F8A4
:100DB0003D00202875D1192301226C492046009559
:100DC00001F070FF0028F5D194F83C00012868D0AC
:100DD000012084F83C0020680168C90703D101683C
:100DE00041F0010101602068016821F400610160A7
:100DF000222084F83D00102084F83E00002626645E
:100E0000C4F824806785608D20855948E0622B46B0
:100E10004A465146204601F05BFE002878D1208DDD
:100E2000544F68B1012814D002282068016816D0F8
:100E300041F480610160206841698069009087E029
:100E40002068416981690091016841F40071016085
:100E50007EE02068016821F480610160F0E721F400
:100E6000806101602068016841F40061E2E70328C5
:100E700048D801280AD0022814D04B46002239460F
:100E80002046009501F00EFFD8BB27E02A464946D0
:100E9000204601F086FFA0BB20680069616A0870E7
:100EA0004DE061E04B46002239462046009501F0B6
:100EB000F9FE30BB2068016841F4007101602068D0
:100EC0000069616A0870606A401C6062218D491E79
:100ED0002185618D491E618521682EE020680168A9
:100EE00021F48061016020680069616A0870606AAD
:100EF000401C6062208D401E2085608D401E6085F4
:100F0000D0E705E02A464946204601F04AFF10B1E5
:100F10000120BDE8F88F20680069616A0870606A86
:100F2000401C6062218D491E2185618D491E6185AD
:100F300021684A69D24352070AD409690170606A7C
:100F4000401C6062208D401E2085608D401E6085A3
:100F5000208D00288BD1202084F83D0084F83E604D
:100F600084F83C600020D4E70220D2E702001000A1
:100F70000000FFFF040001002DE9F84F1F469046D6
:100F80008A460446DDF82890FFF73CFE054694F8B3
:100F90003D0020287FD11923012240492046009599
:100FA00001F080FE002876D194F83C00012872D030
:100FB000012084F83C0020680168C90703D101685A
:100FC00041F0010101602068016821F400610160C5
:100FD000212084F83D00102084F83E00002626647D
:100FE000C4F824806785608D20852D48E0622B46FB
:100FF0004A465146204601F0E1FD90B9206841691A
:101000008069009036E02A464946204601F0FCFE01
:1010100050B1206C042804D12068016841F40071AB
:1010200001600120BDE8F88F606A216800780861DE
:10103000606A401C6062618D491E6185218D491E78
:1010400089B2218522685369DB435B070BD451B118
:1010500000781061606A401C6062608D401E60858F
:10106000208D401E20852A464946204601F0F4FD89
:101070000028CED1208D0028C5D154F83D0B016841
:1010800041F400710160202004F81E09E6776677BC
:101090000020C7E7FFE70220C4E7000002001000BD
:1010A0000000FFFF10B586B0044614216846FFF724
:1010B00024FA13492068884220D11248002102688E
:1010C00042F002020260006800F002000590C020B9
:1010D00000901220CDE90101032003900420049028
:1010E00069460948FFF798FC06481030016841F44A
:1010F00000110160006800F40010059006B010BDFA
:101100000054004030380240000402400248816828
:101110000278114481607047700000200B4810B5C0
:10112000016841F400710160016841F4806101606F
:10113000016841F480710160032000F06FF80F2016
:1011400000F006F800F024F8002010BD003C02403A
:1011500070B50D4D04464FF47A712878B1FBF0F06C
:101160000A490968B1FBF0F000F0A6FF48B9102C5D
:1011700007D200222146501E00F030F800206C609B
:1011800070BD012070BD0000700000207C000020B8
:101190000A4808B5016841F480410160006800F424
:1011A000804000900548001F016841F080510160B7
:1011B000006800F08050009008BD000044380240F4
:1011C000002809DB00F01F02012191404009800046
:1011D00000F1E020C0F8001170470000F0B40E4BA1
:1011E0001B680C46C3F30223C3F10705042D00D985
:1011F0000425191D072901D2002300E0DB1E01266A
:1012000006FA05F1491E214099409E40761E16407F
:101210003143F0BC04F089B80CED00E0064900F061
:10122000070208684FF6FF03184040EA0220034A0D
:1012300010430860704700000CED00E00000FA0564
:1012400070470068416200207047F0B50368586A33
:1012500039B19C6A4FF4827600EB144400204D1E95
:101260000AE040EA024098620FE006EB8007DF598F
:10127000401C04EB1744C0B2A842F6D344EA024033
:101280004FF4807202EB810158500020F0BDD0F87D
:10129000040402F0EFBFC1EBC10200EB8202D0F800
:1012A0000404926C02F05CBFC1EBC10200EB82024D
:1012B000D0F80404D2F8082202F0A6BFD0F8040443
:1012C00002F0DABF70B504460B0601F00F00C0EB68
:1012D000C00104EB81014FF001024FF0000503D57E
:1012E00081F83D203C3103E081F8FD5101F5FE71AC
:1012F000087094F8BC03012808D084F8BC23206847
:1013000003F078FB84F8BC53002070BD022070BD50
:1013100070B5044601F00F006268904201D90120C7
:1013200070BD0B0601F00F01C1EBC10104EB81019F
:101330004FF001024FF0000503D581F83D203C310C
:1013400003E081F8FD5101F5FE718D70087094F88D
:10135000BC03012808D084F8BC23206803F044FDB6
:1013600084F8BC53002070BD022070BD01F00F0155
:10137000C1EBC10100EB8100D0F8140270472DE9E8
:10138000F04104460F0601F00F00C0EBC00104EB72
:1013900081014FF001064FF0000503D581F83D6053
:1013A0003C3103E081F8FD5101F5FE7108708A605F
:1013B000CB704A7802B1C880022B00D10D7194F82D
:1013C000BC03012809D084F8BC63206803F06AFAE2
:1013D000284684F8BC53BDE8F0810220FBE770B5D5
:1013E0000C4601F00F05C5EBC50100EB8101C1F80A
:1013F0001032C1F808220023C1F8143281F8FD31FF
:1014000081F8FC51036901F5FE71012B00D10A61DD
:101410002207027C006803D003F03EFD002070BD6F
:1014200003F02AFCFAE770B504460D4601F00F0000
:101430006168884201D9012070BD29064FF000067D
:101440004FF0010207D5C0EBC00104EB810181F828
:101450003D203C3107E0C5EBC50104EB810181F87B
:10146000FD6101F5FE718A70087094F8BC030128D3
:1014700007D084F8BC23206803F0E2FC280702D0E0
:1014800007E0022070BD217C04F57172206803F032
:101490007FFC84F8BC63002070BD70B50C4601F081
:1014A0000F05C5EBC50100EB81010B658A640023C4
:1014B0004B65012381F83D3001F83C5F0369012B46
:1014C00000D10A612207027C006803D003F0E4FC2B
:1014D000002070BD03F0D0FBFAE700002DE9FC5FAF
:1014E00005680446284603F008FE00287ED12068DF
:1014F00003F02FFE002879D0206803F02AFE800731
:1015000004D52168486900F002004861206803F0B2
:1015100020FEC10604F57170009034D52068816901
:1015200021F0100181612F6A07F00F00C0EBC000AD
:1015300004EB8006C7F3434006F5FE76022802D08E
:10154000062811D01AE047F6F070074216D0C7F30C
:101550000A1217462846F16803F0FFFDF068384488
:10156000F060B069384408E008222846009903F08A
:10157000F4FDB069C7F30A110844B06120688169BD
:1015800041F010018161206803F0E3FD00034FF09A
:10159000010A4FF0080B5BD50026206803F0B8FD68
:1015A0000746DFF8689351E0F8074DD0F1B22068A4
:1015B00003F0C7FD8046C00707D005EB4611C1F810
:1015C00008AB3146204601F085FE5FEA087022D55F
:1015D00005EB4611C1F808BB2068016C00EB461012
:1015E0000191D0F8082B494507D900E08BE111049F
:1015F00003D54FF40041C0F8081B204600F073FAF1
:101600000198484507D92069012804D120680121A3
:10161000009A03F0BDFB5FEAC86004D505EB4611F4
:101620001020C1F8080B5FEA886004D505EB46116D
:101630002020C1F8080B5FEA884005D505EB46106D
:101640004FF40051C0F8081B7F08761C002FABD167
:10165000206803F07EFD40034FF000095CD5206850
:1016600003F04FFD0746002654E0F80750D0F1B2D2
:10167000206803F054FD8046C00723D006F00F0217
:101680000AFA02F0D5F834288243C5F8342805EB6D
:101690004610C0F808A9206901280FD1C6EBC60082
:1016A00004EB8000D0E911211144816436B9206D2A
:1016B00020B920680121009A03F06AFBF1B22046AC
:1016C000FFF7E9FD5FEA087003D505EB4611C1F8A5
:1016D00008B95FEAC86004D505EB46111020C1F8CF
:1016E00008095FEA486004D505EB46114020C1F8BF
:1016F00008095FEA887004D505EB46110220C1F89D
:1017000008095FEA086003D53146204601F048FE2B
:101710007F08761C002FA8D1206803F01AFD00284E
:1017200011DAD5F8040820F00100C5F8040894F88F
:10173000F403012829D0204600F0B9F92068416956
:1017400001F000414161206803F003FD00050BD565
:10175000D5F80808C00702D0204600F0EDF920684F
:10176000416901F400614161206803F0F2FCC004AA
:1017700068D5D5F8040820F00100C5F80408102148
:10178000206803F097FC002127E084F8F4930021FF
:101790002046FFF755FDD1E705EB41104FF67F32AC
:1017A000C0F80829D0F8003923F40013C0F8003934
:1017B000D0F8003943F00063C0F80039C0F8082BB6
:1017C000D0F8002B22F40012C0F8002BD0F8002B28
:1017D00042F00062C0F8002B491C60688842DBD8E8
:1017E000D5F81C0840F00110C5F81C08206B60B14A
:1017F000D5F8840840F00B00C5F88408D5F84408F3
:1018000040F00B00C5F844080CE0D5F8141842F27B
:101810002B000143C5F81418D5F8100840F00B0050
:10182000C5F81008D5F8000820F4FE60C5F80008D7
:10183000217C2068009A03F0ABFA2068416901F42A
:1018400080514161206803F084FC800415D5206834
:1018500003F068F8206803F043FCE06000F01EFA33
:101860000146227B206803F0D7FC204600F00CF9EB
:101870002068416901F400514161206803F069FC6E
:10188000000707D5204600F016F92068416901F0ED
:1018900008014161206803F05CFCC00208D500210A
:1018A000204600F035F82068416901F4801141615B
:1018B000206803F04EFC800208D50021204600F08D
:1018C0002BF82068416901F400114161206803F0A0
:1018D00040FC400007D52046FFF7D9FC206841694D
:1018E00001F080414161206803F033FC40070AD5D4
:1018F00020684568680702D52046FFF7DFFC2068AE
:10190000416829434160BDE8FC9F00000A30544F04
:10191000D0F8040402F000BDD0F8040402F00CBDBD
:101920002DE9F0418AB0040005D094F8BD03266883
:10193000002520B108E001200AB0BDE8F08184F85C
:10194000BC53204600F05EF8032084F8BD03F06B22
:10195000C00500D42561206803F088F904F1100166
:10196000282288466846FEF774FD94E80F0002F0CE
:10197000E7FF0226C8BB0021206803F00DFC002011
:1019800001270EE0C0EBC00104EB810181F83D703E
:1019900001F83C0FC880CD708D60CD60401CC0B296
:1019A0004D6161688142EDD8002011E0C0EBC001BB
:1019B00004EB810181F8FD5181F8FC0181F8FF51B0
:1019C000C1F80452C1F80852401CC0B2C1F810520C
:1019D00061688142EAD8282241466846FEF739FD0F
:1019E00094E80F0003F088F810B184F8BD63A2E713
:1019F00084F8385084F8BD73206803F06FF8002035
:101A00009AE7000010B586B0044614216846FEF738
:101A100074FD2068B0F1A04F2FD119480021026851
:101A200042F001020260006800F0010005904FF4EE
:101A3000C05000900220CDE90101032003900A204C
:101A4000049069460F48FEF7E7FF0D48001D016846
:101A500041F0800101600A481430016841F480417E
:101A600001600068002200F4804005901146432088
:101A7000FFF7B4FB4320FFF7A3FB06B010BD000047
:101A8000303802400000024070B50446C0680125AD
:101A9000022801D0FEF72AFF2946D4F8040402F0F8
:101AA000B7FCD4F80404BDE8704002F06ABCD0F87A
:101AB000040402F093BCD0F8040402F099BC10B501
:101AC000044690F8BC0301280BD0012084F8BC0325
:101AD00084F83810206803F08DFB002084F8BC03E4
:101AE00010BD022010BDD0F8042400F5717110461D
:101AF00002F09ABC10B50446006894F8BC130129A2
:101B000006D0012184F8BC13A16A012902D008E0A3
:101B1000022010BDA169012903D0816B41F48031FD
:101B20008163206803F0ACFA206802F0C9FF00204E
:101B300084F8BC0310BD000010B50446D0F80404BE
:101B400002F0B4FC2068D0F8001E41F00101C0F89A
:101B5000001E206A002804D00248016841F00601F6
:101B6000016010BD10ED00E02DE9F0470E460500C4
:101B700065D0DFF81481D8F80000F7B200F0070054
:101B8000B04207D288F80070D8F8000000F00700D3
:101B9000B04254D128683D4C810712D5400703D587
:101BA000206840F4E05020602878000703D52068C2
:101BB00040F4604020602068A96820F0F0000843ED
:101BC00020602878C0072DD030496868083901287E
:101BD00012D0022813D0032811D0096889070029E0
:101BE0002DDA216821F0030101432160FFF70AF893
:101BF000814641F2883A0EE009688903EFE70968F7
:101C00008901ECE7FEF7FEFFA0EB0901514502D97F
:101C10000320BDE8F0872068696800F00C00B0EB95
:101C2000810FEFD1D8F80010404601F00701B14212
:101C300007D90770006800F00700B04201D001200A
:101C4000E7E72878400705D52068E96820F4E050E8
:101C5000084320602878000706D52068296920F409
:101C6000604040EAC100206000F03EF82168084A68
:101C7000C1F30311515CC84006490860064800687A
:101C8000FFF766FA0020C4E7003C02400838024033
:101C9000D07700087C000020740000200148006814
:101CA000704700007C00002004480549006809686E
:101CB000044AC1F38221515CC84070477C00002077
:101CC00008380240E07700080448054900680968C0
:101CD000044AC1F34231515CC84070477C00002087
:101CE00008380240E0770008154810B5006810F089
:101CF0000C02144813D01449042A0FD0082A0ED11C
:101D00000F4C241F2268236802F03F025B0207D5B4
:101D10002068C0F38810A0FB010106E0084610BD52
:101D20002168C1F38811A1FB00010023FEF7C2FA6C
:101D30002168C1F30141491C4900B0FBF1F010BD1D
:101D4000083802400024F40040787D012DE9F84F66
:101D500004006ED02078DFF84C93C007A9F1040589
:101D60004AD009F104000168C1F38101012908D0BA
:101D70000068C0F3810002280AD1D9F800004002AF
:101D800006D52868800337D560680028E1D033E0A5
:101D90006068B0F5803F10D0B0F5A02F286810D053
:101DA00020F480302860286820F480202860606853
:101DB000A8B1FEF727FF06460DE0286840F4803002
:101DC000F4E740F480202860F7E700BFFEF71AFF31
:101DD000801B642873D828688003F7D50CE0FEF7D1
:101DE00011FF064605E000BFFEF70CFF801B6428CC
:101DF000F0D828688003F7D42078DFF8AC82800719
:101E00004FF0000A3ED5A748001D016811F00C0FE5
:101E100008D00068C0F3810002280BD1D9F8000077
:101E2000400207D42868800716D5E068012800D151
:101E300012E033E1E068B8B10120C8F80000FEF715
:101E4000E1FE064605E000BFFEF7DCFE801B02282F
:101E5000C0D828688007F7D52868216920F0F800E5
:101E600040EAC10028600DE0C8F800A0FEF7CAFEF5
:101E7000064604E0FEF7C6FE801B02281FD828682D
:101E80008007F7D42078000722D5864F87486169FC
:101E9000703771B101210160FEF7B4FE064604E01F
:101EA000FEF7B0FE801B022809D838688007F7D5F6
:101EB0000EE0C0F800A0FEF7A5FE064605E082E0B1
:101EC000FEF7A0FE801B02287DD838688007F7D473
:101ED0002078400768D5DFF8CCB100270BF13C0B28
:101EE000DBF80000C0000BD4DBF8001041F080519B
:101EF000CBF80010DBF80000012700F080500090C4
:101F00006B4E3068C00510D4306840F4807030608B
:101F1000FEF778FE009005E0FEF774FE0099401A87
:101F2000022850D83068C005F6D55E4EA0686C36E1
:101F300001280FD00528306810D020F00100306053
:101F4000306820F004003060A068B8B1FEF75AFE97
:101F500000900FE0306840F00100F4E740F004002A
:101F60003060F7E7FEF74EFE0099411A41F28830E3
:101F7000814266D830688007F4D50EE0FEF742FE55
:101F8000009007E0FEF73EFE0099411A41F28830CA
:101F9000814256D830688007F4D42FB1DBF80010A6
:101FA00021F08051CBF80010A069C8B33D49091D4C
:101FB0000968C1F3810102294AD00228504607D09E
:101FC000C8F8600000E03CE0FEF71CFE04463BE081
:101FD0004746C8F86000FEF715FE064605E000BF5C
:101FE000FEF710FE801B02282BD828688001F7D44A
:101FF000D4E907010843A16A2E4A490802EB0141CE
:10200000626A41EA8211084394F82C1040EA0161A7
:10201000C9F8001001203866FEF7F4FD044606E01A
:102020003EE000BFFEF7EEFD001B022809D828683D
:102030008001F7D534E000BFFEF7E4FD001B022865
:1020400002D90320BDE8F88F28688001F4D427E086
:102050000128F7D0D9F80000E26900F4800191422C
:102060001CD1226A00F03F01914217D147F6C0719E
:10207000626A0140B1EB821F10D1A26A4FF0FF33B8
:1020800000F4403103EB5202B1EB024F06D194F859
:102090002C1000F07060B0EB016F01D00120D1E78F
:1020A0000020CFE70438024000004742800E47423C
:1020B000007000400000FFFF10B5401EB0F1807FAF
:1020C00001D3012010BD4FF0E02460610F216017A3
:1020D00003F02BF90020A06107202061002010BD33
:1020E00010B590F83C20012A22D0012280F83C2033
:1020F000CA688C6822F4407222434C6822F48062E1
:1021000022430C6822F4006222430C6922F48052BC
:1021100022434C6922F400522243C969002322F46D
:1021200080420A4301684A6480F83C30002010BDB8
:10213000022010BD70B590F83C20012A2CD001245B
:1021400080F83C40022280F83D2003685A689D6870
:1021500022F070060A6832435A60104B02689A42B5
:102160000ED0B2F1804F0BD00D4B9A4208D00D4BE0
:102170009A4205D00C4B9A4202D00C4B9A4204D1A1
:10218000496825F080031943916080F83D400021A3
:1021900080F83C10084670BD022070BD0000014070
:1021A0000004004000080040000C004000400140D6
:1021B00010B5040003D094F83D0010B107E00120F1
:1021C00010BD002084F83C00204600F01FF80220DB
:1021D00084F83D00211D206801F014FA012084F8E4
:1021E000460084F83E0084F83F0084F8400084F8FC
:1021F000410084F8420084F8430084F8440084F8E5
:10220000450084F83D00002010BD000008B50168BD
:102210001148B1F1804F0BD0104A914210D10168A2
:1022200041F002010160006800F00200009008BD6A
:10223000016841F001010160006800F00100F5E76C
:10224000074A9142F3D1016841F00401016000683E
:1022500000F00400EAE700004038024000040040BB
:102260000008004070B5044690F83C0000250128A5
:1022700017D0012684F83C60022084F83D002068D5
:10228000826822F0770222F47F4282600868502838
:1022900038D00DDC20284FD005DC90B3102811D1A8
:1022A0004AE0022070BD302846D040280AD13BE0E9
:1022B00060282FD070280DD0B0F5805F03D0B0F526
:1022C000005F12D0012584F83D60002084F83C00B6
:1022D000284670BDCB68D1E90121206801F0EBF9F7
:1022E0002068816841F0770109E0CB68D1E90121DC
:1022F000206801F0E0F92068816841F48041816044
:10230000E1E719E0CA684968206801F089FA5021BC
:10231000206806E0CA684968206801F092FA6021E6
:10232000206801F0D2F9CEE7CA684968206801F058
:1023300077FA40212068F4E7226801461046F0E76A
:10234000F0B587B0044614216846FEF7D6F8314A46
:1023500021680024304802250126304F914209D1DE
:10236000016841F001010160006800F00100059082
:1023700090152DE02A4AB1F1804F0CD0294B99429B
:1023800032D1016841F002010160006800F00200F2
:102390000590302035E0016841F0020101600168DC
:1023A00001F002010591016841F00101016000683E
:1023B000694600F0010005904FF481600090CDE97E
:1023C0000154CDE903461046FEF726FB4FF40040CA
:1023D0000090CDE90154CDE903466946384600BF77
:1023E000FEF71AFB07B0F0BD0F4B9942FAD1016816
:1023F00041F002010160006800F0020005904FF416
:1024000040700090CDE9015469461046CDE903457E
:10241000E6E70000000001403038024000000240C2
:1024200000040240000400400008004070B504466B
:1024300090F83C0000260D4601280FD0012084F8BA
:102440003C006AB1042A1DD0082A2FD00C2A3FD0A4
:102450000126002084F83C00304670BD022070BD8B
:10246000206801F03BF92068816941F00801816131
:102470002068816921F004018161206881692A69ED
:10248000114311E0206801F051F92068816941F49D
:10249000006181612068816921F480618161206827
:1024A00081692A6941EA02218161D2E7206801F04D
:1024B00069F92068C16941F00801C1612068C169FA
:1024C00021F00401C1612068C1692A69114311E04A
:1024D000206801F083F92068C16941F40061C1619D
:1024E0002068C16921F48061C1612068C1692A69DD
:1024F00041EA0221C161ACE710B5040003D094F8B1
:102500003D0010B107E0012010BD002084F83C0020
:10251000204600F01FF8022084F83D00211D2068AD
:1025200001F070F8012084F8460084F83E0084F839
:102530003F0084F8400084F8410084F8420084F8A9
:10254000430084F8440084F8450084F83D000020EE
:1025500010BD000008B500680649884208D1064849
:10256000016841F001010160006800F00100009085
:1025700008BD0000000001404438024010B5044688
:10258000022249B104290ED0082913D094F8410041
:10259000012816D0012010BD94F83E000128F9D181
:1025A00084F83E200FE094F83F000128F2D184F82F
:1025B0003F2008E094F840000128EBD184F8402047
:1025C00001E084F841200122206801F067F81249F7
:1025D0002068884203D1426C42F400424264206881
:1025E00088420ED0B0F1804F0BD00C49884208D001
:1025F0000B49884205D00B49884202D00A498842DB
:1026000004D1816801F00701062903D0016841F077
:1026100001010160002010BD0000014000040040E5
:1026200000080040000C0040004001407047704727
:10263000F8B5016804460868CA684B6910F00F0FC6
:102640004FF0000559D003F0010602F490773743AC
:1026500065D0C10705D0D10503D5216C41F001013A
:102660002164410705D5D90703D0216C41F002014F
:102670002164810705D5D90703D0216C41F00401FD
:102680002164010707D502F02001314303D0216CFA
:1026900041F008012164216C00293AD0800604D55C
:1026A000900602D5204601F00DF920684069216CA2
:1026B000C0F38010090700D460B3204601F0DBF8B6
:1026C00020684069400621D52068143050E8001F7A
:1026D00021F0400140E80012002AF5D1A06BA8B11A
:1026E0006C490165A06BFEF772F9002811D0A06B50
:1026F000016D01B0BDE8F040084783060FD5930691
:102700000DD52046BDE8F84001F0DCB82046FFF7C3
:102710008EFFF8BD2046FFF78AFF2564F8BD266BC3
:102720002023012E79D1C60677D5D60675D508683F
:10273000486800904869400640D5A16B0868406829
:102740000004000CEAD0A28D8242E7D9E085C86976
:10275000B0F5807F2DD020680C3050E8001F21F4A8
:10276000807140E80012002AF5D12068143050E84A
:10277000001F21F0010140E80012002AF5D1206875
:10278000143050E8001F21F0400140E80012002AF8
:10279000F5D184F83E30256320680C3050E8001FE6
:1027A00021F0100140E80012002AF5D1A06BFEF7DD
:1027B000C5F8A08DE18D401A81B229E0A08DE18D90
:1027C000401A81B2E08D0028A8D00029A6D0206848
:1027D0000C3050E8002F22F4907240E80026002EC2
:1027E000F5D12068143050E8002F22F0010240E8B3
:1027F0000026002EF5D184F83E30256320680C3089
:1028000050E8002F22F0100240E80023002BF5D101
:102810002046FFF70BFFF8BDFFE705062BD5150691
:1028200029D594F83D002128F5D1A068B0F5805F46
:1028300001D12069B0B1206A411C21622168007871
:102840004860E08C401E0004000CE084E3D1206866
:10285000C16821F08001C1602068C16841F0400179
:10286000C160D8E7206A0088C0F308004860206A89
:10287000801C2062E5E74006CDD55006CBD5CA685E
:10288000204622F04002CA6084F83D3000F007F98B
:10289000C1E700006738000870B5040004D094F860
:1028A0003D00002510B106E0012070BD84F83C50C9
:1028B000204600F023F8242084F83D002068C168F9
:1028C00021F40051C160204601F05CF820680169E4
:1028D00021F4904101612068416921F02A014161A0
:1028E0002068C16841F40051C1602564202084F84B
:1028F0003D0084F83E00002070BD000010B586B099
:10290000044614216846FDF7F8FD184920688842FE
:1029100029D117480021026842F0100202600068C5
:1029200000F01000059012481438026842F00102CD
:102930000260006800F0010005904FF4C060009054
:102940000220CDE90101032003900720049069468D
:102950000848FEF761F8002211462520FEF73EFCEC
:102960002520FEF72DFC06B010BD00000010014030
:10297000443802400000024090F83E30202B0ED137
:1029800059B152B190F83C30012B08D0012380F8A6
:102990003C300023036301F07BB801207047022024
:1029A000704700001FB50D4A01681268914213D1AB
:1029B000C18D828D0A49684604F03CF9084A0949EC
:1029C000A03A684603F016FC402205490348FFF789
:1029D000D3FF0549012008701FBD00002804002016
:1029E0003402002058770008000000202DE9F84349
:1029F000044690F83D001F4616460D4620284CD14F
:102A0000C5B1BEB194F83C00012846D0012084F83D
:102A10003C004FF00008C4F84080212084F83D00BD
:102A2000FEF7F0F8A6848146E684A068B0F5805FE2
:102A300003D004E00120BDE8F883206928B12E46C8
:102A40005FF0000584F83C800EE00026FAE7802164
:102A5000204601F038F8A0B9AEB116F8010B216894
:102A60004860E08C401EE084E08C4B464FF0000252
:102A700000970028EBD14FF04001204601F023F8E9
:102A800030B10320D7E735F8020BC0F30800E6E7C2
:102A9000202084F83D000020CDE70220CBE77047DE
:102AA000FEE701684A69D24352050FD46FF4806291
:102AB0004A61002140F8301F20224273817302696D
:102AC00042F0040202610173012070470020704748
:102AD0002DE9F84F0446C06A1E4693460D4621680C
:102AE0000A6842F480620A60082807D0012805D0ED
:102AF00010F5803F02D0206B112804D120680168B6
:102B000041F4807101604FF001195B460022494693
:102B10002046009600F0C6F84FF4007840B12068D7
:102B20000068C00501D5C4F840800320BDE8F88FD7
:102B30002069DFF884A0B0F5804F0FD0062021680F
:102B400000EAD51747F0F000086133465A460AF10B
:102B50000601204600F0DAF858BB03E0E8B240F086
:102B600001001CE02168E8B2086133465A4651462C
:102B7000204600F0CBF8E0B92068416981690091F6
:102B8000016841F4807101605B460022494620469D
:102B9000009600F087F80028C1D147F0F1002168C5
:102BA000086133465A465146204600F0AFF80028E7
:102BB000BCD00120BAE7000002000100F8B50446CD
:102BC000C06A1E460D461746082807D0012805D0C2
:102BD00010F5803F02D0206B122804D120680168D4
:102BE00041F480710160134600224FF0011120462C
:102BF000009600F057F840B120680068C00502D583
:102C00004FF4007020640320F8BD2069B0F5804FB8
:102C10000ED00620216800EAD51040F0F0000861CF
:102C200033463A460B49204600F070F878B902E086
:102C300005F0FE0000E0E8B221680861054933466E
:102C40003A46891F204600F061F80028DCD00120B8
:102C5000F8BD00000800010070B516460D46044698
:102C60000DE02046FFF71DFF08B1012070BD681C74
:102C700005D0FDF7C7FF801BA84207D835B12068F3
:102C80004069C0434007ECD4002070BD002044F8E8
:102C9000300F20216173A073216941F0200121616F
:102CA0002073E2E72DE9F0471E4690460D460446A4
:102CB000C1F30747DDF8209008E0701C06D0FDF74F
:102CC000A1FFA0EB0900B0420FD876B12068012F18
:102CD00018D0806925EA00000004000C14D00021FF
:102CE0004145EAD00020BDE8F087002044F8300FCD
:102CF00020216173A073216941F0200121612073BB
:102D00000120F0E74069E5E70121E9E72DE9F04717
:102D10009A4691460E46044600254FF02008C1F31E
:102D2000074725E020684069C043400514D4206867
:102D3000016841F40071016021686FF480604861AE
:102D4000256384F83D8084F83E50206C40F00400F8
:102D5000206484F83C501FE0B9F1FF3F08D0FDF734
:102D600051FFA0EB0A0149450CD8B9F1000F09D079
:102D70002068012F13D0806926EA00000004000CAF
:102D80000BD0CFE744F8305F84F80D80A57320693D
:102D900040F02000206125730120BDE8F0874069E4
:102DA000EAE72DE9F041002590460E46044620272B
:102DB00017E04069C043C0060CD454F8301B6FF0D4
:102DC0001000486144F810596777A577206A20629F
:102DD000257717E0FDF716FFA0EB0800B04208D8F2
:102DE0003EB120684169C9434906E2D40020BDE8EC
:102DF000F08144F8305F6773A573206940F02000CC
:102E0000206125730120F2E770B516460D46044691
:102E10000DE02046FFF745FE08B1012070BD681C9B
:102E200005D0FDF7EFFE801BA84207D835B120681A
:102E30004069C0430006ECD4002070BD002044F877
:102E4000300F20216173A073216941F020012161BD
:102E50002073E2E7F0B500230A24302537261F4609
:102E600011E000BFB4EB107F02D905EB107C01E04C
:102E700006EB107C01F813C001EB430C00015B1C56
:102E80008CF80170DBB29342ECD3F0BD074910B56A
:102E9000054808600846FDF72BFD002803D0BDE873
:102EA0001040FDF723BD10BD00300240040000209B
:102EB000F0B587B014216846FDF71FFB21480024B8
:102EC000016841F004010160016801F0040105910D
:102ED000016841F080010160016801F08001059105
:102EE000016841F002010160016801F002010591F1
:102EF000016841F0010101600068134E00F001001B
:102F00004FF4C0450590002229463046FDF774FE77
:102F10000E4F002204213846FDF76EFE0095012574
:102F2000CDE90154694630460394FDF775FD042050
:102F30000090CDE90154694638460394FDF76CFDD5
:102F400007B0F0BD303802400008024000040240E3
:102F50000D4810B50B4901600C49416000214FF448
:102F600080428160C0E9031241618161C1610162F7
:102F7000FDF74EFE002803D0BDE81040FDF7B6BCBB
:102F800010BD000000540040B4020020A0860100E3
:102F900010B592B000240F941C2108A81094FDF7DE
:102FA000ACFA20216846FDF7A8FA20481E49C0E97E
:102FB00000144FF6FF71C0E902410461446184616D
:102FC000FFF79AFA08B1FDF791FC0F940FA9174883
:102FD0001094FFF7AFF808B1FDF788FC6020CDE949
:102FE00008040A940B940C940D94002208A90F482D
:102FF0000E94FFF71BFA08B1FDF778FC00944FF42C
:103000000050CDE9044002940194039469460748B6
:103010000794FFF765F808B1FDF768FC0348FFF770
:103020008FF912B010BD000000000140080300201D
:1030300010B58EB000240794089409940A940B9458
:103040001C2168460C94FDF758FA26484FF0804141
:1030500001603121C0E9011448F23F31C0E9031495
:103060008461FFF7A5F808B1FDF740FC4FF48050EC
:10307000079007A91B48FFF7F5F808B1FDF736FCE4
:103080001848FFF739FA08B1FDF730FC0B940BA98B
:1030900014480C94FFF74EF808B1FDF727FC6020A8
:1030A000CDE900040294002269460E480494FFF71B
:1030B000BDF908B1FDF71AFC042269460948FFF77B
:1030C000B5F908B1FDF712FC082269460548FFF77B
:1030D000ADF908B1FDF70AFC0248FFF731F90EB06F
:1030E00010BD00005003002010B58EB000240794DE
:1030F000089409940A940B941C2168460C94FDF7DB
:10310000FCF92248204901603121C0E9011448F24C
:103110003F31C0E903148461FFF74AF808B1FDF7B5
:10312000E5FB4FF48050079007A91848FFF79AF87D
:1031300008B1FDF7DBFB1548FFF7DEF908B1FDF735
:10314000D5FB0B940BA911480C94FEF7F3FF08B1C3
:10315000FDF7CCFB6020CDE9000402940022694613
:103160000A480494FFF762F908B1FDF7BFFB042297
:1031700069460648FFF75AF908B1FDF7B7FB03485F
:10318000FFF7DEF80EB010BD0004004098030020E9
:1031900010B58EB000240794089409940A940B94F7
:1031A0001C2168460C94FDF7A8F9224820490160CB
:1031B0003121C0E9011448F23F31C0E903148461B0
:1031C000FEF7F6FF08B1FDF791FB4FF48050079032
:1031D00007A91848FFF746F808B1FDF787FB15481F
:1031E000FFF78AF908B1FDF781FB0B940BA9114891
:1031F0000C94FEF79FFF08B1FDF778FB6020CDE946
:1032000000040294082269460A480494FFF70EF964
:1032100008B1FDF76BFB0C2269460648FFF706F97B
:1032200008B1FDF763FB0348FFF78AF80EB010BD45
:1032300000080040E00300200C4810B50A49016076
:103240004FF4E1314160002181600C22C160C0E98E
:1032500004128161C161FFF71FFB002803D0BDE8A4
:103260001040FDF743BB10BD0010014028040020B2
:1032700010B500220F49104800F04DFF08B1FDF7CE
:1032800035FB0E490C4801F039F908B1FDF72EFB6A
:103290000B49094800F059FD08B1FDF727FB064826
:1032A00001F0A6F9002803D0BDE81040FDF71EBBD1
:1032B00010BD00000C0000206C0400205C01002008
:1032C0005C000020FEE7FEE70148FEF707B90000BA
:1032D0002C1300202DE9F04103680D4604461E6CB6
:1032E00003EB4511D1F8080BD4F810E04FF4004778
:1032F0004FF0200C04F57172BEF1010F09D0DFF818
:1033000098E0764539D1020432D500BFC1F8087B78
:103310003FE0224B5FEA007E04D59E4239D900048B
:10332000F4D436E05FEA806E02D5C1F808CB30E015
:1033300010F0280F2DD19E4201D90004E6D4C5EB30
:10334000C50004EB8000D1F8101BD0F80432C1F3A3
:103350001201591AC0F81412D0F808121944C0F812
:10336000081295B9D4F8100278B9012120680AE052
:1033700080060AD5C1F808CB07E035B9D4F81002A9
:1033800018B90021184601F003FDE9B22046FDF707
:103390008BFF0020BDE8F0810A31544F0A30544FB2
:1033A0002DE9F84F0E46C1EBC60100EB81048146C2
:1033B0000568D4E914103C34884202D90120BDE8E4
:1033C000F88F081AA168814200D20846C01C8708FD
:1033D00005EB46181BE000BFA0EB010AA0685045B2
:1033E00000D282460AF10300870899F81000009085
:1033F0001FFA8AF3F2B22846E16801F081FFE16822
:1034000001EB0A00E060A16901EB0A00A061D8F8B5
:10341000180980B2B84205D3D4E90501814201D22E
:103420000028D9D1D4E90501884208D806F00F0157
:1034300001208840D5F834188143C5F8341800209D
:10344000BDE770472DE9F04F4006060E2DED028BCB
:10345000701C83B00024C0B29FED398B0D464FF035
:1034600001084FF083094FF0E30BA2466427029056
:103470008DF804808DF8069034B1012C06D0022C12
:1034800008D0032C08D105E0C32000E0D3208DF83C
:10349000050001E08DF805B0032301AA31462A4852
:1034A0000097FDF769FD8DF804A0012301AA3146BC
:1034B00025480097FDF760FD022301AA00972248E6
:1034C0000299FDF769FCBDF8040040BA00B203F0B0
:1034D0004AFE53EC182B03F0ADFE03F015FE00B2CC
:1034E00034B1012C0BD0022C10D0032C1BD114E0D2
:1034F00000EE100AB8EEC00A85ED000A13E000EEF7
:10350000100AB8EEC00A85ED010A0CE000EE100AC0
:10351000B8EEC00A85ED020A05E000EE100AB8EE2A
:10352000C00A85ED030A641CE4B2042CA0D30A206F
:10353000FDF760FA03B0BDEC028BBDE8F08F000030
:10354000000000000000C03FB40200207047017876
:10355000407841EA00207047FDF7D8BD30B593B000
:1035600030216846FCF7C9FF14210CA8FCF7C5FF01
:103570001E480024016841F080510160006800F09D
:10358000805011901A48016821F4404141F40041F3
:1035900001600068022500F4404011900120009075
:1035A000000401908001CDE90650192008904FF4E5
:1035B000A870099004200A9007200B906846FEF737
:1035C000C5FB08B172B6FEE70F20CDE90C054FF43C
:1035D0008050CDE90E4002210CA81094FEF7C4FAE9
:1035E000002801D072B6FEE713B030BD403802406B
:1035F000007000400248016841F4700101607047AA
:1036000088ED00E0F0B502681D4B1E4C9F031E4D77
:103610001E4E984207D0B84205D0A04203D0A8421F
:1036200001D0B04204D122F0700C4A6842EA0C0288
:10363000984210D0B8420ED0A0420CD0A8420AD076
:10364000B04208D0124CA04205D0124CA04202D089
:10365000114CA04203D122F44074CA6822434C6941
:1036600022F08002224302608A68C2620A68826293
:10367000984201D10969016301214161F0BD000057
:10368000000001400004004000080040000C004021
:1036900000400140004401400048014010B501F0E5
:1036A0001F030121046A99408C430462016A9A4015
:1036B0001143016210BD10B5846842EA032224F46C
:1036C0007F440A432243826010BD826822F0700268
:1036D0000A4342F0070181607047000030B5026A7A
:1036E00022F001020262026A4368846924F07305D1
:1036F0000C682C4322F002058A682A430A4DA8422E
:103700000BD122F00805CA6823F440732A434D699F
:1037100022F004021D438B692B4343608461496896
:103720004163026230BD00000000014030B5026A12
:1037300022F010020262026A436884690D6824F470
:10374000E64444EA05248D6822F0200242EA05128C
:103750000B4DA8420ED1CD6822F0800242EA05123C
:103760004D6923F4406343EA85038D6922F04002EA
:1037700043EA85034360846149688163026230BD26
:103780000000014030B5026A22F480720262036ACE
:103790004268C46923F4007324F073050C682C4359
:1037A0008D6843EA05230C4DA8420ED1CD6823F461
:1037B000006343EA05234D6922F4405242EA0512B0
:1037C0008D6923F4806342EA05124260C46149684E
:1037D000C163036230BD00000000014030B5026AE1
:1037E00022F480520262046A4268C3690D6823F4BD
:1037F000E64343EA05238D6824F4005444EA053483
:10380000064DA84204D14D6922F4804242EA851255
:103810004260C36149680164046230BD0000014038
:1038200010B5036A046A24F001040462846924F078
:10383000F00444EA021423F00A020A43846102629B
:1038400010BD10B5036A23F0100303628369046A94
:1038500023F4704343EA023224F0A00343EA011147
:103860008261016210BD10B5806B0021C185C184E9
:10387000FEF7DDFE10BD01680C3151E8002F22F487
:10388000907241E80023002BF5D10168143151E812
:10389000002F22F0010241E80023002BF5D1016B3B
:1038A000012909D101680C3151E8002F22F01002E2
:1038B00041E80023002BF5D1202180F83E100021A3
:1038C0000163704708B590F83E10222901D002200C
:1038D00008BD82684FF480539A4201D1016921B139
:1038E000816A9A421BD04AB10AE00268816A526832
:1038F000C2F308020A80816A891C08E0026972B179
:103900000268526802F07F020A70816A491C816273
:10391000C18D491E0904090CC18503D019E0026854
:103920005268F1E70168CA6822F02002CA600168A3
:10393000CA6822F48072CA6001684A6922F00102F2
:103940004A61202180F83E10016B012903D0FFF766
:1039500029F8002008BD0021016301680C3151E8FD
:10396000002F22F0100241E80023002BF5D101685E
:103970000A68D20602D50A6849680091818DFEF76F
:1039800055FEE6E770B5044600680169E26821F477
:103990004051114301612169A068E26908436169EE
:1039A000114308432168CA6849F20C639A430243F1
:1039B000CA6020684169A26921F4407111434161E4
:1039C00031492068884202D03049884202D1FEF74E
:1039D0007BF901E0FEF768F9E2690023192164250B
:1039E0003226B2F5004F626828D0A0FB0101930F88
:1039F0009200FCF75FFC0146B0FBF5F06FF0180297
:103A0000504301EB800006EB0010B0FBF5F000F036
:103A1000F002B1FBF5F002EB0012B1FBF5F06FF034
:103A20001803584301EB800006EB0010B0FBF5F0E3
:103A300000F00F0021681044886070BDA0FB0101F8
:103A400092185B41FCF736FC0146B0FBF5F0020131
:103A5000B1FBF5F06FF01803584301EB800006EB63
:103A6000C000B0FBF5F000F0F80002EB4002B1FB43
:103A7000F5F0584301EB800006EBC000B0FBF5F019
:103A800000F00700D6E700000010014000140140DC
:103A900081628285C28500210164222280F83E2055
:103AA00080F83C100168CA6842F48072CA600168FC
:103AB0004A6942F001024A610068C16841F0200190
:103AC000C160002070472DE9F041984617460E4628
:103AD0000446069D27E0681C25D02DB1FDF792F81D
:103AE000A0EB0800A8421ED920680C3050E8001F47
:103AF00021F4D07140E80012002AF5D1206814307A
:103B000050E8001F21F0010140E80012002AF5D121
:103B1000202084F83D0084F83E00002084F83C001A
:103B20000320BDE8F0812068006836EA000004D078
:103B30000020B842CFD00020F3E70120F9E70000D1
:103B40000148FEF775BD0000280400202DE9F04172
:103B50000C46D0F8C422D0F8BC12F9B104EB8403AF
:103B600000EB83050026AB694BB1C4EBC40702EB45
:103B70008702526CB3FBF2F702FB173282B1C1F835
:103B80001462D0F8C00203692BB1D1F808022246B2
:103B900001F5047198470020BDE8F0810320FBE7A0
:103BA00000231A462146AE6100F089FCF3E770B5A8
:103BB000D0F8BC4205466CB100F06AFBC4F80C02B8
:103BC000D5F8C012D4F80402CA6804F5037190470E
:103BD000002070BD032070BD70B50446812100F047
:103BE000B6FA002525870121204600F0B0FAA4F896
:103BF00078518221204600F0AAFAA4F84C50A4F88B
:103C00004E50D4F8BC0248B1D4F8C00204F52F7469
:103C100040688047206800F040FE2560002070BDAD
:103C200010B5D0F8BC4284B1D0F8C01259B194F8A4
:103C30000002FF2807D08B6894F80122214698479C
:103C4000FF2084F80002002010BD032010BD0000FA
:103C50000A21018000487047840000204321018030
:103C600000487047D400002043210180004870477D
:103C70009000002043210180004870471801002077
:103C80002DE9F04704464FF4077000F007FE0500E9
:103C90004FF0000735D0C4F8BC52207C4FF010081C
:103CA0004FF40079012680B340230222812120466F
:103CB00000F052FB2687402302220121204600F01B
:103CC0004BFBA4F87861A4F84E80082303228221DC
:103CD000204600F041FBA4F84C60D4F8C002006814
:103CE0008047C5F81472C5F81872207CD5F80422F4
:103CF000A8B140230121204600F03AFB0020BDE896
:103D0000F0870220C4F8BC72F9E7FFE74B460222B5
:103D10008121204600F020FB26874B46CCE74B460E
:103D2000E8E710B5D0F8BC1251B1027C002AD1F8F6
:103D3000042207D04023012100F01AFB002010BD0F
:103D4000032010BD4FF40073F5E719B1C0F8C0129D
:103D50000020704703207047D0F8BC0218B1C0F8AB
:103D600004120020704703207047D0F8BC0228B12D
:103D7000C0F81022C0F808120020704703207047D6
:103D80002DE9FC410646D0F8BC7200200C468DF8A7
:103D90000000ADF80400054637B1207810F060014E
:103DA00028D0202944D102E00320BDE8FC81E2882C
:103DB000C2B1000660780AD5D6F8C0128B683946C1
:103DC0009847E288072A00D90722394628E087F871
:103DD0000002A07987F80102E2883946304600F0F7
:103DE00051F82AE0D6F8C012607800228B6821468C
:103DF000984722E0607830B101281ED00A2809D007
:103E00000B2815D110E096F89C02032810D102224D
:103E100001A905E096F89C02032809D10122694610
:103E2000304600F049F808E096F89C02032804D0D8
:103E30002146304600F01BF803252846B5E710B5AB
:103E4000D0F8B8220AB152689047002010BD13463E
:103E500010B50A46002100F08BFA002010BD134671
:103E600010B50A46002100F02AFB002010BD10B555
:103E70000446802100F008FB2046BDE810400021E8
:103E800000F002BB10B50323C0F89432C0F85821EB
:103E90001346C0F85C210A46002100F069FA0020B0
:103EA00010BD10B50521C0F8941200231A4619461A
:103EB00000F05EFA002010BD10B50223C0F8943265
:103EC00082611346C2610A46002100F0F8FA002020
:103ED00010BD10B50421C0F8941200231A461946EB
:103EE00000F0EDFA002010BD10B50A46024903A00B
:103EF00000F0E1F8004810BD3C0700204344432097
:103F0000436F6E66696700001220088000487047A2
:103F10002C00002010B50A46024903A000F0CBF89F
:103F2000004810BD3C07002043444320496E74659F
:103F300072666163650000000420088000487047D5
:103F40002800002010B50A46024903A000F0B3F88B
:103F5000004810BD3C07002053544D6963726F65E3
:103F60006C656374726F6E696373000010B50A4606
:103F7000024903A000F09FF8004810BD3C07002054
:103F800053544D3332205669727475616C20436FFF
:103F90006D506F727400000010B51A2008800A4836
:103FA0000168001D0468001D0068081809D0082277
:103FB0000649FEF74FFF0549042210312046FEF75F
:103FC00049FF0248801E10BD107AFF1F42000020EA
:103FD000F8B504460020ADF8000048880D46010AF7
:103FE00008295FD2DFE801F05E0409175E5E3C45F8
:103FF000D4F8B412207C0A6819E0207C022600283C
:10400000D4F8B80205D0C16A6846884701464670B0
:1040100039E0816AF8E7C0B2062843D2DFE800F051
:10402000030A1014181CD4F8B402426805E069466B
:1040300090471CE0D4F8B402826892B3207CF6E783
:10404000D4F8B402C268F8E7D4F8B4020269F4E71D
:10405000D4F8B4024269F0E7D4F8B4028269ECE71C
:10406000207CF0B9D4F8B802416B68468847014615
:1040700009E0207CA8B9D4F8B802016B68468847EB
:10408000014607204870EA888AB1BDF8000040B1B7
:10409000824200D90246ADF800202046FFF70CFF0F
:1040A000F8BDFFE729462046FFF7E1FEF8E7204686
:1040B000FFF70FFFF4E770B5002300281ED000259E
:1040C000044602E06D1CEDB2641C2678002EF9D186
:1040D000022404EB450414801278CA545B1C0322AA
:1040E000CA5400245B1C06E0CA545B1CDAB28C5430
:1040F000521CD3B2401C0278002AF5D170BD0100D9
:104100004FF0000004D0012901D0022901D0032082
:1041100070470120704778B10023C0F8B832C0F86A
:10412000C032C0F8CC3209B1C0F8B412012180F815
:104130009C12027000F0B0B80320704710B5D0F8A0
:10414000C402FDF7E5F8BDE81040FFF7D8BF10B591
:10415000D0F8C402FDF7B6F8BDE81040FFF7CFBFB6
:1041600070B51646044621B194F89C02032841D04C
:1041700048E0D4F8941204F114000025022932D149
:10418000D0E902318B4206D95A1A82603146204664
:10419000FFF765FE0FE0994214D14068884211D3C1
:1041A000D4F8981288420DD2002211462046FFF71B
:1041B00056FEC4F8985200231A461946204600F0CD
:1041C000D7F810E094F89C02032805D1D4F8B8027F
:1041D000C16809B1204688478021204600F054F983
:1041E0002046FFF75EFE94F8A00201280AD184F869
:1041F000A05207E0D4F8B80242691AB120469047AD
:10420000002800D1002070BD10B51346044621B12E
:1042100094F89C02032823D02AE0D4F8941204F5E1
:10422000AA70032924D1D0E9021291420AD98A1A2C
:104230008260C068824200D3024619462046FFF7DA
:1042400006FE15E094F89C02032805D1D4F8B802C4
:10425000016909B1204688472046FFF73AFE07E08A
:10426000D4F8B80282691AB120469047002800D1DC
:10427000002010BD0020704710B5012180F89C126D
:10428000D0F8B82212B1526801799047002010BDD1
:10429000D0F8C402FDF76AB810B5017839BB1549EA
:1042A0000222C1F80404C0F8C4124FF0A040086014
:1042B000042048600020C1E90320C1E9062008620B
:1042C0004862C86208630846FDF72AFB08B1FCF79C
:1042D0000DFB80210748FCF7B4FF40220021054870
:1042E000FCF7B3FF802201210248FCF7AEFF00205B
:1042F00010BD00002C1300200A0601F07F01D0F849
:10430000C402C1EBC10100EB810002D590F83E0070
:10431000704790F8FE01704710B5D0F8B82222B16E
:1043200090F89C32032B02D004E0032010BD126AE7
:1043300002B19047002010BD10B5D0F8B82222B1CC
:1043400090F89C32032B02D004E0032010BD526A87
:1043500002B19047002010BD10B51C461346D0F89E
:10436000C4022246FDF70BF8BDE81040FFF7C7BEB8
:1043700010B5D0F8C402FDF732F8BDE81040FFF7E1
:10438000BEBE70B50125044680F89C520020C4F8DA
:1043900094026060C4F8A402D4F8B802E0B1D4F882
:1043A000BC1221B1426812B1002120469047002280
:1043B000402311462046FFF7CFFF4026A4F8645162
:1043C0003346002280212046C4F86061FFF7C4FF15
:1043D000A5840020266270BD032070BD90F89C1259
:1043E000042903D190F89D1280F89C120020704798
:1043F00010B5D0F8B81221B190F89C22032A02D04F
:1044000004E0032010BDC96901B18847002010BD38
:1044100001740020704710B5D0F8C402FDF74FFBBF
:10442000BDE81040FFF76BBE70B5044600F2AA204D
:10443000054600F04DF80120C4F89402B4F8B0022B
:10444000C4F8980294F8AA0210F01F010AD00129BA
:104450000ED0022912D000F080012046BDE8704045
:1044600000F012B829462046BDE8704000F0C2B8FE
:1044700029462046BDE8704000F0E6B929462046AE
:10448000BDE8704000F040B910B5D0F8C402FCF7A8
:10449000CAFFBDE81040FFF732BE10B5D0F8C40225
:1044A000FDF728FBBDE81040FFF729BE90F89C12ED
:1044B00080F89D12042180F89C120020704710B5EE
:1044C000D0F8C402FCF7E9FFBDE81040FFF717BEC3
:1044D00070B5054611F8010B2870087868704C1CFF
:1044E0002046FFF734F86880A41C2046FFF72FF819
:1044F000A880A01CFFF72BF8E88070BD38B50446F3
:104500000020ADF8000049B1C4F8B812C96A19B169
:1045100068468847C4F8CC02002038BD032038BD67
:1045200002460320D2F8B832002B02D01B68104696
:10453000184770472DE9F0410F462C4E8978002529
:1045400004463170012906D939462046FFF78FFC11
:104550000320BDE8F08194F89C0202280CD00328C7
:104560001DD039462046FFF782FC31782046FFF700
:1045700066FC03252846ECE799B320466160FFF707
:10458000CFFF050004D039462046FFF770FCF1E765
:104590002046FFF79EFC032084F89C02EAE74FF0D8
:1045A0000208C1B1606888421BD0C1B22046FFF743
:1045B00046FC317820466160FFF7B2FF050010D05D
:1045C00039462046FFF753FC21792046FFF737FC98
:1045D00084F89C82CEE784F89C8220466160FFF7D5
:1045E0002EFC2046FFF775FCC4E700008000002089
:1045F000FFF753BF2DE9F0410A78002512F0600261
:1046000008D0202A01D0402A71D1D0F8B82292686F
:10461000904731E04B78002201260A2B67D2DFE871
:1046200003F0415E6658660805662D29FFF7D0FC49
:104630005FE004468888D8B9C888C8B94888802807
:1046400016D200F07F0794F89C02032810D084F85B
:104650009E7239462046FFF7DEFE2046FFF739FC02
:104660001FB1022084F89C0243E084F89C6240E081
:1046700020463CE0FFF75EFF05463AE0CB88012B81
:1046800035D190F89C32012B04D0022B02D0032BA1
:104690002DD104E08260012200F1080116E0012220
:1046A000011D13E090F89C22012A03D0022A01D0B8
:1046B000032A1CD1CA88022A19D1C660D0F8A412D4
:1046C00009B10321C160022200F10C01FFF7F4FBE4
:1046D0000FE0498801290CD1C0F8A46211E090F8DC
:1046E0009C32012B08D0022B06D0032B04D0FFF7FD
:1046F000BEFB2846BDE8F08149880129F9D1C0F800
:10470000A422FFF7E6FBF4E72DE9F0410D4604464D
:1047100028780026097910F060000BD0202801D0FD
:1047200040286DD1D4F8B8022946826820469047C7
:10473000064686E06878A8B3012822D003287CD1F9
:1047400094F89C02022802D0032876D10BE00029BD
:1047500073D0802971D02046FFF796FE8021204635
:10476000FFF792FE6DE0688838B931B1802904D036
:10477000E88810B92046FFF787FE2046FFF7A9FB1F
:104780005FE094F89C020228E1D0032855D16888A4
:10479000A8BB480602D02046FFF7D0FC2046FFF712
:1047A00098FBBFE7FFE794F89C020027022802D09D
:1047B000032842D111E009B180293ED1080601F059
:1047C0007F0000EB800004EB800101D5143101E093
:1047D00001F5AA7102220F602BE0080601F00F001C
:1047E00000EB800004EB80000BD5808C40B101F021
:1047F0007F0000EB800004EB800514350CE020E026
:104800001BE0B0F86401C0B101F07F0000EB800054
:1048100004EB800505F5AA7541B1802906D0204634
:10482000FFF76AFD10B10120286000E02F6002222E
:1048300029462046FFF740FB03E029462046FFF7C4
:1048400016FB3046BDE8F08170B5064608780024B6
:104850000D4610F0600003D0202801D0402817D169
:1048600096F89C02012803D0022801D003280FD11A
:10487000287901280CD8D6F8B802826830469047CB
:104880000446E888204306D13046FFF722FB02E0C9
:104890003046FFF7ECFA204670BD7047004870477D
:1048A0000C11002070B50A78012302F00F054E7834
:1048B000AB401B4CD0F81C58012E17D045EA0343DF
:1048C000C0F81C3800EB4210D0F8002B12040BD4B7
:1048D000D0F8002B0B89C978C3F30A031A4344EAC2
:1048E00081410A43C0F8002B002070BD9BB21D43DC
:1048F000C0F81C5800EB4210D0F800391B04F3D468
:10490000D0F800390D89C978C5F30A0589042B430D
:1049100041EA82510B432343C0F80039E4E7000029
:1049200000800010D0F800196FF30A01C0F80019D8
:10493000D0F8041841F48071C0F8041800207047C2
:1049400070B5044606990A9E049D0D98012916D05B
:10495000E06840F04000E060204600F02BF8A16BDA
:104960001EB321F48031A163012D07D1A16841F06C
:104970000601A160A16841F02001A16070BDA16B9A
:1049800021F48031A163E168094A1140E160E168E6
:1049900021F44011E160012803D1E06840F4801067
:1049A000E060204600F006F8DEE741F48031DAE707
:1049B000BFFFBDFF08B500220D490092009B5B1CA4
:1049C00000938B420CD80369002BF7DA009202693E
:1049D00042F001020261009A521C00928A4201D9FF
:1049E000032008BD0269D207F5D1002008BD0000F0
:1049F000400D030030B54C780A78012300EB4212D9
:104A0000012C2CD0D2F8004B002C0BDAD2F8004B42
:104A100044F00064C2F8004BD2F8004B44F08044EC
:104A2000C2F8004BD0F83C580C7804F00F0403FA9D
:104A300004F425EA0444C0F83C48D0F81C4809783E
:104A400001F00F018B4024EA0341C0F81C18D2F892
:104A5000000B19490840C2F8000B002030BDD2F805
:104A60000049002C0BDAD2F8004944F00064C2F887
:104A70000049D2F8004944F08044C2F80049D0F817
:104A80003C480D7805F00F0503FA05F5ADB2AC43CF
:104A9000C0F83C48D0F81C48097801F00F018B4061
:104AA00099B28C43C0F81C48D2F800090349084069
:104AB000C2F80009D1E700000078F3EF007833EC8A
:104AC000D0F8001E21F00301C0F8001ED0F8041831
:104AD00021F00201C0F8041800207047D0F8001E31
:104AE00021F00301C0F8001ED0F8041841F00201C3
:104AF000C0F80418002070472DE9F04F00250E463D
:104B00000446DDF82CC0DDF824B0109F2846294665
:104B100004EB8002C2F80411401C0F28F8D3204691
:104B2000C7B1806B20F40012A263A06B40F4002296
:104B3000A26308468846C4F8000ED4F80018204640
:104B4000C4F80018BCF1010F16D0D0F8001841F0DD
:104B5000030116E0D0F8040840F00202C4F804286B
:104B6000A06B40F40012A263A06B20F40022A263A9
:104B7000A06B20F48022DBE7D0F800180BB141F0E5
:104B80000101C0F80018102100F094FA00B10125CD
:104B9000204600F07BFA00B101254046C4F8108899
:104BA000C4F81488C4F81C8800214FF000694FF045
:104BB000904A4FF67F3314E004EB4112D2F800C95B
:104BC000BCF1000F06DA11B1C2F800A904E0C4F884
:104BD000009901E0C2F80009C2F81009C2F80839CA
:104BE000491C8E42E8D8002115E000BF04EB4112B9
:104BF000D2F800CBBCF1000F06DA11B1C2F800AB5D
:104C000004E0C4F8009B01E0C2F8000BC2F8100BEE
:104C1000C2F8083B491C8E42E8D8D4F8101821F499
:104C20008072C4F81028A0616FF080406061BBF111
:104C3000000F03D1A06940F01000A061A0690949EC
:104C40000843A0610C9818B1A06940F00800A06169
:104C5000012F03D1A06904490843A0612846BDE89B
:104C6000F08F000000383C8004000040816821F093
:104C7000010181600020704770B50D784E78434C7B
:104C8000EBB200EB4313012E1FD0D3F8100B6FF3E0
:104C90001200C3F8100BD3F8100B2040C3F8100B10
:104CA000486908B188684861D3F8100B40F40020C7
:104CB000C3F8100BD3F8100B8C68C4F31204204314
:104CC000C3F8100B012A55D058E04E69002ED3F8D6
:104CD000106932D06FF31206C3F81069D3F8106967
:104CE0002640C3F810694E698C68A64200D94C6111
:104CF000D3F8104944F40024C3F81049D3F81049FC
:104D00004E69C6F312063443C3F81049012A22D073
:104D100000EB4512D2F8003943F00443C2F80039E1
:104D20004A6932B3D0F83428097801F00F03012121
:104D300099400A43C0F8342826E02640C3F8106999
:104D4000D3F8104944F40024C3F81049D3F81049AB
:104D50006FF31204D8E7096919B100EB4512C2F8E4
:104D6000141900EB4510D0F8001941F00441C0F8C7
:104D7000001909E0C86808B1C3F8140BD3F8000B98
:104D800040F00440C3F8000B002070BDFFFF07E0B7
:104D900010B5036C134CA34203D9D0F8003B002B91
:104DA0001EDB0023C0F8103BD0F8103B43F4002377
:104DB000C0F8103BD0F8103B43F01803C0F8103B8C
:104DC000D0F8103B43F0C043C0F8103B012907D195
:104DD000C0F8142BD0F8001B41F08021C0F8001B54
:104DE000002010BD0A30544F4A780B78012A00EB9E
:104DF00043100BD0D0F8002B22F40012C0F8002B87
:104E0000C978032914D0022912D017E0D0F800295C
:104E100022F40012C0F80029C978032901D0022920
:104E20000CD1D0F8001941F08051C0F8001905E00C
:104E3000D0F8001B41F08051C0F8001B00207047E3
:104E40000A784B78D1B200EB4110012B12D0D0F888
:104E5000001B002906DB2AB1D0F8001B21F080419D
:104E6000C0F8001BD0F8001B41F40011C0F8001B73
:104E700000207047D0F80019002906DB2AB1D0F8CD
:104E8000001921F08041C0F80019D0F8001941F450
:104E90000011C0F80019EBE7F8B50C784F78774DA2
:104EA000E3B26FF0604600EB4313012F26D0D3F836
:104EB000104B6FF31204C3F8104BD3F8104B2C4077
:104EC000C3F8104B4C69002C74D08D682C44641EC0
:104ED000B4FBF5F4D3F8105BA4B206EAC44635433C
:104EE000C3F8105BD3F8105B8E686643C6F31204F8
:104EF0002543C3F8105B012A71D0A6E04F691FB3A8
:104F0000D3F810796FF31207C3F81079D3F810793A
:104F10002F40C3F810794F698D682F447F1EB7FB6F
:104F2000F5F506EAC545D3F810693543C3F81059BD
:104F3000D3F810594E69C6F312063543C3F8105919
:104F4000CD78012D10D01BE0D3F810692E40C3F8A6
:104F50001069D3F8105945F40025C3F81059D3F857
:104F600010596FF3120509E0D3F8105925F0C04528
:104F7000C3F81059D3F8105945F00055C3F810592B
:104F8000012A18D000EB4413D3F8004944F004443C
:104F9000C3F80049CC78012C2FD04A6962B3D0F80D
:104FA0003428097801F00F03012199400A43C0F821
:104FB000342860E036E00A691AB100EB4413C3F804
:104FC0001429C97801290FD1D0F80818C90500EBB8
:104FD0004411D1F8002903D442F0005202E030E03D
:104FE00042F08052C1F8002900EB4410D0F80019BB
:104FF00041F00441C0F800193DE0D0F80848E4054C
:10500000D3F8004902D444F0005401E044F0805445
:10501000C3F8004900928A8A93B20A78C96800F0FE
:105020006FF928E0D3F8104B8D68C5F312052C43B7
:10503000C3F8104BD3F8104B44F40024C3F8104BC2
:1050400059E7CA680AB1C3F8142BC97801290CD1F1
:10505000D0F80808C005D3F8000B02D440F0005087
:1050600001E040F08050C3F8000BD3F8000B40F093
:105070000440C3F8000B0020F8BD0000FFFF07E06C
:10508000816841F0010181600020704708B500216E
:105090000091102101610649009A521C00928A4237
:1050A00001D9032008BD0269D206F5D4002008BD4D
:1050B000400D030008B500220092202242EA81112F
:1050C00001610649009A521C00928A4201D90320CC
:1050D00008BD02699206F5D4002008BD400D03000A
:1050E000D0F8080810F0060004D0022803D00628E3
:1050F00001D00F20704702207047406900F0010086
:105100007047D0F81818D0F81C08084080B27047D3
:10511000D0F81818D0F81C080840000C704710B5DB
:10512000D0F81038D0F8342801F00F0400EB41100B
:10513000E24002F00102D0F8080943EAC21210402E
:1051400010BD00EB4111D1F8081BD0F8140808403D
:105150007047416980690840704730B5034608468A
:10516000940802F00301002203F5805303E01D6858
:1051700040F8045B521CA242F9D300290BD01C68F2
:105180000022D50024FA05F3491E521C090400F838
:10519000013B090CF5D130BD70B50446C06800254F
:1051A00020F0C040E060012901D079B120E0E06842
:1051B00040F00050E0600120FBF71CFC60696D1CB2
:1051C00010F0010F10D1322DF5D30DE0E06840F062
:1051D0008040E0600120FBF70DFC60696D1C10F061
:1051E000010F01D0322DF5D3322D01D0002070BD3A
:1051F000012070BDD0F8002822F4FE62C0F800281B
:10520000D0F800284FF4FE6303EA01110A43C0F806
:105210000028002070470000022A3ED1264A274B72
:105220000A449A4201D20F2138E0254A254B0A440C
:105230009A4201D20E2131E0234A244B0A449A4279
:1052400001D20D212AE0224A224B0A449A4201D27D
:105250000C2123E0204A214B0A449A4201D20B211F
:105260001CE01F4A1F4B0A449A4201D20A2115E052
:105270001D4A1E4B0A449A420FD31D4A1D4B0A4435
:105280009A4201D2082109E01B4A11441B4A91426B
:1052900001D2072102E0062100E00921C26822F4C0
:1052A0007052C260C2684FF4705303EA81210A430E
:1052B000C260002070470000405327FF00350C00FB
:1052C000401E1BFF40420F0000DC0BFF804F12000E
:1052D000808CF9FE20D6130060B6E5FE60E3160070
:1052E00000D3CEFE40771B00C05BB3FEC09121000F
:1052F00000CA91FE20753800E05459FEE09C410040
:1053000010B5029C74B9DB1C9C0800EB0230002332
:1053100000F5805004E000BF51F8042B02605B1CD4
:10532000A342F9D3002010BDFEE70907090E0028AB
:1053300004DB00F1E02080F80014704700F00F005B
:1053400000F1E02080F8141D70470000000000000C
:1053500010B52DED020B2DED088B84B09DED0C0BDF
:1053600051EC100B02F09AF841EC180B9DED0C0B70
:1053700053EC182B51EC100B02F0EAF841EC190B2E
:105380000D989FED290B10F0004F53EC102B51ECB2
:10539000190B9FED21AB9FED22BB0ED001F00EFF4C
:1053A0000ED953EC1B2B51EC190B02F041F81CD217
:1053B00014E000BF41EC180B17E001F0FFFE06D22D
:1053C00053EC1A2B51EC180B02F0C2F8F2E753EC35
:1053D0001B2B51EC190B02F02BF806D853EC1A2BAF
:1053E00051EC180B01F0DCFDE4E78DED028B9DED37
:1053F0000C0B18EE901A10EE900A8DED000B61F375
:105400001E0003909DED020B04B0BDEC088B02B0B2
:1054100010BD000000000000000000000000F03F90
:10542000000000000000E03F000000000000E0BFBE
:1054300010B50189491C8AB2028101680B8A9A421F
:1054400005D3002101814181C181818110BD09689D
:10545000438931F82320C2F3072102F0030401221B
:10546000A24013FA82F24281828911F0300F0DD0EE
:1054700000231A4401F00F018281082908D009296C
:1054800006D00021C2891144C18110BD0123F0E77B
:105490000121F7E710B50B00416801EB02044460FD
:1054A00002D01846FAF790FF012010BD10B5034650
:1054B000406884185C60FAF787FF012010BD000087
:1054C00030B4937D03F00F030C2B41D2DFE803F0DF
:1054D000061111111820282E3434403A29B1FF2921
:1054E00003D0C168B9BB1FA137E0D16930BC00F05F
:1054F00084BE09B1FF29F4D130BC114600F0F0BDE3
:10550000052901D0FF29ECD1D16930BC00F082BE61
:10551000012901D0FF29E4D1D16930BC00F08FBE50
:105520000229DED130BC114600F0D4BC0229D8D10A
:1055300030BC114600F042BD0229D2D130BC114628
:1055400000F07EBD0229CCD130BC114600F0F6BC83
:10555000C16801B900E000E006A1C16030BC0020D4
:105560007047000077726F6E6720776972652074EC
:1055700079706500696E76616C6964206669656C36
:10558000642074797065000070B5054610688CB0B1
:105590001446C068E8B1022921D00A2000906B4669
:1055A00009AA284601F0AAFC002810D009A901A8E0
:1055B000009A01F03FFB01AD95E80F0005AD85E8CD
:1055C0000F00206822460021C36805A898470CB048
:1055D00070BD0CB02846BDE8704001F027BC69469C
:1055E000284601F031FB0028F1D02068029E2246B7
:1055F000C36800216846984758B1029808B1B04284
:10560000F3D36946284600F053FC0028DFD0012080
:10561000DDE7E86800B902A0E8600020D7E70000F5
:1056200063616C6C6261636B206661696C656400C8
:105630002DE9F0438BB01C4691468846054601276C
:1056400086681EE02068D0F800C0BCF1000F05D0CD
:105650004B46424621462846E04710E02146684630
:1056600001F011FAA8B1BDF81010414508D1019818
:1056700030B127736A464946284600F01BF860B1EE
:10568000A46814B1A868B042DCD001200BB0BDE81A
:10569000F083E86800B902A0E8600020F6E70000A7
:1056A000696E76616C696420657874656E73696F84
:1056B0006E000000937D13F0C00306D0402B09D08C
:1056C000C168802B03D041B906E000F01DB821B9B4
:1056D00003A102E0FFF758BF06A1C1600020704798
:1056E0006E6F206D616C6C6F6320737570706F727C
:1056F00074000000696E76616C6964206669656C8F
:105700006420747970650000F0B50546907D0E4602
:105710008BB0144610F030010DD0102907D020298D
:1057200010D0302958D0E86800287FD17DE0206A69
:1057300008B1012101700BB031462846BDE8F040A8
:10574000FFF7BEBE022E38D100F00F00052834D876
:10575000266A618AA0693288012701FB0200E061A4
:105760006946284601F070FA002822D00CE0224653
:10577000FF216846FFF7A4FE80B13088401C3080CE
:10578000618AE0690844E061029858B13088A18AD2
:105790008842ECD3E868002848D10CE00298002742
:1057A0000028F7D16946284600F082FB002800D087
:1057B00038460BB0F0BD1FA038E0216A628AA069AC
:1057C0000B8802FB0300E0610888421C0A80A18A62
:1057D0008842DFD22246AEE700F00F00082801D051
:1057E00009281AD1206A218A0088884215D0618A46
:1057F000E069FAF760FE606A816821B9C16811B991
:105800004068006848B16846E269616A01F02BF9B6
:1058100018B1684601F044FA18B1216A208A08805C
:10582000D8E7E86810B907A000E00CA0E860002005
:10583000BFE700006172726179206F766572666CF5
:105840006F7700006661696C656420746F20736512
:10585000742064656661756C74730000696E7661AE
:105860006C6964206669656C6420747970650000F9
:105870002DE9F0430646086A85B00C460588002DE0
:105880006BD0A07D4FF00208B8EB901F07D0A18A23
:10589000A94204D2306900B951A030618FE000F014
:1058A0000F0005285FD8228A0221304601F078F8DF
:1058B000002873D0A07D00F00F00042809D005282F
:1058C00009D014216846FAF718FE0027D4F81C8086
:1058D0000EE0AF0011E0EF000FE02146684600F057
:1058E0001BFFA8B1618AE0697F1C0844BFB2E06178
:1058F000AF42F2D3C4F81C80039F00233A463046DF
:1059000001F07CF8002849D0306848B1002722E037
:1059100030690028C1D104980028BED136A0BCE768
:1059200005B03A463046BDE8F043002101F0BABA6E
:10593000A07D00F00F00042810D005280ED02146CD
:10594000304600F0E9FE002828D0618AE0697F1C1B
:105950000844BFB2E061AF42EAD31EE021463046C0
:1059600000F080FEEFE7002715E0A07DB8EB901F68
:1059700005D100F00F00072813D0062811D02146CA
:10598000304600F03DF8002808D0618AE0697F1CAD
:105990000844BFB2E061AF42E7D3012005B0BDE8E3
:1059A000F083E069214681460068E06100283046C6
:1059B00007D000F025F8C4F81C900028E5D100209D
:1059C000ECE700F0F3FF40B100221346304601F04F
:1059D00015F810B1C4F81C90D7E7C4F81C90EEE796
:1059E0006172726179206D61782073697A652065D2
:1059F0007863656564656400286E6F6E65290000D4
:105A000070B50446C8690D4690B1204600F0CEFF3F
:105A100000280ED0AA7D002602F00F000C2860D2CC
:105A2000DFE800F00812121218181E373D3D5F5BC8
:105A3000012070BDE86901F0ADFA02462046BDE8DC
:105A40007040002300F0DABF29462046BDE87040D0
:105A500000F062BE29462046BDE8704000F002BE5C
:105A6000E969204611B1920903D00CE000221146E9
:105A70000BE06A8A0B88921E934204D9016901B92E
:105A80001AA1216127E031F8022BBDE8704000F037
:105A90000DBF29462046BDE8704000F0FFBD696A91
:105AA00011B1092806D00FE0206900B914A02061C7
:105AB000002070BD2A6A3AB152F8083D23B1294648
:105AC0002046121D984730B12046EA69696ABDE850
:105AD000704000F0FDBE304670BD6A8A2046E9691C
